{"abi":[{"inputs":[{"internalType":"uint256","name":"minimum","type":"uint256"},{"internalType":"address","name":"creator","type":"address"}],"stateMutability":"nonpayable","type":"constructor"},{"inputs":[{"internalType":"uint256","name":"index","type":"uint256"}],"name":"approveRequest","outputs":[],"stateMutability":"nonpayable","type":"function"},{"inputs":[{"internalType":"address","name":"","type":"address"}],"name":"approvers","outputs":[{"internalType":"bool","name":"","type":"bool"}],"stateMutability":"view","type":"function"},{"inputs":[],"name":"approversCount","outputs":[{"internalType":"uint256","name":"","type":"uint256"}],"stateMutability":"view","type":"function"},{"inputs":[],"name":"contribute","outputs":[],"stateMutability":"payable","type":"function"},{"inputs":[{"internalType":"string","name":"orderId","type":"string"},{"internalType":"string","name":"inspectedby","type":"string"},{"internalType":"string","name":"approvedby","type":"string"},{"internalType":"string","name":"selectedFile","type":"string"}],"name":"createRequest","outputs":[],"stateMutability":"nonpayable","type":"function"},{"inputs":[{"internalType":"uint256","name":"index","type":"uint256"}],"name":"finalizeRequest","outputs":[],"stateMutability":"nonpayable","type":"function"},{"inputs":[],"name":"getRequestsCount","outputs":[{"internalType":"uint256","name":"","type":"uint256"}],"stateMutability":"view","type":"function"},{"inputs":[],"name":"getSummary","outputs":[{"internalType":"uint256","name":"","type":"uint256"},{"internalType":"uint256","name":"","type":"uint256"},{"internalType":"uint256","name":"","type":"uint256"},{"internalType":"uint256","name":"","type":"uint256"},{"internalType":"address","name":"","type":"address"}],"stateMutability":"view","type":"function"},{"inputs":[],"name":"manager","outputs":[{"internalType":"address","name":"","type":"address"}],"stateMutability":"view","type":"function"},{"inputs":[],"name":"minimumContribution","outputs":[{"internalType":"uint256","name":"","type":"uint256"}],"stateMutability":"view","type":"function"},{"inputs":[{"internalType":"uint256","name":"","type":"uint256"}],"name":"requests","outputs":[{"internalType":"string","name":"orderId","type":"string"},{"internalType":"string","name":"inspectedby","type":"string"},{"internalType":"string","name":"approvedby","type":"string"},{"internalType":"uint256","name":"value","type":"uint256"},{"internalType":"string","name":"selectedFile","type":"string"},{"internalType":"address","name":"recipient","type":"address"},{"internalType":"bool","name":"complete","type":"bool"},{"internalType":"uint256","name":"approvalCount","type":"uint256"}],"stateMutability":"view","type":"function"}],"devdoc":{"kind":"dev","methods":{},"version":1},"evm":{"assembly":"    /* \"Campaign.sol\":448:2802  contract Campaign {... */\n  mstore(0x40, 0x80)\n    /* \"Campaign.sol\":1012:1129  constructor (uint minimum, address creator) {... */\n  callvalue\n  dup1\n  iszero\n  tag_1\n  jumpi\n  0x00\n  dup1\n  revert\ntag_1:\n  pop\n  mload(0x40)\n  sub(codesize, bytecodeSize)\n  dup1\n  bytecodeSize\n  dup4\n  codecopy\n  dup2\n  dup2\n  add\n  0x40\n  mstore\n  dup2\n  add\n  swap1\n  tag_2\n  swap2\n  swap1\n  tag_3\n  jump\t// in\ntag_2:\n    /* \"Campaign.sol\":1076:1083  creator */\n  dup1\n    /* \"Campaign.sol\":1066:1073  manager */\n  0x01\n  0x00\n    /* \"Campaign.sol\":1066:1083  manager = creator */\n  0x0100\n  exp\n  dup2\n  sload\n  dup2\n  0xffffffffffffffffffffffffffffffffffffffff\n  mul\n  not\n  and\n  swap1\n  dup4\n  0xffffffffffffffffffffffffffffffffffffffff\n  and\n  mul\n  or\n  swap1\n  sstore\n  pop\n    /* \"Campaign.sol\":1115:1122  minimum */\n  dup2\n    /* \"Campaign.sol\":1093:1112  minimumContribution */\n  0x02\n    /* \"Campaign.sol\":1093:1122  minimumContribution = minimum */\n  dup2\n  swap1\n  sstore\n  pop\n    /* \"Campaign.sol\":1012:1129  constructor (uint minimum, address creator) {... */\n  pop\n  pop\n    /* \"Campaign.sol\":448:2802  contract Campaign {... */\n  jump(tag_6)\n    /* \"#utility.yul\":88:205   */\ntag_8:\n    /* \"#utility.yul\":197:198   */\n  0x00\n    /* \"#utility.yul\":194:195   */\n  dup1\n    /* \"#utility.yul\":187:199   */\n  revert\n    /* \"#utility.yul\":334:411   */\ntag_10:\n    /* \"#utility.yul\":371:378   */\n  0x00\n    /* \"#utility.yul\":400:405   */\n  dup2\n    /* \"#utility.yul\":389:405   */\n  swap1\n  pop\n    /* \"#utility.yul\":334:411   */\n  swap2\n  swap1\n  pop\n  jump\t// out\n    /* \"#utility.yul\":417:539   */\ntag_11:\n    /* \"#utility.yul\":490:514   */\n  tag_23\n    /* \"#utility.yul\":508:513   */\n  dup2\n    /* \"#utility.yul\":490:514   */\n  tag_10\n  jump\t// in\ntag_23:\n    /* \"#utility.yul\":483:488   */\n  dup2\n    /* \"#utility.yul\":480:515   */\n  eq\n    /* \"#utility.yul\":470:533   */\n  tag_24\n  jumpi\n    /* \"#utility.yul\":529:530   */\n  0x00\n    /* \"#utility.yul\":526:527   */\n  dup1\n    /* \"#utility.yul\":519:531   */\n  revert\n    /* \"#utility.yul\":470:533   */\ntag_24:\n    /* \"#utility.yul\":417:539   */\n  pop\n  jump\t// out\n    /* \"#utility.yul\":545:688   */\ntag_12:\n    /* \"#utility.yul\":602:607   */\n  0x00\n    /* \"#utility.yul\":633:639   */\n  dup2\n    /* \"#utility.yul\":627:640   */\n  mload\n    /* \"#utility.yul\":618:640   */\n  swap1\n  pop\n    /* \"#utility.yul\":649:682   */\n  tag_26\n    /* \"#utility.yul\":676:681   */\n  dup2\n    /* \"#utility.yul\":649:682   */\n  tag_11\n  jump\t// in\ntag_26:\n    /* \"#utility.yul\":545:688   */\n  swap3\n  swap2\n  pop\n  pop\n  jump\t// out\n    /* \"#utility.yul\":694:820   */\ntag_13:\n    /* \"#utility.yul\":731:738   */\n  0x00\n    /* \"#utility.yul\":771:813   */\n  0xffffffffffffffffffffffffffffffffffffffff\n    /* \"#utility.yul\":764:769   */\n  dup3\n    /* \"#utility.yul\":760:814   */\n  and\n    /* \"#utility.yul\":749:814   */\n  swap1\n  pop\n    /* \"#utility.yul\":694:820   */\n  swap2\n  swap1\n  pop\n  jump\t// out\n    /* \"#utility.yul\":826:922   */\ntag_14:\n    /* \"#utility.yul\":863:870   */\n  0x00\n    /* \"#utility.yul\":892:916   */\n  tag_29\n    /* \"#utility.yul\":910:915   */\n  dup3\n    /* \"#utility.yul\":892:916   */\n  tag_13\n  jump\t// in\ntag_29:\n    /* \"#utility.yul\":881:916   */\n  swap1\n  pop\n    /* \"#utility.yul\":826:922   */\n  swap2\n  swap1\n  pop\n  jump\t// out\n    /* \"#utility.yul\":928:1050   */\ntag_15:\n    /* \"#utility.yul\":1001:1025   */\n  tag_31\n    /* \"#utility.yul\":1019:1024   */\n  dup2\n    /* \"#utility.yul\":1001:1025   */\n  tag_14\n  jump\t// in\ntag_31:\n    /* \"#utility.yul\":994:999   */\n  dup2\n    /* \"#utility.yul\":991:1026   */\n  eq\n    /* \"#utility.yul\":981:1044   */\n  tag_32\n  jumpi\n    /* \"#utility.yul\":1040:1041   */\n  0x00\n    /* \"#utility.yul\":1037:1038   */\n  dup1\n    /* \"#utility.yul\":1030:1042   */\n  revert\n    /* \"#utility.yul\":981:1044   */\ntag_32:\n    /* \"#utility.yul\":928:1050   */\n  pop\n  jump\t// out\n    /* \"#utility.yul\":1056:1199   */\ntag_16:\n    /* \"#utility.yul\":1113:1118   */\n  0x00\n    /* \"#utility.yul\":1144:1150   */\n  dup2\n    /* \"#utility.yul\":1138:1151   */\n  mload\n    /* \"#utility.yul\":1129:1151   */\n  swap1\n  pop\n    /* \"#utility.yul\":1160:1193   */\n  tag_34\n    /* \"#utility.yul\":1187:1192   */\n  dup2\n    /* \"#utility.yul\":1160:1193   */\n  tag_15\n  jump\t// in\ntag_34:\n    /* \"#utility.yul\":1056:1199   */\n  swap3\n  swap2\n  pop\n  pop\n  jump\t// out\n    /* \"#utility.yul\":1205:1712   */\ntag_3:\n    /* \"#utility.yul\":1284:1290   */\n  0x00\n    /* \"#utility.yul\":1292:1298   */\n  dup1\n    /* \"#utility.yul\":1341:1343   */\n  0x40\n    /* \"#utility.yul\":1329:1338   */\n  dup4\n    /* \"#utility.yul\":1320:1327   */\n  dup6\n    /* \"#utility.yul\":1316:1339   */\n  sub\n    /* \"#utility.yul\":1312:1344   */\n  slt\n    /* \"#utility.yul\":1309:1428   */\n  iszero\n  tag_36\n  jumpi\n    /* \"#utility.yul\":1347:1426   */\n  tag_37\n  tag_8\n  jump\t// in\ntag_37:\n    /* \"#utility.yul\":1309:1428   */\ntag_36:\n    /* \"#utility.yul\":1467:1468   */\n  0x00\n    /* \"#utility.yul\":1492:1556   */\n  tag_38\n    /* \"#utility.yul\":1548:1555   */\n  dup6\n    /* \"#utility.yul\":1539:1545   */\n  dup3\n    /* \"#utility.yul\":1528:1537   */\n  dup7\n    /* \"#utility.yul\":1524:1546   */\n  add\n    /* \"#utility.yul\":1492:1556   */\n  tag_12\n  jump\t// in\ntag_38:\n    /* \"#utility.yul\":1482:1556   */\n  swap3\n  pop\n    /* \"#utility.yul\":1438:1566   */\n  pop\n    /* \"#utility.yul\":1605:1607   */\n  0x20\n    /* \"#utility.yul\":1631:1695   */\n  tag_39\n    /* \"#utility.yul\":1687:1694   */\n  dup6\n    /* \"#utility.yul\":1678:1684   */\n  dup3\n    /* \"#utility.yul\":1667:1676   */\n  dup7\n    /* \"#utility.yul\":1663:1685   */\n  add\n    /* \"#utility.yul\":1631:1695   */\n  tag_16\n  jump\t// in\ntag_39:\n    /* \"#utility.yul\":1621:1695   */\n  swap2\n  pop\n    /* \"#utility.yul\":1576:1705   */\n  pop\n    /* \"#utility.yul\":1205:1712   */\n  swap3\n  pop\n  swap3\n  swap1\n  pop\n  jump\t// out\n    /* \"Campaign.sol\":448:2802  contract Campaign {... */\ntag_6:\n  dataSize(sub_0)\n  dup1\n  dataOffset(sub_0)\n  0x00\n  codecopy\n  0x00\n  return\nstop\n\nsub_0: assembly {\n        /* \"Campaign.sol\":448:2802  contract Campaign {... */\n      mstore(0x40, 0x80)\n      jumpi(tag_1, lt(calldatasize, 0x04))\n      shr(0xe0, calldataload(0x00))\n      dup1\n      0x81d12c58\n      gt\n      tag_13\n      jumpi\n      dup1\n      0x81d12c58\n      eq\n      tag_7\n      jumpi\n      dup1\n      0x82fde093\n      eq\n      tag_8\n      jumpi\n      dup1\n      0x937e09b1\n      eq\n      tag_9\n      jumpi\n      dup1\n      0xd7bb99ba\n      eq\n      tag_10\n      jumpi\n      dup1\n      0xd7d1bbdb\n      eq\n      tag_11\n      jumpi\n      dup1\n      0xe600791c\n      eq\n      tag_12\n      jumpi\n      jump(tag_1)\n    tag_13:\n      dup1\n      0x03441006\n      eq\n      tag_2\n      jumpi\n      dup1\n      0x0a144391\n      eq\n      tag_3\n      jumpi\n      dup1\n      0x3410452a\n      eq\n      tag_4\n      jumpi\n      dup1\n      0x4051ddac\n      eq\n      tag_5\n      jumpi\n      dup1\n      0x481c6a75\n      eq\n      tag_6\n      jumpi\n    tag_1:\n      0x00\n      dup1\n      revert\n        /* \"Campaign.sol\":2119:2426  function finalizeRequest(uint index) public restricted {... */\n    tag_2:\n      callvalue\n      dup1\n      iszero\n      tag_14\n      jumpi\n      0x00\n      dup1\n      revert\n    tag_14:\n      pop\n      tag_15\n      0x04\n      dup1\n      calldatasize\n      sub\n      dup2\n      add\n      swap1\n      tag_16\n      swap2\n      swap1\n      tag_17\n      jump\t// in\n    tag_16:\n      tag_18\n      jump\t// in\n    tag_15:\n      stop\n        /* \"Campaign.sol\":846:887  mapping(address => bool) public approvers */\n    tag_3:\n      callvalue\n      dup1\n      iszero\n      tag_19\n      jumpi\n      0x00\n      dup1\n      revert\n    tag_19:\n      pop\n      tag_20\n      0x04\n      dup1\n      calldatasize\n      sub\n      dup2\n      add\n      swap1\n      tag_21\n      swap2\n      swap1\n      tag_22\n      jump\t// in\n    tag_21:\n      tag_23\n      jump\t// in\n    tag_20:\n      mload(0x40)\n      tag_24\n      swap2\n      swap1\n      tag_25\n      jump\t// in\n    tag_24:\n      mload(0x40)\n      dup1\n      swap2\n      sub\n      swap1\n      return\n        /* \"Campaign.sol\":2706:2800  function getRequestsCount() public view returns (uint) {... */\n    tag_4:\n      callvalue\n      dup1\n      iszero\n      tag_26\n      jumpi\n      0x00\n      dup1\n      revert\n    tag_26:\n      pop\n      tag_27\n      tag_28\n      jump\t// in\n    tag_27:\n      mload(0x40)\n      tag_29\n      swap2\n      swap1\n      tag_30\n      jump\t// in\n    tag_29:\n      mload(0x40)\n      dup1\n      swap2\n      sub\n      swap1\n      return\n        /* \"Campaign.sol\":2436:2696  function getSummary() public view returns (... */\n    tag_5:\n      callvalue\n      dup1\n      iszero\n      tag_31\n      jumpi\n      0x00\n      dup1\n      revert\n    tag_31:\n      pop\n      tag_32\n      tag_33\n      jump\t// in\n    tag_32:\n      mload(0x40)\n      tag_34\n      swap6\n      swap5\n      swap4\n      swap3\n      swap2\n      swap1\n      tag_35\n      jump\t// in\n    tag_34:\n      mload(0x40)\n      dup1\n      swap2\n      sub\n      swap1\n      return\n        /* \"Campaign.sol\":781:803  address public manager */\n    tag_6:\n      callvalue\n      dup1\n      iszero\n      tag_36\n      jumpi\n      0x00\n      dup1\n      revert\n    tag_36:\n      pop\n      tag_37\n      tag_38\n      jump\t// in\n    tag_37:\n      mload(0x40)\n      tag_39\n      swap2\n      swap1\n      tag_40\n      jump\t// in\n    tag_39:\n      mload(0x40)\n      dup1\n      swap2\n      sub\n      swap1\n      return\n        /* \"Campaign.sol\":750:775  Request[] public requests */\n    tag_7:\n      callvalue\n      dup1\n      iszero\n      tag_41\n      jumpi\n      0x00\n      dup1\n      revert\n    tag_41:\n      pop\n      tag_42\n      0x04\n      dup1\n      calldatasize\n      sub\n      dup2\n      add\n      swap1\n      tag_43\n      swap2\n      swap1\n      tag_17\n      jump\t// in\n    tag_43:\n      tag_44\n      jump\t// in\n    tag_42:\n      mload(0x40)\n      tag_45\n      swap9\n      swap8\n      swap7\n      swap6\n      swap5\n      swap4\n      swap3\n      swap2\n      swap1\n      tag_46\n      jump\t// in\n    tag_45:\n      mload(0x40)\n      dup1\n      swap2\n      sub\n      swap1\n      return\n        /* \"Campaign.sol\":893:919  uint public approversCount */\n    tag_8:\n      callvalue\n      dup1\n      iszero\n      tag_47\n      jumpi\n      0x00\n      dup1\n      revert\n    tag_47:\n      pop\n      tag_48\n      tag_49\n      jump\t// in\n    tag_48:\n      mload(0x40)\n      tag_50\n      swap2\n      swap1\n      tag_30\n      jump\t// in\n    tag_50:\n      mload(0x40)\n      dup1\n      swap2\n      sub\n      swap1\n      return\n        /* \"Campaign.sol\":809:840  uint public minimumContribution */\n    tag_9:\n      callvalue\n      dup1\n      iszero\n      tag_51\n      jumpi\n      0x00\n      dup1\n      revert\n    tag_51:\n      pop\n      tag_52\n      tag_53\n      jump\t// in\n    tag_52:\n      mload(0x40)\n      tag_54\n      swap2\n      swap1\n      tag_30\n      jump\t// in\n    tag_54:\n      mload(0x40)\n      dup1\n      swap2\n      sub\n      swap1\n      return\n        /* \"Campaign.sol\":1135:1294  function contribute() public payable {... */\n    tag_10:\n      tag_55\n      tag_56\n      jump\t// in\n    tag_55:\n      stop\n        /* \"Campaign.sol\":1842:2113  function approveRequest(uint index) public {... */\n    tag_11:\n      callvalue\n      dup1\n      iszero\n      tag_57\n      jumpi\n      0x00\n      dup1\n      revert\n    tag_57:\n      pop\n      tag_58\n      0x04\n      dup1\n      calldatasize\n      sub\n      dup2\n      add\n      swap1\n      tag_59\n      swap2\n      swap1\n      tag_17\n      jump\t// in\n    tag_59:\n      tag_60\n      jump\t// in\n    tag_58:\n      stop\n        /* \"Campaign.sol\":1300:1836  function createRequest(string memory orderId, string memory inspectedby,string memory approvedby,string memory selectedFile ) public restricted {... */\n    tag_12:\n      callvalue\n      dup1\n      iszero\n      tag_61\n      jumpi\n      0x00\n      dup1\n      revert\n    tag_61:\n      pop\n      tag_62\n      0x04\n      dup1\n      calldatasize\n      sub\n      dup2\n      add\n      swap1\n      tag_63\n      swap2\n      swap1\n      tag_64\n      jump\t// in\n    tag_63:\n      tag_65\n      jump\t// in\n    tag_62:\n      stop\n        /* \"Campaign.sol\":2119:2426  function finalizeRequest(uint index) public restricted {... */\n    tag_18:\n        /* \"Campaign.sol\":980:987  manager */\n      0x01\n      0x00\n      swap1\n      sload\n      swap1\n      0x0100\n      exp\n      swap1\n      div\n      0xffffffffffffffffffffffffffffffffffffffff\n      and\n        /* \"Campaign.sol\":966:987  msg.sender == manager */\n      0xffffffffffffffffffffffffffffffffffffffff\n      and\n        /* \"Campaign.sol\":966:976  msg.sender */\n      caller\n        /* \"Campaign.sol\":966:987  msg.sender == manager */\n      0xffffffffffffffffffffffffffffffffffffffff\n      and\n      eq\n        /* \"Campaign.sol\":958:988  require(msg.sender == manager) */\n      tag_67\n      jumpi\n      0x00\n      dup1\n      revert\n    tag_67:\n        /* \"Campaign.sol\":2184:2207  Request storage request */\n      0x00\n        /* \"Campaign.sol\":2210:2218  requests */\n      dup1\n        /* \"Campaign.sol\":2219:2224  index */\n      dup3\n        /* \"Campaign.sol\":2210:2225  requests[index] */\n      dup2\n      sload\n      dup2\n      lt\n      tag_69\n      jumpi\n      tag_70\n      tag_71\n      jump\t// in\n    tag_70:\n    tag_69:\n      swap1\n      0x00\n      mstore\n      keccak256(0x00, 0x20)\n      swap1\n      0x08\n      mul\n      add\n        /* \"Campaign.sol\":2184:2225  Request storage request = requests[index] */\n      swap1\n      pop\n        /* \"Campaign.sol\":2286:2287  2 */\n      0x02\n        /* \"Campaign.sol\":2269:2283  approversCount */\n      sload(0x04)\n        /* \"Campaign.sol\":2269:2287  approversCount / 2 */\n      tag_73\n      swap2\n      swap1\n      tag_74\n      jump\t// in\n    tag_73:\n        /* \"Campaign.sol\":2244:2251  request */\n      dup2\n        /* \"Campaign.sol\":2244:2265  request.approvalCount */\n      0x06\n      add\n      sload\n        /* \"Campaign.sol\":2244:2288  request.approvalCount > (approversCount / 2) */\n      gt\n        /* \"Campaign.sol\":2236:2289  require(request.approvalCount > (approversCount / 2)) */\n      tag_75\n      jumpi\n      0x00\n      dup1\n      revert\n    tag_75:\n        /* \"Campaign.sol\":2308:2315  request */\n      dup1\n        /* \"Campaign.sol\":2308:2324  request.complete */\n      0x05\n      add\n      0x14\n      swap1\n      sload\n      swap1\n      0x0100\n      exp\n      swap1\n      div\n      0xff\n      and\n        /* \"Campaign.sol\":2307:2324  !request.complete */\n      iszero\n        /* \"Campaign.sol\":2299:2325  require(!request.complete) */\n      tag_76\n      jumpi\n      0x00\n      dup1\n      revert\n    tag_76:\n        /* \"Campaign.sol\":2344:2351  request */\n      dup1\n        /* \"Campaign.sol\":2344:2361  request.recipient */\n      0x05\n      add\n      0x00\n      swap1\n      sload\n      swap1\n      0x0100\n      exp\n      swap1\n      div\n      0xffffffffffffffffffffffffffffffffffffffff\n      and\n        /* \"Campaign.sol\":2336:2371  payable(request.recipient).transfer */\n      0xffffffffffffffffffffffffffffffffffffffff\n      and\n        /* \"Campaign.sol\":2336:2386  payable(request.recipient).transfer(request.value) */\n      0x08fc\n        /* \"Campaign.sol\":2372:2379  request */\n      dup3\n        /* \"Campaign.sol\":2372:2385  request.value */\n      0x03\n      add\n      sload\n        /* \"Campaign.sol\":2336:2386  payable(request.recipient).transfer(request.value) */\n      swap1\n      dup2\n      iszero\n      mul\n      swap1\n      mload(0x40)\n      0x00\n      mload(0x40)\n      dup1\n      dup4\n      sub\n      dup2\n      dup6\n      dup9\n      dup9\n      call\n      swap4\n      pop\n      pop\n      pop\n      pop\n      iszero\n      dup1\n      iszero\n      tag_78\n      jumpi\n      returndatasize\n      0x00\n      dup1\n      returndatacopy\n      revert(0x00, returndatasize)\n    tag_78:\n      pop\n        /* \"Campaign.sol\":2415:2419  true */\n      0x01\n        /* \"Campaign.sol\":2396:2403  request */\n      dup2\n        /* \"Campaign.sol\":2396:2412  request.complete */\n      0x05\n      add\n      0x14\n        /* \"Campaign.sol\":2396:2419  request.complete = true */\n      0x0100\n      exp\n      dup2\n      sload\n      dup2\n      0xff\n      mul\n      not\n      and\n      swap1\n      dup4\n      iszero\n      iszero\n      mul\n      or\n      swap1\n      sstore\n      pop\n        /* \"Campaign.sol\":2174:2426  {... */\n      pop\n        /* \"Campaign.sol\":2119:2426  function finalizeRequest(uint index) public restricted {... */\n      pop\n      jump\t// out\n        /* \"Campaign.sol\":846:887  mapping(address => bool) public approvers */\n    tag_23:\n      mstore(0x20, 0x03)\n      dup1\n      0x00\n      mstore\n      keccak256(0x00, 0x40)\n      0x00\n      swap2\n      pop\n      sload\n      swap1\n      0x0100\n      exp\n      swap1\n      div\n      0xff\n      and\n      dup2\n      jump\t// out\n        /* \"Campaign.sol\":2706:2800  function getRequestsCount() public view returns (uint) {... */\n    tag_28:\n        /* \"Campaign.sol\":2755:2759  uint */\n      0x00\n        /* \"Campaign.sol\":2778:2786  requests */\n      dup1\n        /* \"Campaign.sol\":2778:2793  requests.length */\n      dup1\n      sload\n      swap1\n      pop\n        /* \"Campaign.sol\":2771:2793  return requests.length */\n      swap1\n      pop\n        /* \"Campaign.sol\":2706:2800  function getRequestsCount() public view returns (uint) {... */\n      swap1\n      jump\t// out\n        /* \"Campaign.sol\":2436:2696  function getSummary() public view returns (... */\n    tag_33:\n        /* \"Campaign.sol\":2486:2490  uint */\n      0x00\n        /* \"Campaign.sol\":2492:2496  uint */\n      dup1\n        /* \"Campaign.sol\":2498:2502  uint */\n      0x00\n        /* \"Campaign.sol\":2504:2508  uint */\n      dup1\n        /* \"Campaign.sol\":2510:2517  address */\n      0x00\n        /* \"Campaign.sol\":2555:2574  minimumContribution */\n      sload(0x02)\n        /* \"Campaign.sol\":2586:2607  address(this).balance */\n      selfbalance\n        /* \"Campaign.sol\":2619:2627  requests */\n      0x00\n        /* \"Campaign.sol\":2619:2634  requests.length */\n      dup1\n      sload\n      swap1\n      pop\n        /* \"Campaign.sol\":2646:2660  approversCount */\n      sload(0x04)\n        /* \"Campaign.sol\":2672:2679  manager */\n      0x01\n      0x00\n      swap1\n      sload\n      swap1\n      0x0100\n      exp\n      swap1\n      div\n      0xffffffffffffffffffffffffffffffffffffffff\n      and\n        /* \"Campaign.sol\":2536:2689  return (... */\n      swap5\n      pop\n      swap5\n      pop\n      swap5\n      pop\n      swap5\n      pop\n      swap5\n      pop\n        /* \"Campaign.sol\":2436:2696  function getSummary() public view returns (... */\n      swap1\n      swap2\n      swap3\n      swap4\n      swap5\n      jump\t// out\n        /* \"Campaign.sol\":781:803  address public manager */\n    tag_38:\n      0x01\n      0x00\n      swap1\n      sload\n      swap1\n      0x0100\n      exp\n      swap1\n      div\n      0xffffffffffffffffffffffffffffffffffffffff\n      and\n      dup2\n      jump\t// out\n        /* \"Campaign.sol\":750:775  Request[] public requests */\n    tag_44:\n      0x00\n      dup2\n      dup2\n      sload\n      dup2\n      lt\n      tag_81\n      jumpi\n      0x00\n      dup1\n      revert\n    tag_81:\n      swap1\n      0x00\n      mstore\n      keccak256(0x00, 0x20)\n      swap1\n      0x08\n      mul\n      add\n      0x00\n      swap2\n      pop\n      swap1\n      pop\n      dup1\n      0x00\n      add\n      dup1\n      sload\n      tag_83\n      swap1\n      tag_84\n      jump\t// in\n    tag_83:\n      dup1\n      0x1f\n      add\n      0x20\n      dup1\n      swap2\n      div\n      mul\n      0x20\n      add\n      mload(0x40)\n      swap1\n      dup2\n      add\n      0x40\n      mstore\n      dup1\n      swap3\n      swap2\n      swap1\n      dup2\n      dup2\n      mstore\n      0x20\n      add\n      dup3\n      dup1\n      sload\n      tag_85\n      swap1\n      tag_84\n      jump\t// in\n    tag_85:\n      dup1\n      iszero\n      tag_86\n      jumpi\n      dup1\n      0x1f\n      lt\n      tag_87\n      jumpi\n      0x0100\n      dup1\n      dup4\n      sload\n      div\n      mul\n      dup4\n      mstore\n      swap2\n      0x20\n      add\n      swap2\n      jump(tag_86)\n    tag_87:\n      dup3\n      add\n      swap2\n      swap1\n      0x00\n      mstore\n      keccak256(0x00, 0x20)\n      swap1\n    tag_88:\n      dup2\n      sload\n      dup2\n      mstore\n      swap1\n      0x01\n      add\n      swap1\n      0x20\n      add\n      dup1\n      dup4\n      gt\n      tag_88\n      jumpi\n      dup3\n      swap1\n      sub\n      0x1f\n      and\n      dup3\n      add\n      swap2\n    tag_86:\n      pop\n      pop\n      pop\n      pop\n      pop\n      swap1\n      dup1\n      0x01\n      add\n      dup1\n      sload\n      tag_89\n      swap1\n      tag_84\n      jump\t// in\n    tag_89:\n      dup1\n      0x1f\n      add\n      0x20\n      dup1\n      swap2\n      div\n      mul\n      0x20\n      add\n      mload(0x40)\n      swap1\n      dup2\n      add\n      0x40\n      mstore\n      dup1\n      swap3\n      swap2\n      swap1\n      dup2\n      dup2\n      mstore\n      0x20\n      add\n      dup3\n      dup1\n      sload\n      tag_90\n      swap1\n      tag_84\n      jump\t// in\n    tag_90:\n      dup1\n      iszero\n      tag_91\n      jumpi\n      dup1\n      0x1f\n      lt\n      tag_92\n      jumpi\n      0x0100\n      dup1\n      dup4\n      sload\n      div\n      mul\n      dup4\n      mstore\n      swap2\n      0x20\n      add\n      swap2\n      jump(tag_91)\n    tag_92:\n      dup3\n      add\n      swap2\n      swap1\n      0x00\n      mstore\n      keccak256(0x00, 0x20)\n      swap1\n    tag_93:\n      dup2\n      sload\n      dup2\n      mstore\n      swap1\n      0x01\n      add\n      swap1\n      0x20\n      add\n      dup1\n      dup4\n      gt\n      tag_93\n      jumpi\n      dup3\n      swap1\n      sub\n      0x1f\n      and\n      dup3\n      add\n      swap2\n    tag_91:\n      pop\n      pop\n      pop\n      pop\n      pop\n      swap1\n      dup1\n      0x02\n      add\n      dup1\n      sload\n      tag_94\n      swap1\n      tag_84\n      jump\t// in\n    tag_94:\n      dup1\n      0x1f\n      add\n      0x20\n      dup1\n      swap2\n      div\n      mul\n      0x20\n      add\n      mload(0x40)\n      swap1\n      dup2\n      add\n      0x40\n      mstore\n      dup1\n      swap3\n      swap2\n      swap1\n      dup2\n      dup2\n      mstore\n      0x20\n      add\n      dup3\n      dup1\n      sload\n      tag_95\n      swap1\n      tag_84\n      jump\t// in\n    tag_95:\n      dup1\n      iszero\n      tag_96\n      jumpi\n      dup1\n      0x1f\n      lt\n      tag_97\n      jumpi\n      0x0100\n      dup1\n      dup4\n      sload\n      div\n      mul\n      dup4\n      mstore\n      swap2\n      0x20\n      add\n      swap2\n      jump(tag_96)\n    tag_97:\n      dup3\n      add\n      swap2\n      swap1\n      0x00\n      mstore\n      keccak256(0x00, 0x20)\n      swap1\n    tag_98:\n      dup2\n      sload\n      dup2\n      mstore\n      swap1\n      0x01\n      add\n      swap1\n      0x20\n      add\n      dup1\n      dup4\n      gt\n      tag_98\n      jumpi\n      dup3\n      swap1\n      sub\n      0x1f\n      and\n      dup3\n      add\n      swap2\n    tag_96:\n      pop\n      pop\n      pop\n      pop\n      pop\n      swap1\n      dup1\n      0x03\n      add\n      sload\n      swap1\n      dup1\n      0x04\n      add\n      dup1\n      sload\n      tag_99\n      swap1\n      tag_84\n      jump\t// in\n    tag_99:\n      dup1\n      0x1f\n      add\n      0x20\n      dup1\n      swap2\n      div\n      mul\n      0x20\n      add\n      mload(0x40)\n      swap1\n      dup2\n      add\n      0x40\n      mstore\n      dup1\n      swap3\n      swap2\n      swap1\n      dup2\n      dup2\n      mstore\n      0x20\n      add\n      dup3\n      dup1\n      sload\n      tag_100\n      swap1\n      tag_84\n      jump\t// in\n    tag_100:\n      dup1\n      iszero\n      tag_101\n      jumpi\n      dup1\n      0x1f\n      lt\n      tag_102\n      jumpi\n      0x0100\n      dup1\n      dup4\n      sload\n      div\n      mul\n      dup4\n      mstore\n      swap2\n      0x20\n      add\n      swap2\n      jump(tag_101)\n    tag_102:\n      dup3\n      add\n      swap2\n      swap1\n      0x00\n      mstore\n      keccak256(0x00, 0x20)\n      swap1\n    tag_103:\n      dup2\n      sload\n      dup2\n      mstore\n      swap1\n      0x01\n      add\n      swap1\n      0x20\n      add\n      dup1\n      dup4\n      gt\n      tag_103\n      jumpi\n      dup3\n      swap1\n      sub\n      0x1f\n      and\n      dup3\n      add\n      swap2\n    tag_101:\n      pop\n      pop\n      pop\n      pop\n      pop\n      swap1\n      dup1\n      0x05\n      add\n      0x00\n      swap1\n      sload\n      swap1\n      0x0100\n      exp\n      swap1\n      div\n      0xffffffffffffffffffffffffffffffffffffffff\n      and\n      swap1\n      dup1\n      0x05\n      add\n      0x14\n      swap1\n      sload\n      swap1\n      0x0100\n      exp\n      swap1\n      div\n      0xff\n      and\n      swap1\n      dup1\n      0x06\n      add\n      sload\n      swap1\n      pop\n      dup9\n      jump\t// out\n        /* \"Campaign.sol\":893:919  uint public approversCount */\n    tag_49:\n      sload(0x04)\n      dup2\n      jump\t// out\n        /* \"Campaign.sol\":809:840  uint public minimumContribution */\n    tag_53:\n      sload(0x02)\n      dup2\n      jump\t// out\n        /* \"Campaign.sol\":1135:1294  function contribute() public payable {... */\n    tag_56:\n        /* \"Campaign.sol\":1202:1221  minimumContribution */\n      sload(0x02)\n        /* \"Campaign.sol\":1190:1199  msg.value */\n      callvalue\n        /* \"Campaign.sol\":1190:1221  msg.value > minimumContribution */\n      gt\n        /* \"Campaign.sol\":1182:1222  require(msg.value > minimumContribution) */\n      tag_105\n      jumpi\n      0x00\n      dup1\n      revert\n    tag_105:\n        /* \"Campaign.sol\":1257:1261  true */\n      0x01\n        /* \"Campaign.sol\":1233:1242  approvers */\n      0x03\n        /* \"Campaign.sol\":1233:1254  approvers[msg.sender] */\n      0x00\n        /* \"Campaign.sol\":1243:1253  msg.sender */\n      caller\n        /* \"Campaign.sol\":1233:1254  approvers[msg.sender] */\n      0xffffffffffffffffffffffffffffffffffffffff\n      and\n      0xffffffffffffffffffffffffffffffffffffffff\n      and\n      dup2\n      mstore\n      0x20\n      add\n      swap1\n      dup2\n      mstore\n      0x20\n      add\n      0x00\n      keccak256\n      0x00\n        /* \"Campaign.sol\":1233:1261  approvers[msg.sender] = true */\n      0x0100\n      exp\n      dup2\n      sload\n      dup2\n      0xff\n      mul\n      not\n      and\n      swap1\n      dup4\n      iszero\n      iszero\n      mul\n      or\n      swap1\n      sstore\n      pop\n        /* \"Campaign.sol\":1271:1285  approversCount */\n      0x04\n      0x00\n        /* \"Campaign.sol\":1271:1287  approversCount++ */\n      dup2\n      sload\n      dup1\n      swap3\n      swap2\n      swap1\n      tag_106\n      swap1\n      tag_107\n      jump\t// in\n    tag_106:\n      swap2\n      swap1\n      pop\n      sstore\n      pop\n        /* \"Campaign.sol\":1135:1294  function contribute() public payable {... */\n      jump\t// out\n        /* \"Campaign.sol\":1842:2113  function approveRequest(uint index) public {... */\n    tag_60:\n        /* \"Campaign.sol\":1895:1918  Request storage request */\n      0x00\n        /* \"Campaign.sol\":1921:1929  requests */\n      dup1\n        /* \"Campaign.sol\":1930:1935  index */\n      dup3\n        /* \"Campaign.sol\":1921:1936  requests[index] */\n      dup2\n      sload\n      dup2\n      lt\n      tag_109\n      jumpi\n      tag_110\n      tag_71\n      jump\t// in\n    tag_110:\n    tag_109:\n      swap1\n      0x00\n      mstore\n      keccak256(0x00, 0x20)\n      swap1\n      0x08\n      mul\n      add\n        /* \"Campaign.sol\":1895:1936  Request storage request = requests[index] */\n      swap1\n      pop\n        /* \"Campaign.sol\":1955:1964  approvers */\n      0x03\n        /* \"Campaign.sol\":1955:1976  approvers[msg.sender] */\n      0x00\n        /* \"Campaign.sol\":1965:1975  msg.sender */\n      caller\n        /* \"Campaign.sol\":1955:1976  approvers[msg.sender] */\n      0xffffffffffffffffffffffffffffffffffffffff\n      and\n      0xffffffffffffffffffffffffffffffffffffffff\n      and\n      dup2\n      mstore\n      0x20\n      add\n      swap1\n      dup2\n      mstore\n      0x20\n      add\n      0x00\n      keccak256\n      0x00\n      swap1\n      sload\n      swap1\n      0x0100\n      exp\n      swap1\n      div\n      0xff\n      and\n        /* \"Campaign.sol\":1947:1977  require(approvers[msg.sender]) */\n      tag_112\n      jumpi\n      0x00\n      dup1\n      revert\n    tag_112:\n        /* \"Campaign.sol\":1996:2003  request */\n      dup1\n        /* \"Campaign.sol\":1996:2013  request.approvals */\n      0x07\n      add\n        /* \"Campaign.sol\":1996:2025  request.approvals[msg.sender] */\n      0x00\n        /* \"Campaign.sol\":2014:2024  msg.sender */\n      caller\n        /* \"Campaign.sol\":1996:2025  request.approvals[msg.sender] */\n      0xffffffffffffffffffffffffffffffffffffffff\n      and\n      0xffffffffffffffffffffffffffffffffffffffff\n      and\n      dup2\n      mstore\n      0x20\n      add\n      swap1\n      dup2\n      mstore\n      0x20\n      add\n      0x00\n      keccak256\n      0x00\n      swap1\n      sload\n      swap1\n      0x0100\n      exp\n      swap1\n      div\n      0xff\n      and\n        /* \"Campaign.sol\":1995:2025  !request.approvals[msg.sender] */\n      iszero\n        /* \"Campaign.sol\":1987:2026  require(!request.approvals[msg.sender]) */\n      tag_113\n      jumpi\n      0x00\n      dup1\n      revert\n    tag_113:\n        /* \"Campaign.sol\":2069:2073  true */\n      0x01\n        /* \"Campaign.sol\":2037:2044  request */\n      dup2\n        /* \"Campaign.sol\":2037:2054  request.approvals */\n      0x07\n      add\n        /* \"Campaign.sol\":2037:2066  request.approvals[msg.sender] */\n      0x00\n        /* \"Campaign.sol\":2055:2065  msg.sender */\n      caller\n        /* \"Campaign.sol\":2037:2066  request.approvals[msg.sender] */\n      0xffffffffffffffffffffffffffffffffffffffff\n      and\n      0xffffffffffffffffffffffffffffffffffffffff\n      and\n      dup2\n      mstore\n      0x20\n      add\n      swap1\n      dup2\n      mstore\n      0x20\n      add\n      0x00\n      keccak256\n      0x00\n        /* \"Campaign.sol\":2037:2073  request.approvals[msg.sender] = true */\n      0x0100\n      exp\n      dup2\n      sload\n      dup2\n      0xff\n      mul\n      not\n      and\n      swap1\n      dup4\n      iszero\n      iszero\n      mul\n      or\n      swap1\n      sstore\n      pop\n        /* \"Campaign.sol\":2083:2090  request */\n      dup1\n        /* \"Campaign.sol\":2083:2104  request.approvalCount */\n      0x06\n      add\n      0x00\n        /* \"Campaign.sol\":2083:2106  request.approvalCount++ */\n      dup2\n      sload\n      dup1\n      swap3\n      swap2\n      swap1\n      tag_114\n      swap1\n      tag_107\n      jump\t// in\n    tag_114:\n      swap2\n      swap1\n      pop\n      sstore\n      pop\n        /* \"Campaign.sol\":1885:2113  {... */\n      pop\n        /* \"Campaign.sol\":1842:2113  function approveRequest(uint index) public {... */\n      pop\n      jump\t// out\n        /* \"Campaign.sol\":1300:1836  function createRequest(string memory orderId, string memory inspectedby,string memory approvedby,string memory selectedFile ) public restricted {... */\n    tag_65:\n        /* \"Campaign.sol\":980:987  manager */\n      0x01\n      0x00\n      swap1\n      sload\n      swap1\n      0x0100\n      exp\n      swap1\n      div\n      0xffffffffffffffffffffffffffffffffffffffff\n      and\n        /* \"Campaign.sol\":966:987  msg.sender == manager */\n      0xffffffffffffffffffffffffffffffffffffffff\n      and\n        /* \"Campaign.sol\":966:976  msg.sender */\n      caller\n        /* \"Campaign.sol\":966:987  msg.sender == manager */\n      0xffffffffffffffffffffffffffffffffffffffff\n      and\n      eq\n        /* \"Campaign.sol\":958:988  require(msg.sender == manager) */\n      tag_116\n      jumpi\n      0x00\n      dup1\n      revert\n    tag_116:\n        /* \"Campaign.sol\":1454:1480  Request storage newRequest */\n      0x00\n        /* \"Campaign.sol\":1483:1491  requests */\n      dup1\n        /* \"Campaign.sol\":1483:1498  requests.push() */\n      0x01\n      dup2\n      0x01\n      dup2\n      sload\n      add\n      dup1\n      dup3\n      sstore\n      dup1\n      swap2\n      pop\n      pop\n      sub\n      swap1\n      0x00\n      mstore\n      keccak256(0x00, 0x20)\n      swap1\n      0x08\n      mul\n      add\n        /* \"Campaign.sol\":1454:1498  Request storage newRequest = requests.push() */\n      swap1\n      pop\n        /* \"Campaign.sol\":1530:1537  orderId */\n      dup5\n        /* \"Campaign.sol\":1509:1519  newRequest */\n      dup2\n        /* \"Campaign.sol\":1509:1527  newRequest.orderId */\n      0x00\n      add\n        /* \"Campaign.sol\":1509:1537  newRequest.orderId = orderId */\n      swap1\n      dup2\n      tag_119\n      swap2\n      swap1\n      tag_120\n      jump\t// in\n    tag_119:\n      pop\n        /* \"Campaign.sol\":1572:1583  inspectedby */\n      dup4\n        /* \"Campaign.sol\":1547:1557  newRequest */\n      dup2\n        /* \"Campaign.sol\":1547:1569  newRequest.inspectedby */\n      0x01\n      add\n        /* \"Campaign.sol\":1547:1583  newRequest.inspectedby = inspectedby */\n      swap1\n      dup2\n      tag_121\n      swap2\n      swap1\n      tag_120\n      jump\t// in\n    tag_121:\n      pop\n        /* \"Campaign.sol\":1617:1627  approvedby */\n      dup3\n        /* \"Campaign.sol\":1593:1603  newRequest */\n      dup2\n        /* \"Campaign.sol\":1593:1614  newRequest.approvedby */\n      0x02\n      add\n        /* \"Campaign.sol\":1593:1627  newRequest.approvedby = approvedby */\n      swap1\n      dup2\n      tag_122\n      swap2\n      swap1\n      tag_120\n      jump\t// in\n    tag_122:\n      pop\n        /* \"Campaign.sol\":1700:1712  selectedFile */\n      dup2\n        /* \"Campaign.sol\":1675:1685  newRequest */\n      dup2\n        /* \"Campaign.sol\":1675:1698  newRequest.selectedFile */\n      0x04\n      add\n        /* \"Campaign.sol\":1675:1712  newRequest.selectedFile= selectedFile */\n      swap1\n      dup2\n      tag_123\n      swap2\n      swap1\n      tag_120\n      jump\t// in\n    tag_123:\n      pop\n        /* \"Campaign.sol\":1787:1792  false */\n      0x00\n        /* \"Campaign.sol\":1766:1776  newRequest */\n      dup2\n        /* \"Campaign.sol\":1766:1785  newRequest.complete */\n      0x05\n      add\n      0x14\n        /* \"Campaign.sol\":1766:1792  newRequest.complete= false */\n      0x0100\n      exp\n      dup2\n      sload\n      dup2\n      0xff\n      mul\n      not\n      and\n      swap1\n      dup4\n      iszero\n      iszero\n      mul\n      or\n      swap1\n      sstore\n      pop\n        /* \"Campaign.sol\":1828:1829  0 */\n      0x00\n        /* \"Campaign.sol\":1802:1812  newRequest */\n      dup2\n        /* \"Campaign.sol\":1802:1826  newRequest.approvalCount */\n      0x06\n      add\n        /* \"Campaign.sol\":1802:1829  newRequest.approvalCount= 0 */\n      dup2\n      swap1\n      sstore\n      pop\n        /* \"Campaign.sol\":1444:1836  {... */\n      pop\n        /* \"Campaign.sol\":1300:1836  function createRequest(string memory orderId, string memory inspectedby,string memory approvedby,string memory selectedFile ) public restricted {... */\n      pop\n      pop\n      pop\n      pop\n      jump\t// out\n        /* \"#utility.yul\":7:82   */\n    tag_124:\n        /* \"#utility.yul\":40:46   */\n      0x00\n        /* \"#utility.yul\":73:75   */\n      0x40\n        /* \"#utility.yul\":67:76   */\n      mload\n        /* \"#utility.yul\":57:76   */\n      swap1\n      pop\n        /* \"#utility.yul\":7:82   */\n      swap1\n      jump\t// out\n        /* \"#utility.yul\":88:205   */\n    tag_125:\n        /* \"#utility.yul\":197:198   */\n      0x00\n        /* \"#utility.yul\":194:195   */\n      dup1\n        /* \"#utility.yul\":187:199   */\n      revert\n        /* \"#utility.yul\":211:328   */\n    tag_126:\n        /* \"#utility.yul\":320:321   */\n      0x00\n        /* \"#utility.yul\":317:318   */\n      dup1\n        /* \"#utility.yul\":310:322   */\n      revert\n        /* \"#utility.yul\":334:411   */\n    tag_127:\n        /* \"#utility.yul\":371:378   */\n      0x00\n        /* \"#utility.yul\":400:405   */\n      dup2\n        /* \"#utility.yul\":389:405   */\n      swap1\n      pop\n        /* \"#utility.yul\":334:411   */\n      swap2\n      swap1\n      pop\n      jump\t// out\n        /* \"#utility.yul\":417:539   */\n    tag_128:\n        /* \"#utility.yul\":490:514   */\n      tag_176\n        /* \"#utility.yul\":508:513   */\n      dup2\n        /* \"#utility.yul\":490:514   */\n      tag_127\n      jump\t// in\n    tag_176:\n        /* \"#utility.yul\":483:488   */\n      dup2\n        /* \"#utility.yul\":480:515   */\n      eq\n        /* \"#utility.yul\":470:533   */\n      tag_177\n      jumpi\n        /* \"#utility.yul\":529:530   */\n      0x00\n        /* \"#utility.yul\":526:527   */\n      dup1\n        /* \"#utility.yul\":519:531   */\n      revert\n        /* \"#utility.yul\":470:533   */\n    tag_177:\n        /* \"#utility.yul\":417:539   */\n      pop\n      jump\t// out\n        /* \"#utility.yul\":545:684   */\n    tag_129:\n        /* \"#utility.yul\":591:596   */\n      0x00\n        /* \"#utility.yul\":629:635   */\n      dup2\n        /* \"#utility.yul\":616:636   */\n      calldataload\n        /* \"#utility.yul\":607:636   */\n      swap1\n      pop\n        /* \"#utility.yul\":645:678   */\n      tag_179\n        /* \"#utility.yul\":672:677   */\n      dup2\n        /* \"#utility.yul\":645:678   */\n      tag_128\n      jump\t// in\n    tag_179:\n        /* \"#utility.yul\":545:684   */\n      swap3\n      swap2\n      pop\n      pop\n      jump\t// out\n        /* \"#utility.yul\":690:1019   */\n    tag_17:\n        /* \"#utility.yul\":749:755   */\n      0x00\n        /* \"#utility.yul\":798:800   */\n      0x20\n        /* \"#utility.yul\":786:795   */\n      dup3\n        /* \"#utility.yul\":777:784   */\n      dup5\n        /* \"#utility.yul\":773:796   */\n      sub\n        /* \"#utility.yul\":769:801   */\n      slt\n        /* \"#utility.yul\":766:885   */\n      iszero\n      tag_181\n      jumpi\n        /* \"#utility.yul\":804:883   */\n      tag_182\n      tag_125\n      jump\t// in\n    tag_182:\n        /* \"#utility.yul\":766:885   */\n    tag_181:\n        /* \"#utility.yul\":924:925   */\n      0x00\n        /* \"#utility.yul\":949:1002   */\n      tag_183\n        /* \"#utility.yul\":994:1001   */\n      dup5\n        /* \"#utility.yul\":985:991   */\n      dup3\n        /* \"#utility.yul\":974:983   */\n      dup6\n        /* \"#utility.yul\":970:992   */\n      add\n        /* \"#utility.yul\":949:1002   */\n      tag_129\n      jump\t// in\n    tag_183:\n        /* \"#utility.yul\":939:1002   */\n      swap2\n      pop\n        /* \"#utility.yul\":895:1012   */\n      pop\n        /* \"#utility.yul\":690:1019   */\n      swap3\n      swap2\n      pop\n      pop\n      jump\t// out\n        /* \"#utility.yul\":1025:1151   */\n    tag_130:\n        /* \"#utility.yul\":1062:1069   */\n      0x00\n        /* \"#utility.yul\":1102:1144   */\n      0xffffffffffffffffffffffffffffffffffffffff\n        /* \"#utility.yul\":1095:1100   */\n      dup3\n        /* \"#utility.yul\":1091:1145   */\n      and\n        /* \"#utility.yul\":1080:1145   */\n      swap1\n      pop\n        /* \"#utility.yul\":1025:1151   */\n      swap2\n      swap1\n      pop\n      jump\t// out\n        /* \"#utility.yul\":1157:1253   */\n    tag_131:\n        /* \"#utility.yul\":1194:1201   */\n      0x00\n        /* \"#utility.yul\":1223:1247   */\n      tag_186\n        /* \"#utility.yul\":1241:1246   */\n      dup3\n        /* \"#utility.yul\":1223:1247   */\n      tag_130\n      jump\t// in\n    tag_186:\n        /* \"#utility.yul\":1212:1247   */\n      swap1\n      pop\n        /* \"#utility.yul\":1157:1253   */\n      swap2\n      swap1\n      pop\n      jump\t// out\n        /* \"#utility.yul\":1259:1381   */\n    tag_132:\n        /* \"#utility.yul\":1332:1356   */\n      tag_188\n        /* \"#utility.yul\":1350:1355   */\n      dup2\n        /* \"#utility.yul\":1332:1356   */\n      tag_131\n      jump\t// in\n    tag_188:\n        /* \"#utility.yul\":1325:1330   */\n      dup2\n        /* \"#utility.yul\":1322:1357   */\n      eq\n        /* \"#utility.yul\":1312:1375   */\n      tag_189\n      jumpi\n        /* \"#utility.yul\":1371:1372   */\n      0x00\n        /* \"#utility.yul\":1368:1369   */\n      dup1\n        /* \"#utility.yul\":1361:1373   */\n      revert\n        /* \"#utility.yul\":1312:1375   */\n    tag_189:\n        /* \"#utility.yul\":1259:1381   */\n      pop\n      jump\t// out\n        /* \"#utility.yul\":1387:1526   */\n    tag_133:\n        /* \"#utility.yul\":1433:1438   */\n      0x00\n        /* \"#utility.yul\":1471:1477   */\n      dup2\n        /* \"#utility.yul\":1458:1478   */\n      calldataload\n        /* \"#utility.yul\":1449:1478   */\n      swap1\n      pop\n        /* \"#utility.yul\":1487:1520   */\n      tag_191\n        /* \"#utility.yul\":1514:1519   */\n      dup2\n        /* \"#utility.yul\":1487:1520   */\n      tag_132\n      jump\t// in\n    tag_191:\n        /* \"#utility.yul\":1387:1526   */\n      swap3\n      swap2\n      pop\n      pop\n      jump\t// out\n        /* \"#utility.yul\":1532:1861   */\n    tag_22:\n        /* \"#utility.yul\":1591:1597   */\n      0x00\n        /* \"#utility.yul\":1640:1642   */\n      0x20\n        /* \"#utility.yul\":1628:1637   */\n      dup3\n        /* \"#utility.yul\":1619:1626   */\n      dup5\n        /* \"#utility.yul\":1615:1638   */\n      sub\n        /* \"#utility.yul\":1611:1643   */\n      slt\n        /* \"#utility.yul\":1608:1727   */\n      iszero\n      tag_193\n      jumpi\n        /* \"#utility.yul\":1646:1725   */\n      tag_194\n      tag_125\n      jump\t// in\n    tag_194:\n        /* \"#utility.yul\":1608:1727   */\n    tag_193:\n        /* \"#utility.yul\":1766:1767   */\n      0x00\n        /* \"#utility.yul\":1791:1844   */\n      tag_195\n        /* \"#utility.yul\":1836:1843   */\n      dup5\n        /* \"#utility.yul\":1827:1833   */\n      dup3\n        /* \"#utility.yul\":1816:1825   */\n      dup6\n        /* \"#utility.yul\":1812:1834   */\n      add\n        /* \"#utility.yul\":1791:1844   */\n      tag_133\n      jump\t// in\n    tag_195:\n        /* \"#utility.yul\":1781:1844   */\n      swap2\n      pop\n        /* \"#utility.yul\":1737:1854   */\n      pop\n        /* \"#utility.yul\":1532:1861   */\n      swap3\n      swap2\n      pop\n      pop\n      jump\t// out\n        /* \"#utility.yul\":1867:1957   */\n    tag_134:\n        /* \"#utility.yul\":1901:1908   */\n      0x00\n        /* \"#utility.yul\":1944:1949   */\n      dup2\n        /* \"#utility.yul\":1937:1950   */\n      iszero\n        /* \"#utility.yul\":1930:1951   */\n      iszero\n        /* \"#utility.yul\":1919:1951   */\n      swap1\n      pop\n        /* \"#utility.yul\":1867:1957   */\n      swap2\n      swap1\n      pop\n      jump\t// out\n        /* \"#utility.yul\":1963:2072   */\n    tag_135:\n        /* \"#utility.yul\":2044:2065   */\n      tag_198\n        /* \"#utility.yul\":2059:2064   */\n      dup2\n        /* \"#utility.yul\":2044:2065   */\n      tag_134\n      jump\t// in\n    tag_198:\n        /* \"#utility.yul\":2039:2042   */\n      dup3\n        /* \"#utility.yul\":2032:2066   */\n      mstore\n        /* \"#utility.yul\":1963:2072   */\n      pop\n      pop\n      jump\t// out\n        /* \"#utility.yul\":2078:2288   */\n    tag_25:\n        /* \"#utility.yul\":2165:2169   */\n      0x00\n        /* \"#utility.yul\":2203:2205   */\n      0x20\n        /* \"#utility.yul\":2192:2201   */\n      dup3\n        /* \"#utility.yul\":2188:2206   */\n      add\n        /* \"#utility.yul\":2180:2206   */\n      swap1\n      pop\n        /* \"#utility.yul\":2216:2281   */\n      tag_200\n        /* \"#utility.yul\":2278:2279   */\n      0x00\n        /* \"#utility.yul\":2267:2276   */\n      dup4\n        /* \"#utility.yul\":2263:2280   */\n      add\n        /* \"#utility.yul\":2254:2260   */\n      dup5\n        /* \"#utility.yul\":2216:2281   */\n      tag_135\n      jump\t// in\n    tag_200:\n        /* \"#utility.yul\":2078:2288   */\n      swap3\n      swap2\n      pop\n      pop\n      jump\t// out\n        /* \"#utility.yul\":2294:2412   */\n    tag_136:\n        /* \"#utility.yul\":2381:2405   */\n      tag_202\n        /* \"#utility.yul\":2399:2404   */\n      dup2\n        /* \"#utility.yul\":2381:2405   */\n      tag_127\n      jump\t// in\n    tag_202:\n        /* \"#utility.yul\":2376:2379   */\n      dup3\n        /* \"#utility.yul\":2369:2406   */\n      mstore\n        /* \"#utility.yul\":2294:2412   */\n      pop\n      pop\n      jump\t// out\n        /* \"#utility.yul\":2418:2640   */\n    tag_30:\n        /* \"#utility.yul\":2511:2515   */\n      0x00\n        /* \"#utility.yul\":2549:2551   */\n      0x20\n        /* \"#utility.yul\":2538:2547   */\n      dup3\n        /* \"#utility.yul\":2534:2552   */\n      add\n        /* \"#utility.yul\":2526:2552   */\n      swap1\n      pop\n        /* \"#utility.yul\":2562:2633   */\n      tag_204\n        /* \"#utility.yul\":2630:2631   */\n      0x00\n        /* \"#utility.yul\":2619:2628   */\n      dup4\n        /* \"#utility.yul\":2615:2632   */\n      add\n        /* \"#utility.yul\":2606:2612   */\n      dup5\n        /* \"#utility.yul\":2562:2633   */\n      tag_136\n      jump\t// in\n    tag_204:\n        /* \"#utility.yul\":2418:2640   */\n      swap3\n      swap2\n      pop\n      pop\n      jump\t// out\n        /* \"#utility.yul\":2646:2764   */\n    tag_137:\n        /* \"#utility.yul\":2733:2757   */\n      tag_206\n        /* \"#utility.yul\":2751:2756   */\n      dup2\n        /* \"#utility.yul\":2733:2757   */\n      tag_131\n      jump\t// in\n    tag_206:\n        /* \"#utility.yul\":2728:2731   */\n      dup3\n        /* \"#utility.yul\":2721:2758   */\n      mstore\n        /* \"#utility.yul\":2646:2764   */\n      pop\n      pop\n      jump\t// out\n        /* \"#utility.yul\":2770:3434   */\n    tag_35:\n        /* \"#utility.yul\":2975:2979   */\n      0x00\n        /* \"#utility.yul\":3013:3016   */\n      0xa0\n        /* \"#utility.yul\":3002:3011   */\n      dup3\n        /* \"#utility.yul\":2998:3017   */\n      add\n        /* \"#utility.yul\":2990:3017   */\n      swap1\n      pop\n        /* \"#utility.yul\":3027:3098   */\n      tag_208\n        /* \"#utility.yul\":3095:3096   */\n      0x00\n        /* \"#utility.yul\":3084:3093   */\n      dup4\n        /* \"#utility.yul\":3080:3097   */\n      add\n        /* \"#utility.yul\":3071:3077   */\n      dup9\n        /* \"#utility.yul\":3027:3098   */\n      tag_136\n      jump\t// in\n    tag_208:\n        /* \"#utility.yul\":3108:3180   */\n      tag_209\n        /* \"#utility.yul\":3176:3178   */\n      0x20\n        /* \"#utility.yul\":3165:3174   */\n      dup4\n        /* \"#utility.yul\":3161:3179   */\n      add\n        /* \"#utility.yul\":3152:3158   */\n      dup8\n        /* \"#utility.yul\":3108:3180   */\n      tag_136\n      jump\t// in\n    tag_209:\n        /* \"#utility.yul\":3190:3262   */\n      tag_210\n        /* \"#utility.yul\":3258:3260   */\n      0x40\n        /* \"#utility.yul\":3247:3256   */\n      dup4\n        /* \"#utility.yul\":3243:3261   */\n      add\n        /* \"#utility.yul\":3234:3240   */\n      dup7\n        /* \"#utility.yul\":3190:3262   */\n      tag_136\n      jump\t// in\n    tag_210:\n        /* \"#utility.yul\":3272:3344   */\n      tag_211\n        /* \"#utility.yul\":3340:3342   */\n      0x60\n        /* \"#utility.yul\":3329:3338   */\n      dup4\n        /* \"#utility.yul\":3325:3343   */\n      add\n        /* \"#utility.yul\":3316:3322   */\n      dup6\n        /* \"#utility.yul\":3272:3344   */\n      tag_136\n      jump\t// in\n    tag_211:\n        /* \"#utility.yul\":3354:3427   */\n      tag_212\n        /* \"#utility.yul\":3422:3425   */\n      0x80\n        /* \"#utility.yul\":3411:3420   */\n      dup4\n        /* \"#utility.yul\":3407:3426   */\n      add\n        /* \"#utility.yul\":3398:3404   */\n      dup5\n        /* \"#utility.yul\":3354:3427   */\n      tag_137\n      jump\t// in\n    tag_212:\n        /* \"#utility.yul\":2770:3434   */\n      swap7\n      swap6\n      pop\n      pop\n      pop\n      pop\n      pop\n      pop\n      jump\t// out\n        /* \"#utility.yul\":3440:3662   */\n    tag_40:\n        /* \"#utility.yul\":3533:3537   */\n      0x00\n        /* \"#utility.yul\":3571:3573   */\n      0x20\n        /* \"#utility.yul\":3560:3569   */\n      dup3\n        /* \"#utility.yul\":3556:3574   */\n      add\n        /* \"#utility.yul\":3548:3574   */\n      swap1\n      pop\n        /* \"#utility.yul\":3584:3655   */\n      tag_214\n        /* \"#utility.yul\":3652:3653   */\n      0x00\n        /* \"#utility.yul\":3641:3650   */\n      dup4\n        /* \"#utility.yul\":3637:3654   */\n      add\n        /* \"#utility.yul\":3628:3634   */\n      dup5\n        /* \"#utility.yul\":3584:3655   */\n      tag_137\n      jump\t// in\n    tag_214:\n        /* \"#utility.yul\":3440:3662   */\n      swap3\n      swap2\n      pop\n      pop\n      jump\t// out\n        /* \"#utility.yul\":3668:3767   */\n    tag_138:\n        /* \"#utility.yul\":3720:3726   */\n      0x00\n        /* \"#utility.yul\":3754:3759   */\n      dup2\n        /* \"#utility.yul\":3748:3760   */\n      mload\n        /* \"#utility.yul\":3738:3760   */\n      swap1\n      pop\n        /* \"#utility.yul\":3668:3767   */\n      swap2\n      swap1\n      pop\n      jump\t// out\n        /* \"#utility.yul\":3773:3942   */\n    tag_139:\n        /* \"#utility.yul\":3857:3868   */\n      0x00\n        /* \"#utility.yul\":3891:3897   */\n      dup3\n        /* \"#utility.yul\":3886:3889   */\n      dup3\n        /* \"#utility.yul\":3879:3898   */\n      mstore\n        /* \"#utility.yul\":3931:3935   */\n      0x20\n        /* \"#utility.yul\":3926:3929   */\n      dup3\n        /* \"#utility.yul\":3922:3936   */\n      add\n        /* \"#utility.yul\":3907:3936   */\n      swap1\n      pop\n        /* \"#utility.yul\":3773:3942   */\n      swap3\n      swap2\n      pop\n      pop\n      jump\t// out\n        /* \"#utility.yul\":3948:4194   */\n    tag_140:\n        /* \"#utility.yul\":4029:4030   */\n      0x00\n        /* \"#utility.yul\":4039:4152   */\n    tag_218:\n        /* \"#utility.yul\":4053:4059   */\n      dup4\n        /* \"#utility.yul\":4050:4051   */\n      dup2\n        /* \"#utility.yul\":4047:4060   */\n      lt\n        /* \"#utility.yul\":4039:4152   */\n      iszero\n      tag_220\n      jumpi\n        /* \"#utility.yul\":4138:4139   */\n      dup1\n        /* \"#utility.yul\":4133:4136   */\n      dup3\n        /* \"#utility.yul\":4129:4140   */\n      add\n        /* \"#utility.yul\":4123:4141   */\n      mload\n        /* \"#utility.yul\":4119:4120   */\n      dup2\n        /* \"#utility.yul\":4114:4117   */\n      dup5\n        /* \"#utility.yul\":4110:4121   */\n      add\n        /* \"#utility.yul\":4103:4142   */\n      mstore\n        /* \"#utility.yul\":4075:4077   */\n      0x20\n        /* \"#utility.yul\":4072:4073   */\n      dup2\n        /* \"#utility.yul\":4068:4078   */\n      add\n        /* \"#utility.yul\":4063:4078   */\n      swap1\n      pop\n        /* \"#utility.yul\":4039:4152   */\n      jump(tag_218)\n    tag_220:\n        /* \"#utility.yul\":4186:4187   */\n      0x00\n        /* \"#utility.yul\":4177:4183   */\n      dup5\n        /* \"#utility.yul\":4172:4175   */\n      dup5\n        /* \"#utility.yul\":4168:4184   */\n      add\n        /* \"#utility.yul\":4161:4188   */\n      mstore\n        /* \"#utility.yul\":4010:4194   */\n      pop\n        /* \"#utility.yul\":3948:4194   */\n      pop\n      pop\n      pop\n      jump\t// out\n        /* \"#utility.yul\":4200:4302   */\n    tag_141:\n        /* \"#utility.yul\":4241:4247   */\n      0x00\n        /* \"#utility.yul\":4292:4294   */\n      0x1f\n        /* \"#utility.yul\":4288:4295   */\n      not\n        /* \"#utility.yul\":4283:4285   */\n      0x1f\n        /* \"#utility.yul\":4276:4281   */\n      dup4\n        /* \"#utility.yul\":4272:4286   */\n      add\n        /* \"#utility.yul\":4268:4296   */\n      and\n        /* \"#utility.yul\":4258:4296   */\n      swap1\n      pop\n        /* \"#utility.yul\":4200:4302   */\n      swap2\n      swap1\n      pop\n      jump\t// out\n        /* \"#utility.yul\":4308:4685   */\n    tag_142:\n        /* \"#utility.yul\":4396:4399   */\n      0x00\n        /* \"#utility.yul\":4424:4463   */\n      tag_223\n        /* \"#utility.yul\":4457:4462   */\n      dup3\n        /* \"#utility.yul\":4424:4463   */\n      tag_138\n      jump\t// in\n    tag_223:\n        /* \"#utility.yul\":4479:4550   */\n      tag_224\n        /* \"#utility.yul\":4543:4549   */\n      dup2\n        /* \"#utility.yul\":4538:4541   */\n      dup6\n        /* \"#utility.yul\":4479:4550   */\n      tag_139\n      jump\t// in\n    tag_224:\n        /* \"#utility.yul\":4472:4550   */\n      swap4\n      pop\n        /* \"#utility.yul\":4559:4624   */\n      tag_225\n        /* \"#utility.yul\":4617:4623   */\n      dup2\n        /* \"#utility.yul\":4612:4615   */\n      dup6\n        /* \"#utility.yul\":4605:4609   */\n      0x20\n        /* \"#utility.yul\":4598:4603   */\n      dup7\n        /* \"#utility.yul\":4594:4610   */\n      add\n        /* \"#utility.yul\":4559:4624   */\n      tag_140\n      jump\t// in\n    tag_225:\n        /* \"#utility.yul\":4649:4678   */\n      tag_226\n        /* \"#utility.yul\":4671:4677   */\n      dup2\n        /* \"#utility.yul\":4649:4678   */\n      tag_141\n      jump\t// in\n    tag_226:\n        /* \"#utility.yul\":4644:4647   */\n      dup5\n        /* \"#utility.yul\":4640:4679   */\n      add\n        /* \"#utility.yul\":4633:4679   */\n      swap2\n      pop\n        /* \"#utility.yul\":4400:4685   */\n      pop\n        /* \"#utility.yul\":4308:4685   */\n      swap3\n      swap2\n      pop\n      pop\n      jump\t// out\n        /* \"#utility.yul\":4691:6040   */\n    tag_46:\n        /* \"#utility.yul\":5054:5058   */\n      0x00\n        /* \"#utility.yul\":5092:5095   */\n      0x0100\n        /* \"#utility.yul\":5081:5090   */\n      dup3\n        /* \"#utility.yul\":5077:5096   */\n      add\n        /* \"#utility.yul\":5069:5096   */\n      swap1\n      pop\n        /* \"#utility.yul\":5142:5151   */\n      dup2\n        /* \"#utility.yul\":5136:5140   */\n      dup2\n        /* \"#utility.yul\":5132:5152   */\n      sub\n        /* \"#utility.yul\":5128:5129   */\n      0x00\n        /* \"#utility.yul\":5117:5126   */\n      dup4\n        /* \"#utility.yul\":5113:5130   */\n      add\n        /* \"#utility.yul\":5106:5153   */\n      mstore\n        /* \"#utility.yul\":5170:5248   */\n      tag_228\n        /* \"#utility.yul\":5243:5247   */\n      dup2\n        /* \"#utility.yul\":5234:5240   */\n      dup12\n        /* \"#utility.yul\":5170:5248   */\n      tag_142\n      jump\t// in\n    tag_228:\n        /* \"#utility.yul\":5162:5248   */\n      swap1\n      pop\n        /* \"#utility.yul\":5295:5304   */\n      dup2\n        /* \"#utility.yul\":5289:5293   */\n      dup2\n        /* \"#utility.yul\":5285:5305   */\n      sub\n        /* \"#utility.yul\":5280:5282   */\n      0x20\n        /* \"#utility.yul\":5269:5278   */\n      dup4\n        /* \"#utility.yul\":5265:5283   */\n      add\n        /* \"#utility.yul\":5258:5306   */\n      mstore\n        /* \"#utility.yul\":5323:5401   */\n      tag_229\n        /* \"#utility.yul\":5396:5400   */\n      dup2\n        /* \"#utility.yul\":5387:5393   */\n      dup11\n        /* \"#utility.yul\":5323:5401   */\n      tag_142\n      jump\t// in\n    tag_229:\n        /* \"#utility.yul\":5315:5401   */\n      swap1\n      pop\n        /* \"#utility.yul\":5448:5457   */\n      dup2\n        /* \"#utility.yul\":5442:5446   */\n      dup2\n        /* \"#utility.yul\":5438:5458   */\n      sub\n        /* \"#utility.yul\":5433:5435   */\n      0x40\n        /* \"#utility.yul\":5422:5431   */\n      dup4\n        /* \"#utility.yul\":5418:5436   */\n      add\n        /* \"#utility.yul\":5411:5459   */\n      mstore\n        /* \"#utility.yul\":5476:5554   */\n      tag_230\n        /* \"#utility.yul\":5549:5553   */\n      dup2\n        /* \"#utility.yul\":5540:5546   */\n      dup10\n        /* \"#utility.yul\":5476:5554   */\n      tag_142\n      jump\t// in\n    tag_230:\n        /* \"#utility.yul\":5468:5554   */\n      swap1\n      pop\n        /* \"#utility.yul\":5564:5636   */\n      tag_231\n        /* \"#utility.yul\":5632:5634   */\n      0x60\n        /* \"#utility.yul\":5621:5630   */\n      dup4\n        /* \"#utility.yul\":5617:5635   */\n      add\n        /* \"#utility.yul\":5608:5614   */\n      dup9\n        /* \"#utility.yul\":5564:5636   */\n      tag_136\n      jump\t// in\n    tag_231:\n        /* \"#utility.yul\":5684:5693   */\n      dup2\n        /* \"#utility.yul\":5678:5682   */\n      dup2\n        /* \"#utility.yul\":5674:5694   */\n      sub\n        /* \"#utility.yul\":5668:5671   */\n      0x80\n        /* \"#utility.yul\":5657:5666   */\n      dup4\n        /* \"#utility.yul\":5653:5672   */\n      add\n        /* \"#utility.yul\":5646:5695   */\n      mstore\n        /* \"#utility.yul\":5712:5790   */\n      tag_232\n        /* \"#utility.yul\":5785:5789   */\n      dup2\n        /* \"#utility.yul\":5776:5782   */\n      dup8\n        /* \"#utility.yul\":5712:5790   */\n      tag_142\n      jump\t// in\n    tag_232:\n        /* \"#utility.yul\":5704:5790   */\n      swap1\n      pop\n        /* \"#utility.yul\":5800:5873   */\n      tag_233\n        /* \"#utility.yul\":5868:5871   */\n      0xa0\n        /* \"#utility.yul\":5857:5866   */\n      dup4\n        /* \"#utility.yul\":5853:5872   */\n      add\n        /* \"#utility.yul\":5844:5850   */\n      dup7\n        /* \"#utility.yul\":5800:5873   */\n      tag_137\n      jump\t// in\n    tag_233:\n        /* \"#utility.yul\":5883:5950   */\n      tag_234\n        /* \"#utility.yul\":5945:5948   */\n      0xc0\n        /* \"#utility.yul\":5934:5943   */\n      dup4\n        /* \"#utility.yul\":5930:5949   */\n      add\n        /* \"#utility.yul\":5921:5927   */\n      dup6\n        /* \"#utility.yul\":5883:5950   */\n      tag_135\n      jump\t// in\n    tag_234:\n        /* \"#utility.yul\":5960:6033   */\n      tag_235\n        /* \"#utility.yul\":6028:6031   */\n      0xe0\n        /* \"#utility.yul\":6017:6026   */\n      dup4\n        /* \"#utility.yul\":6013:6032   */\n      add\n        /* \"#utility.yul\":6004:6010   */\n      dup5\n        /* \"#utility.yul\":5960:6033   */\n      tag_136\n      jump\t// in\n    tag_235:\n        /* \"#utility.yul\":4691:6040   */\n      swap10\n      swap9\n      pop\n      pop\n      pop\n      pop\n      pop\n      pop\n      pop\n      pop\n      pop\n      jump\t// out\n        /* \"#utility.yul\":6046:6163   */\n    tag_143:\n        /* \"#utility.yul\":6155:6156   */\n      0x00\n        /* \"#utility.yul\":6152:6153   */\n      dup1\n        /* \"#utility.yul\":6145:6157   */\n      revert\n        /* \"#utility.yul\":6169:6286   */\n    tag_144:\n        /* \"#utility.yul\":6278:6279   */\n      0x00\n        /* \"#utility.yul\":6275:6276   */\n      dup1\n        /* \"#utility.yul\":6268:6280   */\n      revert\n        /* \"#utility.yul\":6292:6472   */\n    tag_145:\n        /* \"#utility.yul\":6340:6417   */\n      0x4e487b7100000000000000000000000000000000000000000000000000000000\n        /* \"#utility.yul\":6337:6338   */\n      0x00\n        /* \"#utility.yul\":6330:6418   */\n      mstore\n        /* \"#utility.yul\":6437:6441   */\n      0x41\n        /* \"#utility.yul\":6434:6435   */\n      0x04\n        /* \"#utility.yul\":6427:6442   */\n      mstore\n        /* \"#utility.yul\":6461:6465   */\n      0x24\n        /* \"#utility.yul\":6458:6459   */\n      0x00\n        /* \"#utility.yul\":6451:6466   */\n      revert\n        /* \"#utility.yul\":6478:6759   */\n    tag_146:\n        /* \"#utility.yul\":6561:6588   */\n      tag_240\n        /* \"#utility.yul\":6583:6587   */\n      dup3\n        /* \"#utility.yul\":6561:6588   */\n      tag_141\n      jump\t// in\n    tag_240:\n        /* \"#utility.yul\":6553:6559   */\n      dup2\n        /* \"#utility.yul\":6549:6589   */\n      add\n        /* \"#utility.yul\":6691:6697   */\n      dup2\n        /* \"#utility.yul\":6679:6689   */\n      dup2\n        /* \"#utility.yul\":6676:6698   */\n      lt\n        /* \"#utility.yul\":6655:6673   */\n      0xffffffffffffffff\n        /* \"#utility.yul\":6643:6653   */\n      dup3\n        /* \"#utility.yul\":6640:6674   */\n      gt\n        /* \"#utility.yul\":6637:6699   */\n      or\n        /* \"#utility.yul\":6634:6722   */\n      iszero\n      tag_241\n      jumpi\n        /* \"#utility.yul\":6702:6720   */\n      tag_242\n      tag_145\n      jump\t// in\n    tag_242:\n        /* \"#utility.yul\":6634:6722   */\n    tag_241:\n        /* \"#utility.yul\":6742:6752   */\n      dup1\n        /* \"#utility.yul\":6738:6740   */\n      0x40\n        /* \"#utility.yul\":6731:6753   */\n      mstore\n        /* \"#utility.yul\":6521:6759   */\n      pop\n        /* \"#utility.yul\":6478:6759   */\n      pop\n      pop\n      jump\t// out\n        /* \"#utility.yul\":6765:6894   */\n    tag_147:\n        /* \"#utility.yul\":6799:6805   */\n      0x00\n        /* \"#utility.yul\":6826:6846   */\n      tag_244\n      tag_124\n      jump\t// in\n    tag_244:\n        /* \"#utility.yul\":6816:6846   */\n      swap1\n      pop\n        /* \"#utility.yul\":6855:6888   */\n      tag_245\n        /* \"#utility.yul\":6883:6887   */\n      dup3\n        /* \"#utility.yul\":6875:6881   */\n      dup3\n        /* \"#utility.yul\":6855:6888   */\n      tag_146\n      jump\t// in\n    tag_245:\n        /* \"#utility.yul\":6765:6894   */\n      swap2\n      swap1\n      pop\n      jump\t// out\n        /* \"#utility.yul\":6900:7208   */\n    tag_148:\n        /* \"#utility.yul\":6962:6966   */\n      0x00\n        /* \"#utility.yul\":7052:7070   */\n      0xffffffffffffffff\n        /* \"#utility.yul\":7044:7050   */\n      dup3\n        /* \"#utility.yul\":7041:7071   */\n      gt\n        /* \"#utility.yul\":7038:7094   */\n      iszero\n      tag_247\n      jumpi\n        /* \"#utility.yul\":7074:7092   */\n      tag_248\n      tag_145\n      jump\t// in\n    tag_248:\n        /* \"#utility.yul\":7038:7094   */\n    tag_247:\n        /* \"#utility.yul\":7112:7141   */\n      tag_249\n        /* \"#utility.yul\":7134:7140   */\n      dup3\n        /* \"#utility.yul\":7112:7141   */\n      tag_141\n      jump\t// in\n    tag_249:\n        /* \"#utility.yul\":7104:7141   */\n      swap1\n      pop\n        /* \"#utility.yul\":7196:7200   */\n      0x20\n        /* \"#utility.yul\":7190:7194   */\n      dup2\n        /* \"#utility.yul\":7186:7201   */\n      add\n        /* \"#utility.yul\":7178:7201   */\n      swap1\n      pop\n        /* \"#utility.yul\":6900:7208   */\n      swap2\n      swap1\n      pop\n      jump\t// out\n        /* \"#utility.yul\":7214:7360   */\n    tag_149:\n        /* \"#utility.yul\":7311:7317   */\n      dup3\n        /* \"#utility.yul\":7306:7309   */\n      dup2\n        /* \"#utility.yul\":7301:7304   */\n      dup4\n        /* \"#utility.yul\":7288:7318   */\n      calldatacopy\n        /* \"#utility.yul\":7352:7353   */\n      0x00\n        /* \"#utility.yul\":7343:7349   */\n      dup4\n        /* \"#utility.yul\":7338:7341   */\n      dup4\n        /* \"#utility.yul\":7334:7350   */\n      add\n        /* \"#utility.yul\":7327:7354   */\n      mstore\n        /* \"#utility.yul\":7214:7360   */\n      pop\n      pop\n      pop\n      jump\t// out\n        /* \"#utility.yul\":7366:7791   */\n    tag_150:\n        /* \"#utility.yul\":7444:7449   */\n      0x00\n        /* \"#utility.yul\":7469:7535   */\n      tag_252\n        /* \"#utility.yul\":7485:7534   */\n      tag_253\n        /* \"#utility.yul\":7527:7533   */\n      dup5\n        /* \"#utility.yul\":7485:7534   */\n      tag_148\n      jump\t// in\n    tag_253:\n        /* \"#utility.yul\":7469:7535   */\n      tag_147\n      jump\t// in\n    tag_252:\n        /* \"#utility.yul\":7460:7535   */\n      swap1\n      pop\n        /* \"#utility.yul\":7558:7564   */\n      dup3\n        /* \"#utility.yul\":7551:7556   */\n      dup2\n        /* \"#utility.yul\":7544:7565   */\n      mstore\n        /* \"#utility.yul\":7596:7600   */\n      0x20\n        /* \"#utility.yul\":7589:7594   */\n      dup2\n        /* \"#utility.yul\":7585:7601   */\n      add\n        /* \"#utility.yul\":7634:7637   */\n      dup5\n        /* \"#utility.yul\":7625:7631   */\n      dup5\n        /* \"#utility.yul\":7620:7623   */\n      dup5\n        /* \"#utility.yul\":7616:7632   */\n      add\n        /* \"#utility.yul\":7613:7638   */\n      gt\n        /* \"#utility.yul\":7610:7722   */\n      iszero\n      tag_254\n      jumpi\n        /* \"#utility.yul\":7641:7720   */\n      tag_255\n      tag_144\n      jump\t// in\n    tag_255:\n        /* \"#utility.yul\":7610:7722   */\n    tag_254:\n        /* \"#utility.yul\":7731:7785   */\n      tag_256\n        /* \"#utility.yul\":7778:7784   */\n      dup5\n        /* \"#utility.yul\":7773:7776   */\n      dup3\n        /* \"#utility.yul\":7768:7771   */\n      dup6\n        /* \"#utility.yul\":7731:7785   */\n      tag_149\n      jump\t// in\n    tag_256:\n        /* \"#utility.yul\":7450:7791   */\n      pop\n        /* \"#utility.yul\":7366:7791   */\n      swap4\n      swap3\n      pop\n      pop\n      pop\n      jump\t// out\n        /* \"#utility.yul\":7811:8151   */\n    tag_151:\n        /* \"#utility.yul\":7867:7872   */\n      0x00\n        /* \"#utility.yul\":7916:7919   */\n      dup3\n        /* \"#utility.yul\":7909:7913   */\n      0x1f\n        /* \"#utility.yul\":7901:7907   */\n      dup4\n        /* \"#utility.yul\":7897:7914   */\n      add\n        /* \"#utility.yul\":7893:7920   */\n      slt\n        /* \"#utility.yul\":7883:8005   */\n      tag_258\n      jumpi\n        /* \"#utility.yul\":7924:8003   */\n      tag_259\n      tag_143\n      jump\t// in\n    tag_259:\n        /* \"#utility.yul\":7883:8005   */\n    tag_258:\n        /* \"#utility.yul\":8041:8047   */\n      dup2\n        /* \"#utility.yul\":8028:8048   */\n      calldataload\n        /* \"#utility.yul\":8066:8145   */\n      tag_260\n        /* \"#utility.yul\":8141:8144   */\n      dup5\n        /* \"#utility.yul\":8133:8139   */\n      dup3\n        /* \"#utility.yul\":8126:8130   */\n      0x20\n        /* \"#utility.yul\":8118:8124   */\n      dup7\n        /* \"#utility.yul\":8114:8131   */\n      add\n        /* \"#utility.yul\":8066:8145   */\n      tag_150\n      jump\t// in\n    tag_260:\n        /* \"#utility.yul\":8057:8145   */\n      swap2\n      pop\n        /* \"#utility.yul\":7873:8151   */\n      pop\n        /* \"#utility.yul\":7811:8151   */\n      swap3\n      swap2\n      pop\n      pop\n      jump\t// out\n        /* \"#utility.yul\":8157:9642   */\n    tag_64:\n        /* \"#utility.yul\":8283:8289   */\n      0x00\n        /* \"#utility.yul\":8291:8297   */\n      dup1\n        /* \"#utility.yul\":8299:8305   */\n      0x00\n        /* \"#utility.yul\":8307:8313   */\n      dup1\n        /* \"#utility.yul\":8356:8359   */\n      0x80\n        /* \"#utility.yul\":8344:8353   */\n      dup6\n        /* \"#utility.yul\":8335:8342   */\n      dup8\n        /* \"#utility.yul\":8331:8354   */\n      sub\n        /* \"#utility.yul\":8327:8360   */\n      slt\n        /* \"#utility.yul\":8324:8444   */\n      iszero\n      tag_262\n      jumpi\n        /* \"#utility.yul\":8363:8442   */\n      tag_263\n      tag_125\n      jump\t// in\n    tag_263:\n        /* \"#utility.yul\":8324:8444   */\n    tag_262:\n        /* \"#utility.yul\":8511:8512   */\n      0x00\n        /* \"#utility.yul\":8500:8509   */\n      dup6\n        /* \"#utility.yul\":8496:8513   */\n      add\n        /* \"#utility.yul\":8483:8514   */\n      calldataload\n        /* \"#utility.yul\":8541:8559   */\n      0xffffffffffffffff\n        /* \"#utility.yul\":8533:8539   */\n      dup2\n        /* \"#utility.yul\":8530:8560   */\n      gt\n        /* \"#utility.yul\":8527:8644   */\n      iszero\n      tag_264\n      jumpi\n        /* \"#utility.yul\":8563:8642   */\n      tag_265\n      tag_126\n      jump\t// in\n    tag_265:\n        /* \"#utility.yul\":8527:8644   */\n    tag_264:\n        /* \"#utility.yul\":8668:8731   */\n      tag_266\n        /* \"#utility.yul\":8723:8730   */\n      dup8\n        /* \"#utility.yul\":8714:8720   */\n      dup3\n        /* \"#utility.yul\":8703:8712   */\n      dup9\n        /* \"#utility.yul\":8699:8721   */\n      add\n        /* \"#utility.yul\":8668:8731   */\n      tag_151\n      jump\t// in\n    tag_266:\n        /* \"#utility.yul\":8658:8731   */\n      swap5\n      pop\n        /* \"#utility.yul\":8454:8741   */\n      pop\n        /* \"#utility.yul\":8808:8810   */\n      0x20\n        /* \"#utility.yul\":8797:8806   */\n      dup6\n        /* \"#utility.yul\":8793:8811   */\n      add\n        /* \"#utility.yul\":8780:8812   */\n      calldataload\n        /* \"#utility.yul\":8839:8857   */\n      0xffffffffffffffff\n        /* \"#utility.yul\":8831:8837   */\n      dup2\n        /* \"#utility.yul\":8828:8858   */\n      gt\n        /* \"#utility.yul\":8825:8942   */\n      iszero\n      tag_267\n      jumpi\n        /* \"#utility.yul\":8861:8940   */\n      tag_268\n      tag_126\n      jump\t// in\n    tag_268:\n        /* \"#utility.yul\":8825:8942   */\n    tag_267:\n        /* \"#utility.yul\":8966:9029   */\n      tag_269\n        /* \"#utility.yul\":9021:9028   */\n      dup8\n        /* \"#utility.yul\":9012:9018   */\n      dup3\n        /* \"#utility.yul\":9001:9010   */\n      dup9\n        /* \"#utility.yul\":8997:9019   */\n      add\n        /* \"#utility.yul\":8966:9029   */\n      tag_151\n      jump\t// in\n    tag_269:\n        /* \"#utility.yul\":8956:9029   */\n      swap4\n      pop\n        /* \"#utility.yul\":8751:9039   */\n      pop\n        /* \"#utility.yul\":9106:9108   */\n      0x40\n        /* \"#utility.yul\":9095:9104   */\n      dup6\n        /* \"#utility.yul\":9091:9109   */\n      add\n        /* \"#utility.yul\":9078:9110   */\n      calldataload\n        /* \"#utility.yul\":9137:9155   */\n      0xffffffffffffffff\n        /* \"#utility.yul\":9129:9135   */\n      dup2\n        /* \"#utility.yul\":9126:9156   */\n      gt\n        /* \"#utility.yul\":9123:9240   */\n      iszero\n      tag_270\n      jumpi\n        /* \"#utility.yul\":9159:9238   */\n      tag_271\n      tag_126\n      jump\t// in\n    tag_271:\n        /* \"#utility.yul\":9123:9240   */\n    tag_270:\n        /* \"#utility.yul\":9264:9327   */\n      tag_272\n        /* \"#utility.yul\":9319:9326   */\n      dup8\n        /* \"#utility.yul\":9310:9316   */\n      dup3\n        /* \"#utility.yul\":9299:9308   */\n      dup9\n        /* \"#utility.yul\":9295:9317   */\n      add\n        /* \"#utility.yul\":9264:9327   */\n      tag_151\n      jump\t// in\n    tag_272:\n        /* \"#utility.yul\":9254:9327   */\n      swap3\n      pop\n        /* \"#utility.yul\":9049:9337   */\n      pop\n        /* \"#utility.yul\":9404:9406   */\n      0x60\n        /* \"#utility.yul\":9393:9402   */\n      dup6\n        /* \"#utility.yul\":9389:9407   */\n      add\n        /* \"#utility.yul\":9376:9408   */\n      calldataload\n        /* \"#utility.yul\":9435:9453   */\n      0xffffffffffffffff\n        /* \"#utility.yul\":9427:9433   */\n      dup2\n        /* \"#utility.yul\":9424:9454   */\n      gt\n        /* \"#utility.yul\":9421:9538   */\n      iszero\n      tag_273\n      jumpi\n        /* \"#utility.yul\":9457:9536   */\n      tag_274\n      tag_126\n      jump\t// in\n    tag_274:\n        /* \"#utility.yul\":9421:9538   */\n    tag_273:\n        /* \"#utility.yul\":9562:9625   */\n      tag_275\n        /* \"#utility.yul\":9617:9624   */\n      dup8\n        /* \"#utility.yul\":9608:9614   */\n      dup3\n        /* \"#utility.yul\":9597:9606   */\n      dup9\n        /* \"#utility.yul\":9593:9615   */\n      add\n        /* \"#utility.yul\":9562:9625   */\n      tag_151\n      jump\t// in\n    tag_275:\n        /* \"#utility.yul\":9552:9625   */\n      swap2\n      pop\n        /* \"#utility.yul\":9347:9635   */\n      pop\n        /* \"#utility.yul\":8157:9642   */\n      swap3\n      swap6\n      swap2\n      swap5\n      pop\n      swap3\n      pop\n      jump\t// out\n        /* \"#utility.yul\":9648:9828   */\n    tag_71:\n        /* \"#utility.yul\":9696:9773   */\n      0x4e487b7100000000000000000000000000000000000000000000000000000000\n        /* \"#utility.yul\":9693:9694   */\n      0x00\n        /* \"#utility.yul\":9686:9774   */\n      mstore\n        /* \"#utility.yul\":9793:9797   */\n      0x32\n        /* \"#utility.yul\":9790:9791   */\n      0x04\n        /* \"#utility.yul\":9783:9798   */\n      mstore\n        /* \"#utility.yul\":9817:9821   */\n      0x24\n        /* \"#utility.yul\":9814:9815   */\n      0x00\n        /* \"#utility.yul\":9807:9822   */\n      revert\n        /* \"#utility.yul\":9834:10014   */\n    tag_152:\n        /* \"#utility.yul\":9882:9959   */\n      0x4e487b7100000000000000000000000000000000000000000000000000000000\n        /* \"#utility.yul\":9879:9880   */\n      0x00\n        /* \"#utility.yul\":9872:9960   */\n      mstore\n        /* \"#utility.yul\":9979:9983   */\n      0x12\n        /* \"#utility.yul\":9976:9977   */\n      0x04\n        /* \"#utility.yul\":9969:9984   */\n      mstore\n        /* \"#utility.yul\":10003:10007   */\n      0x24\n        /* \"#utility.yul\":10000:10001   */\n      0x00\n        /* \"#utility.yul\":9993:10008   */\n      revert\n        /* \"#utility.yul\":10020:10200   */\n    tag_153:\n        /* \"#utility.yul\":10068:10145   */\n      0x4e487b7100000000000000000000000000000000000000000000000000000000\n        /* \"#utility.yul\":10065:10066   */\n      0x00\n        /* \"#utility.yul\":10058:10146   */\n      mstore\n        /* \"#utility.yul\":10165:10169   */\n      0x11\n        /* \"#utility.yul\":10162:10163   */\n      0x04\n        /* \"#utility.yul\":10155:10170   */\n      mstore\n        /* \"#utility.yul\":10189:10193   */\n      0x24\n        /* \"#utility.yul\":10186:10187   */\n      0x00\n        /* \"#utility.yul\":10179:10194   */\n      revert\n        /* \"#utility.yul\":10206:10391   */\n    tag_74:\n        /* \"#utility.yul\":10246:10247   */\n      0x00\n        /* \"#utility.yul\":10263:10283   */\n      tag_280\n        /* \"#utility.yul\":10281:10282   */\n      dup3\n        /* \"#utility.yul\":10263:10283   */\n      tag_127\n      jump\t// in\n    tag_280:\n        /* \"#utility.yul\":10258:10283   */\n      swap2\n      pop\n        /* \"#utility.yul\":10297:10317   */\n      tag_281\n        /* \"#utility.yul\":10315:10316   */\n      dup4\n        /* \"#utility.yul\":10297:10317   */\n      tag_127\n      jump\t// in\n    tag_281:\n        /* \"#utility.yul\":10292:10317   */\n      swap3\n      pop\n        /* \"#utility.yul\":10336:10337   */\n      dup3\n        /* \"#utility.yul\":10326:10361   */\n      tag_282\n      jumpi\n        /* \"#utility.yul\":10341:10359   */\n      tag_283\n      tag_152\n      jump\t// in\n    tag_283:\n        /* \"#utility.yul\":10326:10361   */\n    tag_282:\n        /* \"#utility.yul\":10383:10384   */\n      dup3\n        /* \"#utility.yul\":10380:10381   */\n      dup3\n        /* \"#utility.yul\":10376:10385   */\n      div\n        /* \"#utility.yul\":10371:10385   */\n      swap1\n      pop\n        /* \"#utility.yul\":10206:10391   */\n      swap3\n      swap2\n      pop\n      pop\n      jump\t// out\n        /* \"#utility.yul\":10397:10577   */\n    tag_154:\n        /* \"#utility.yul\":10445:10522   */\n      0x4e487b7100000000000000000000000000000000000000000000000000000000\n        /* \"#utility.yul\":10442:10443   */\n      0x00\n        /* \"#utility.yul\":10435:10523   */\n      mstore\n        /* \"#utility.yul\":10542:10546   */\n      0x22\n        /* \"#utility.yul\":10539:10540   */\n      0x04\n        /* \"#utility.yul\":10532:10547   */\n      mstore\n        /* \"#utility.yul\":10566:10570   */\n      0x24\n        /* \"#utility.yul\":10563:10564   */\n      0x00\n        /* \"#utility.yul\":10556:10571   */\n      revert\n        /* \"#utility.yul\":10583:10903   */\n    tag_84:\n        /* \"#utility.yul\":10627:10633   */\n      0x00\n        /* \"#utility.yul\":10664:10665   */\n      0x02\n        /* \"#utility.yul\":10658:10662   */\n      dup3\n        /* \"#utility.yul\":10654:10666   */\n      div\n        /* \"#utility.yul\":10644:10666   */\n      swap1\n      pop\n        /* \"#utility.yul\":10711:10712   */\n      0x01\n        /* \"#utility.yul\":10705:10709   */\n      dup3\n        /* \"#utility.yul\":10701:10713   */\n      and\n        /* \"#utility.yul\":10732:10750   */\n      dup1\n        /* \"#utility.yul\":10722:10803   */\n      tag_286\n      jumpi\n        /* \"#utility.yul\":10788:10792   */\n      0x7f\n        /* \"#utility.yul\":10780:10786   */\n      dup3\n        /* \"#utility.yul\":10776:10793   */\n      and\n        /* \"#utility.yul\":10766:10793   */\n      swap2\n      pop\n        /* \"#utility.yul\":10722:10803   */\n    tag_286:\n        /* \"#utility.yul\":10850:10852   */\n      0x20\n        /* \"#utility.yul\":10842:10848   */\n      dup3\n        /* \"#utility.yul\":10839:10853   */\n      lt\n        /* \"#utility.yul\":10819:10837   */\n      dup2\n        /* \"#utility.yul\":10816:10854   */\n      sub\n        /* \"#utility.yul\":10813:10897   */\n      tag_287\n      jumpi\n        /* \"#utility.yul\":10869:10887   */\n      tag_288\n      tag_154\n      jump\t// in\n    tag_288:\n        /* \"#utility.yul\":10813:10897   */\n    tag_287:\n        /* \"#utility.yul\":10634:10903   */\n      pop\n        /* \"#utility.yul\":10583:10903   */\n      swap2\n      swap1\n      pop\n      jump\t// out\n        /* \"#utility.yul\":10909:11142   */\n    tag_107:\n        /* \"#utility.yul\":10948:10951   */\n      0x00\n        /* \"#utility.yul\":10971:10995   */\n      tag_290\n        /* \"#utility.yul\":10989:10994   */\n      dup3\n        /* \"#utility.yul\":10971:10995   */\n      tag_127\n      jump\t// in\n    tag_290:\n        /* \"#utility.yul\":10962:10995   */\n      swap2\n      pop\n        /* \"#utility.yul\":11017:11083   */\n      0xffffffffffffffffffffffffffffffffffffffffffffffffffffffffffffffff\n        /* \"#utility.yul\":11010:11015   */\n      dup3\n        /* \"#utility.yul\":11007:11084   */\n      sub\n        /* \"#utility.yul\":11004:11107   */\n      tag_291\n      jumpi\n        /* \"#utility.yul\":11087:11105   */\n      tag_292\n      tag_153\n      jump\t// in\n    tag_292:\n        /* \"#utility.yul\":11004:11107   */\n    tag_291:\n        /* \"#utility.yul\":11134:11135   */\n      0x01\n        /* \"#utility.yul\":11127:11132   */\n      dup3\n        /* \"#utility.yul\":11123:11136   */\n      add\n        /* \"#utility.yul\":11116:11136   */\n      swap1\n      pop\n        /* \"#utility.yul\":10909:11142   */\n      swap2\n      swap1\n      pop\n      jump\t// out\n        /* \"#utility.yul\":11148:11289   */\n    tag_155:\n        /* \"#utility.yul\":11197:11201   */\n      0x00\n        /* \"#utility.yul\":11220:11223   */\n      dup2\n        /* \"#utility.yul\":11212:11223   */\n      swap1\n      pop\n        /* \"#utility.yul\":11243:11246   */\n      dup2\n        /* \"#utility.yul\":11240:11241   */\n      0x00\n        /* \"#utility.yul\":11233:11247   */\n      mstore\n        /* \"#utility.yul\":11277:11281   */\n      0x20\n        /* \"#utility.yul\":11274:11275   */\n      0x00\n        /* \"#utility.yul\":11264:11282   */\n      keccak256\n        /* \"#utility.yul\":11256:11282   */\n      swap1\n      pop\n        /* \"#utility.yul\":11148:11289   */\n      swap2\n      swap1\n      pop\n      jump\t// out\n        /* \"#utility.yul\":11295:11388   */\n    tag_156:\n        /* \"#utility.yul\":11332:11338   */\n      0x00\n        /* \"#utility.yul\":11379:11381   */\n      0x20\n        /* \"#utility.yul\":11374:11376   */\n      0x1f\n        /* \"#utility.yul\":11367:11372   */\n      dup4\n        /* \"#utility.yul\":11363:11377   */\n      add\n        /* \"#utility.yul\":11359:11382   */\n      div\n        /* \"#utility.yul\":11349:11382   */\n      swap1\n      pop\n        /* \"#utility.yul\":11295:11388   */\n      swap2\n      swap1\n      pop\n      jump\t// out\n        /* \"#utility.yul\":11394:11501   */\n    tag_157:\n        /* \"#utility.yul\":11438:11446   */\n      0x00\n        /* \"#utility.yul\":11488:11493   */\n      dup3\n        /* \"#utility.yul\":11482:11486   */\n      dup3\n        /* \"#utility.yul\":11478:11494   */\n      shl\n        /* \"#utility.yul\":11457:11494   */\n      swap1\n      pop\n        /* \"#utility.yul\":11394:11501   */\n      swap3\n      swap2\n      pop\n      pop\n      jump\t// out\n        /* \"#utility.yul\":11507:11900   */\n    tag_158:\n        /* \"#utility.yul\":11576:11582   */\n      0x00\n        /* \"#utility.yul\":11626:11627   */\n      0x08\n        /* \"#utility.yul\":11614:11624   */\n      dup4\n        /* \"#utility.yul\":11610:11628   */\n      mul\n        /* \"#utility.yul\":11649:11746   */\n      tag_297\n        /* \"#utility.yul\":11679:11745   */\n      0xffffffffffffffffffffffffffffffffffffffffffffffffffffffffffffffff\n        /* \"#utility.yul\":11668:11677   */\n      dup3\n        /* \"#utility.yul\":11649:11746   */\n      tag_157\n      jump\t// in\n    tag_297:\n        /* \"#utility.yul\":11767:11806   */\n      tag_298\n        /* \"#utility.yul\":11797:11805   */\n      dup7\n        /* \"#utility.yul\":11786:11795   */\n      dup4\n        /* \"#utility.yul\":11767:11806   */\n      tag_157\n      jump\t// in\n    tag_298:\n        /* \"#utility.yul\":11755:11806   */\n      swap6\n      pop\n        /* \"#utility.yul\":11839:11843   */\n      dup1\n        /* \"#utility.yul\":11835:11844   */\n      not\n        /* \"#utility.yul\":11828:11833   */\n      dup5\n        /* \"#utility.yul\":11824:11845   */\n      and\n        /* \"#utility.yul\":11815:11845   */\n      swap4\n      pop\n        /* \"#utility.yul\":11888:11892   */\n      dup1\n        /* \"#utility.yul\":11878:11886   */\n      dup7\n        /* \"#utility.yul\":11874:11893   */\n      and\n        /* \"#utility.yul\":11867:11872   */\n      dup5\n        /* \"#utility.yul\":11864:11894   */\n      or\n        /* \"#utility.yul\":11854:11894   */\n      swap3\n      pop\n        /* \"#utility.yul\":11583:11900   */\n      pop\n      pop\n        /* \"#utility.yul\":11507:11900   */\n      swap4\n      swap3\n      pop\n      pop\n      pop\n      jump\t// out\n        /* \"#utility.yul\":11906:11966   */\n    tag_159:\n        /* \"#utility.yul\":11934:11937   */\n      0x00\n        /* \"#utility.yul\":11955:11960   */\n      dup2\n        /* \"#utility.yul\":11948:11960   */\n      swap1\n      pop\n        /* \"#utility.yul\":11906:11966   */\n      swap2\n      swap1\n      pop\n      jump\t// out\n        /* \"#utility.yul\":11972:12114   */\n    tag_160:\n        /* \"#utility.yul\":12022:12031   */\n      0x00\n        /* \"#utility.yul\":12055:12108   */\n      tag_301\n        /* \"#utility.yul\":12073:12107   */\n      tag_302\n        /* \"#utility.yul\":12082:12106   */\n      tag_303\n        /* \"#utility.yul\":12100:12105   */\n      dup5\n        /* \"#utility.yul\":12082:12106   */\n      tag_127\n      jump\t// in\n    tag_303:\n        /* \"#utility.yul\":12073:12107   */\n      tag_159\n      jump\t// in\n    tag_302:\n        /* \"#utility.yul\":12055:12108   */\n      tag_127\n      jump\t// in\n    tag_301:\n        /* \"#utility.yul\":12042:12108   */\n      swap1\n      pop\n        /* \"#utility.yul\":11972:12114   */\n      swap2\n      swap1\n      pop\n      jump\t// out\n        /* \"#utility.yul\":12120:12195   */\n    tag_161:\n        /* \"#utility.yul\":12163:12166   */\n      0x00\n        /* \"#utility.yul\":12184:12189   */\n      dup2\n        /* \"#utility.yul\":12177:12189   */\n      swap1\n      pop\n        /* \"#utility.yul\":12120:12195   */\n      swap2\n      swap1\n      pop\n      jump\t// out\n        /* \"#utility.yul\":12201:12470   */\n    tag_162:\n        /* \"#utility.yul\":12311:12350   */\n      tag_306\n        /* \"#utility.yul\":12342:12349   */\n      dup4\n        /* \"#utility.yul\":12311:12350   */\n      tag_160\n      jump\t// in\n    tag_306:\n        /* \"#utility.yul\":12372:12463   */\n      tag_307\n        /* \"#utility.yul\":12421:12462   */\n      tag_308\n        /* \"#utility.yul\":12445:12461   */\n      dup3\n        /* \"#utility.yul\":12421:12462   */\n      tag_161\n      jump\t// in\n    tag_308:\n        /* \"#utility.yul\":12413:12419   */\n      dup5\n        /* \"#utility.yul\":12406:12410   */\n      dup5\n        /* \"#utility.yul\":12400:12411   */\n      sload\n        /* \"#utility.yul\":12372:12463   */\n      tag_158\n      jump\t// in\n    tag_307:\n        /* \"#utility.yul\":12366:12370   */\n      dup3\n        /* \"#utility.yul\":12359:12464   */\n      sstore\n        /* \"#utility.yul\":12277:12470   */\n      pop\n        /* \"#utility.yul\":12201:12470   */\n      pop\n      pop\n      pop\n      jump\t// out\n        /* \"#utility.yul\":12476:12549   */\n    tag_163:\n        /* \"#utility.yul\":12521:12524   */\n      0x00\n        /* \"#utility.yul\":12476:12549   */\n      swap1\n      jump\t// out\n        /* \"#utility.yul\":12555:12744   */\n    tag_164:\n        /* \"#utility.yul\":12632:12664   */\n      tag_311\n      tag_163\n      jump\t// in\n    tag_311:\n        /* \"#utility.yul\":12673:12738   */\n      tag_312\n        /* \"#utility.yul\":12731:12737   */\n      dup2\n        /* \"#utility.yul\":12723:12729   */\n      dup5\n        /* \"#utility.yul\":12717:12721   */\n      dup5\n        /* \"#utility.yul\":12673:12738   */\n      tag_162\n      jump\t// in\n    tag_312:\n        /* \"#utility.yul\":12608:12744   */\n      pop\n        /* \"#utility.yul\":12555:12744   */\n      pop\n      pop\n      jump\t// out\n        /* \"#utility.yul\":12750:12936   */\n    tag_165:\n        /* \"#utility.yul\":12810:12930   */\n    tag_314:\n        /* \"#utility.yul\":12827:12830   */\n      dup2\n        /* \"#utility.yul\":12820:12825   */\n      dup2\n        /* \"#utility.yul\":12817:12831   */\n      lt\n        /* \"#utility.yul\":12810:12930   */\n      iszero\n      tag_316\n      jumpi\n        /* \"#utility.yul\":12881:12920   */\n      tag_317\n        /* \"#utility.yul\":12918:12919   */\n      0x00\n        /* \"#utility.yul\":12911:12916   */\n      dup3\n        /* \"#utility.yul\":12881:12920   */\n      tag_164\n      jump\t// in\n    tag_317:\n        /* \"#utility.yul\":12854:12855   */\n      0x01\n        /* \"#utility.yul\":12847:12852   */\n      dup2\n        /* \"#utility.yul\":12843:12856   */\n      add\n        /* \"#utility.yul\":12834:12856   */\n      swap1\n      pop\n        /* \"#utility.yul\":12810:12930   */\n      jump(tag_314)\n    tag_316:\n        /* \"#utility.yul\":12750:12936   */\n      pop\n      pop\n      jump\t// out\n        /* \"#utility.yul\":12942:13485   */\n    tag_166:\n        /* \"#utility.yul\":13043:13045   */\n      0x1f\n        /* \"#utility.yul\":13038:13041   */\n      dup3\n        /* \"#utility.yul\":13035:13046   */\n      gt\n        /* \"#utility.yul\":13032:13478   */\n      iszero\n      tag_319\n      jumpi\n        /* \"#utility.yul\":13077:13115   */\n      tag_320\n        /* \"#utility.yul\":13109:13114   */\n      dup2\n        /* \"#utility.yul\":13077:13115   */\n      tag_155\n      jump\t// in\n    tag_320:\n        /* \"#utility.yul\":13161:13190   */\n      tag_321\n        /* \"#utility.yul\":13179:13189   */\n      dup5\n        /* \"#utility.yul\":13161:13190   */\n      tag_156\n      jump\t// in\n    tag_321:\n        /* \"#utility.yul\":13151:13159   */\n      dup2\n        /* \"#utility.yul\":13147:13191   */\n      add\n        /* \"#utility.yul\":13344:13346   */\n      0x20\n        /* \"#utility.yul\":13332:13342   */\n      dup6\n        /* \"#utility.yul\":13329:13347   */\n      lt\n        /* \"#utility.yul\":13326:13375   */\n      iszero\n      tag_322\n      jumpi\n        /* \"#utility.yul\":13365:13373   */\n      dup2\n        /* \"#utility.yul\":13350:13373   */\n      swap1\n      pop\n        /* \"#utility.yul\":13326:13375   */\n    tag_322:\n        /* \"#utility.yul\":13388:13468   */\n      tag_323\n        /* \"#utility.yul\":13444:13466   */\n      tag_324\n        /* \"#utility.yul\":13462:13465   */\n      dup6\n        /* \"#utility.yul\":13444:13466   */\n      tag_156\n      jump\t// in\n    tag_324:\n        /* \"#utility.yul\":13434:13442   */\n      dup4\n        /* \"#utility.yul\":13430:13467   */\n      add\n        /* \"#utility.yul\":13417:13428   */\n      dup3\n        /* \"#utility.yul\":13388:13468   */\n      tag_165\n      jump\t// in\n    tag_323:\n        /* \"#utility.yul\":13047:13478   */\n      pop\n      pop\n        /* \"#utility.yul\":13032:13478   */\n    tag_319:\n        /* \"#utility.yul\":12942:13485   */\n      pop\n      pop\n      pop\n      jump\t// out\n        /* \"#utility.yul\":13491:13608   */\n    tag_167:\n        /* \"#utility.yul\":13545:13553   */\n      0x00\n        /* \"#utility.yul\":13595:13600   */\n      dup3\n        /* \"#utility.yul\":13589:13593   */\n      dup3\n        /* \"#utility.yul\":13585:13601   */\n      shr\n        /* \"#utility.yul\":13564:13601   */\n      swap1\n      pop\n        /* \"#utility.yul\":13491:13608   */\n      swap3\n      swap2\n      pop\n      pop\n      jump\t// out\n        /* \"#utility.yul\":13614:13783   */\n    tag_168:\n        /* \"#utility.yul\":13658:13664   */\n      0x00\n        /* \"#utility.yul\":13691:13742   */\n      tag_327\n        /* \"#utility.yul\":13739:13740   */\n      0x00\n        /* \"#utility.yul\":13735:13741   */\n      not\n        /* \"#utility.yul\":13727:13732   */\n      dup5\n        /* \"#utility.yul\":13724:13725   */\n      0x08\n        /* \"#utility.yul\":13720:13733   */\n      mul\n        /* \"#utility.yul\":13691:13742   */\n      tag_167\n      jump\t// in\n    tag_327:\n        /* \"#utility.yul\":13687:13743   */\n      not\n        /* \"#utility.yul\":13772:13776   */\n      dup1\n        /* \"#utility.yul\":13766:13770   */\n      dup4\n        /* \"#utility.yul\":13762:13777   */\n      and\n        /* \"#utility.yul\":13752:13777   */\n      swap2\n      pop\n        /* \"#utility.yul\":13665:13783   */\n      pop\n        /* \"#utility.yul\":13614:13783   */\n      swap3\n      swap2\n      pop\n      pop\n      jump\t// out\n        /* \"#utility.yul\":13788:14083   */\n    tag_169:\n        /* \"#utility.yul\":13864:13868   */\n      0x00\n        /* \"#utility.yul\":14010:14039   */\n      tag_329\n        /* \"#utility.yul\":14035:14038   */\n      dup4\n        /* \"#utility.yul\":14029:14033   */\n      dup4\n        /* \"#utility.yul\":14010:14039   */\n      tag_168\n      jump\t// in\n    tag_329:\n        /* \"#utility.yul\":14002:14039   */\n      swap2\n      pop\n        /* \"#utility.yul\":14072:14075   */\n      dup3\n        /* \"#utility.yul\":14069:14070   */\n      0x02\n        /* \"#utility.yul\":14065:14076   */\n      mul\n        /* \"#utility.yul\":14059:14063   */\n      dup3\n        /* \"#utility.yul\":14056:14077   */\n      or\n        /* \"#utility.yul\":14048:14077   */\n      swap1\n      pop\n        /* \"#utility.yul\":13788:14083   */\n      swap3\n      swap2\n      pop\n      pop\n      jump\t// out\n        /* \"#utility.yul\":14088:15483   */\n    tag_120:\n        /* \"#utility.yul\":14205:14242   */\n      tag_331\n        /* \"#utility.yul\":14238:14241   */\n      dup3\n        /* \"#utility.yul\":14205:14242   */\n      tag_138\n      jump\t// in\n    tag_331:\n        /* \"#utility.yul\":14307:14325   */\n      0xffffffffffffffff\n        /* \"#utility.yul\":14299:14305   */\n      dup2\n        /* \"#utility.yul\":14296:14326   */\n      gt\n        /* \"#utility.yul\":14293:14349   */\n      iszero\n      tag_332\n      jumpi\n        /* \"#utility.yul\":14329:14347   */\n      tag_333\n      tag_145\n      jump\t// in\n    tag_333:\n        /* \"#utility.yul\":14293:14349   */\n    tag_332:\n        /* \"#utility.yul\":14373:14411   */\n      tag_334\n        /* \"#utility.yul\":14405:14409   */\n      dup3\n        /* \"#utility.yul\":14399:14410   */\n      sload\n        /* \"#utility.yul\":14373:14411   */\n      tag_84\n      jump\t// in\n    tag_334:\n        /* \"#utility.yul\":14458:14525   */\n      tag_335\n        /* \"#utility.yul\":14518:14524   */\n      dup3\n        /* \"#utility.yul\":14510:14516   */\n      dup3\n        /* \"#utility.yul\":14504:14508   */\n      dup6\n        /* \"#utility.yul\":14458:14525   */\n      tag_166\n      jump\t// in\n    tag_335:\n        /* \"#utility.yul\":14552:14553   */\n      0x00\n        /* \"#utility.yul\":14576:14580   */\n      0x20\n        /* \"#utility.yul\":14563:14580   */\n      swap1\n      pop\n        /* \"#utility.yul\":14608:14610   */\n      0x1f\n        /* \"#utility.yul\":14600:14606   */\n      dup4\n        /* \"#utility.yul\":14597:14611   */\n      gt\n        /* \"#utility.yul\":14625:14626   */\n      0x01\n        /* \"#utility.yul\":14620:15238   */\n      dup2\n      eq\n      tag_337\n      jumpi\n        /* \"#utility.yul\":15282:15283   */\n      0x00\n        /* \"#utility.yul\":15299:15305   */\n      dup5\n        /* \"#utility.yul\":15296:15373   */\n      iszero\n      tag_338\n      jumpi\n        /* \"#utility.yul\":15348:15357   */\n      dup3\n        /* \"#utility.yul\":15343:15346   */\n      dup8\n        /* \"#utility.yul\":15339:15358   */\n      add\n        /* \"#utility.yul\":15333:15359   */\n      mload\n        /* \"#utility.yul\":15324:15359   */\n      swap1\n      pop\n        /* \"#utility.yul\":15296:15373   */\n    tag_338:\n        /* \"#utility.yul\":15399:15466   */\n      tag_339\n        /* \"#utility.yul\":15459:15465   */\n      dup6\n        /* \"#utility.yul\":15452:15457   */\n      dup3\n        /* \"#utility.yul\":15399:15466   */\n      tag_169\n      jump\t// in\n    tag_339:\n        /* \"#utility.yul\":15393:15397   */\n      dup7\n        /* \"#utility.yul\":15386:15467   */\n      sstore\n        /* \"#utility.yul\":15255:15477   */\n      pop\n        /* \"#utility.yul\":14590:15477   */\n      jump(tag_336)\n        /* \"#utility.yul\":14620:15238   */\n    tag_337:\n        /* \"#utility.yul\":14672:14676   */\n      0x1f\n        /* \"#utility.yul\":14668:14677   */\n      not\n        /* \"#utility.yul\":14660:14666   */\n      dup5\n        /* \"#utility.yul\":14656:14678   */\n      and\n        /* \"#utility.yul\":14706:14743   */\n      tag_340\n        /* \"#utility.yul\":14738:14742   */\n      dup7\n        /* \"#utility.yul\":14706:14743   */\n      tag_155\n      jump\t// in\n    tag_340:\n        /* \"#utility.yul\":14765:14766   */\n      0x00\n        /* \"#utility.yul\":14779:14987   */\n    tag_341:\n        /* \"#utility.yul\":14793:14800   */\n      dup3\n        /* \"#utility.yul\":14790:14791   */\n      dup2\n        /* \"#utility.yul\":14787:14801   */\n      lt\n        /* \"#utility.yul\":14779:14987   */\n      iszero\n      tag_343\n      jumpi\n        /* \"#utility.yul\":14872:14881   */\n      dup5\n        /* \"#utility.yul\":14867:14870   */\n      dup10\n        /* \"#utility.yul\":14863:14882   */\n      add\n        /* \"#utility.yul\":14857:14883   */\n      mload\n        /* \"#utility.yul\":14849:14855   */\n      dup3\n        /* \"#utility.yul\":14842:14884   */\n      sstore\n        /* \"#utility.yul\":14923:14924   */\n      0x01\n        /* \"#utility.yul\":14915:14921   */\n      dup3\n        /* \"#utility.yul\":14911:14925   */\n      add\n        /* \"#utility.yul\":14901:14925   */\n      swap2\n      pop\n        /* \"#utility.yul\":14970:14972   */\n      0x20\n        /* \"#utility.yul\":14959:14968   */\n      dup6\n        /* \"#utility.yul\":14955:14973   */\n      add\n        /* \"#utility.yul\":14942:14973   */\n      swap5\n      pop\n        /* \"#utility.yul\":14816:14820   */\n      0x20\n        /* \"#utility.yul\":14813:14814   */\n      dup2\n        /* \"#utility.yul\":14809:14821   */\n      add\n        /* \"#utility.yul\":14804:14821   */\n      swap1\n      pop\n        /* \"#utility.yul\":14779:14987   */\n      jump(tag_341)\n    tag_343:\n        /* \"#utility.yul\":15015:15021   */\n      dup7\n        /* \"#utility.yul\":15006:15013   */\n      dup4\n        /* \"#utility.yul\":15003:15022   */\n      lt\n        /* \"#utility.yul\":15000:15179   */\n      iszero\n      tag_344\n      jumpi\n        /* \"#utility.yul\":15073:15082   */\n      dup5\n        /* \"#utility.yul\":15068:15071   */\n      dup10\n        /* \"#utility.yul\":15064:15083   */\n      add\n        /* \"#utility.yul\":15058:15084   */\n      mload\n        /* \"#utility.yul\":15116:15164   */\n      tag_345\n        /* \"#utility.yul\":15158:15162   */\n      0x1f\n        /* \"#utility.yul\":15150:15156   */\n      dup10\n        /* \"#utility.yul\":15146:15163   */\n      and\n        /* \"#utility.yul\":15135:15144   */\n      dup3\n        /* \"#utility.yul\":15116:15164   */\n      tag_168\n      jump\t// in\n    tag_345:\n        /* \"#utility.yul\":15108:15114   */\n      dup4\n        /* \"#utility.yul\":15101:15165   */\n      sstore\n        /* \"#utility.yul\":15023:15179   */\n      pop\n        /* \"#utility.yul\":15000:15179   */\n    tag_344:\n        /* \"#utility.yul\":15225:15226   */\n      0x01\n        /* \"#utility.yul\":15221:15222   */\n      0x02\n        /* \"#utility.yul\":15213:15219   */\n      dup9\n        /* \"#utility.yul\":15209:15223   */\n      mul\n        /* \"#utility.yul\":15205:15227   */\n      add\n        /* \"#utility.yul\":15199:15203   */\n      dup9\n        /* \"#utility.yul\":15192:15228   */\n      sstore\n        /* \"#utility.yul\":14627:15238   */\n      pop\n      pop\n      pop\n        /* \"#utility.yul\":14590:15477   */\n    tag_336:\n      pop\n        /* \"#utility.yul\":14180:15483   */\n      pop\n      pop\n      pop\n        /* \"#utility.yul\":14088:15483   */\n      pop\n      pop\n      jump\t// out\n\n    auxdata: 0xa26469706673582212205aea935b310e97642e38023e1ea30f6ff2badeb07d2d3d7680b385266214916564736f6c63430008130033\n}\n","bytecode":{"linkReferences":{},"object":"60806040523480156200001157600080fd5b50604051620014883803806200148883398181016040528101906200003791906200012c565b80600160006101000a81548173ffffffffffffffffffffffffffffffffffffffff021916908373ffffffffffffffffffffffffffffffffffffffff16021790555081600281905550505062000173565b600080fd5b6000819050919050565b620000a1816200008c565b8114620000ad57600080fd5b50565b600081519050620000c18162000096565b92915050565b600073ffffffffffffffffffffffffffffffffffffffff82169050919050565b6000620000f482620000c7565b9050919050565b6200010681620000e7565b81146200011257600080fd5b50565b6000815190506200012681620000fb565b92915050565b6000806040838503121562000146576200014562000087565b5b60006200015685828601620000b0565b9250506020620001698582860162000115565b9150509250929050565b61130580620001836000396000f3fe60806040526004361061009c5760003560e01c806381d12c581161006457806381d12c581461018c57806382fde093146101d0578063937e09b1146101fb578063d7bb99ba14610226578063d7d1bbdb14610230578063e600791c146102595761009c565b806303441006146100a15780630a144391146100ca5780633410452a146101075780634051ddac14610132578063481c6a7514610161575b600080fd5b3480156100ad57600080fd5b506100c860048036038101906100c39190610a20565b610282565b005b3480156100d657600080fd5b506100f160048036038101906100ec9190610aab565b6103cb565b6040516100fe9190610af3565b60405180910390f35b34801561011357600080fd5b5061011c6103eb565b6040516101299190610b1d565b60405180910390f35b34801561013e57600080fd5b506101476103f7565b604051610158959493929190610b47565b60405180910390f35b34801561016d57600080fd5b50610176610440565b6040516101839190610b9a565b60405180910390f35b34801561019857600080fd5b506101b360048036038101906101ae9190610a20565b610466565b6040516101c7989796959493929190610c45565b60405180910390f35b3480156101dc57600080fd5b506101e561070b565b6040516101f29190610b1d565b60405180910390f35b34801561020757600080fd5b50610210610711565b60405161021d9190610b1d565b60405180910390f35b61022e610717565b005b34801561023c57600080fd5b5061025760048036038101906102529190610a20565b610797565b005b34801561026557600080fd5b50610280600480360381019061027b9190610e14565b6108e3565b005b600160009054906101000a900473ffffffffffffffffffffffffffffffffffffffff1673ffffffffffffffffffffffffffffffffffffffff163373ffffffffffffffffffffffffffffffffffffffff16146102dc57600080fd5b60008082815481106102f1576102f0610eeb565b5b9060005260206000209060080201905060026004546103109190610f78565b81600601541161031f57600080fd5b8060050160149054906101000a900460ff161561033b57600080fd5b8060050160009054906101000a900473ffffffffffffffffffffffffffffffffffffffff1673ffffffffffffffffffffffffffffffffffffffff166108fc82600301549081150290604051600060405180830381858888f193505050501580156103a9573d6000803e3d6000fd5b5060018160050160146101000a81548160ff0219169083151502179055505050565b60036020528060005260406000206000915054906101000a900460ff1681565b60008080549050905090565b600080600080600060025447600080549050600454600160009054906101000a900473ffffffffffffffffffffffffffffffffffffffff16945094509450945094509091929394565b600160009054906101000a900473ffffffffffffffffffffffffffffffffffffffff1681565b6000818154811061047657600080fd5b906000526020600020906008020160009150905080600001805461049990610fd8565b80601f01602080910402602001604051908101604052809291908181526020018280546104c590610fd8565b80156105125780601f106104e757610100808354040283529160200191610512565b820191906000526020600020905b8154815290600101906020018083116104f557829003601f168201915b50505050509080600101805461052790610fd8565b80601f016020809104026020016040519081016040528092919081815260200182805461055390610fd8565b80156105a05780601f10610575576101008083540402835291602001916105a0565b820191906000526020600020905b81548152906001019060200180831161058357829003601f168201915b5050505050908060020180546105b590610fd8565b80601f01602080910402602001604051908101604052809291908181526020018280546105e190610fd8565b801561062e5780601f106106035761010080835404028352916020019161062e565b820191906000526020600020905b81548152906001019060200180831161061157829003601f168201915b50505050509080600301549080600401805461064990610fd8565b80601f016020809104026020016040519081016040528092919081815260200182805461067590610fd8565b80156106c25780601f10610697576101008083540402835291602001916106c2565b820191906000526020600020905b8154815290600101906020018083116106a557829003601f168201915b5050505050908060050160009054906101000a900473ffffffffffffffffffffffffffffffffffffffff16908060050160149054906101000a900460ff16908060060154905088565b60045481565b60025481565b600254341161072557600080fd5b6001600360003373ffffffffffffffffffffffffffffffffffffffff1673ffffffffffffffffffffffffffffffffffffffff16815260200190815260200160002060006101000a81548160ff0219169083151502179055506004600081548092919061079090611009565b9190505550565b60008082815481106107ac576107ab610eeb565b5b90600052602060002090600802019050600360003373ffffffffffffffffffffffffffffffffffffffff1673ffffffffffffffffffffffffffffffffffffffff16815260200190815260200160002060009054906101000a900460ff1661081257600080fd5b8060070160003373ffffffffffffffffffffffffffffffffffffffff1673ffffffffffffffffffffffffffffffffffffffff16815260200190815260200160002060009054906101000a900460ff161561086b57600080fd5b60018160070160003373ffffffffffffffffffffffffffffffffffffffff1673ffffffffffffffffffffffffffffffffffffffff16815260200190815260200160002060006101000a81548160ff0219169083151502179055508060060160008154809291906108da90611009565b91905055505050565b600160009054906101000a900473ffffffffffffffffffffffffffffffffffffffff1673ffffffffffffffffffffffffffffffffffffffff163373ffffffffffffffffffffffffffffffffffffffff161461093d57600080fd5b60008060018160018154018082558091505003906000526020600020906008020190508481600001908161097191906111fd565b508381600101908161098391906111fd565b508281600201908161099591906111fd565b50818160040190816109a791906111fd565b5060008160050160146101000a81548160ff021916908315150217905550600081600601819055505050505050565b6000604051905090565b600080fd5b600080fd5b6000819050919050565b6109fd816109ea565b8114610a0857600080fd5b50565b600081359050610a1a816109f4565b92915050565b600060208284031215610a3657610a356109e0565b5b6000610a4484828501610a0b565b91505092915050565b600073ffffffffffffffffffffffffffffffffffffffff82169050919050565b6000610a7882610a4d565b9050919050565b610a8881610a6d565b8114610a9357600080fd5b50565b600081359050610aa581610a7f565b92915050565b600060208284031215610ac157610ac06109e0565b5b6000610acf84828501610a96565b91505092915050565b60008115159050919050565b610aed81610ad8565b82525050565b6000602082019050610b086000830184610ae4565b92915050565b610b17816109ea565b82525050565b6000602082019050610b326000830184610b0e565b92915050565b610b4181610a6d565b82525050565b600060a082019050610b5c6000830188610b0e565b610b696020830187610b0e565b610b766040830186610b0e565b610b836060830185610b0e565b610b906080830184610b38565b9695505050505050565b6000602082019050610baf6000830184610b38565b92915050565b600081519050919050565b600082825260208201905092915050565b60005b83811015610bef578082015181840152602081019050610bd4565b60008484015250505050565b6000601f19601f8301169050919050565b6000610c1782610bb5565b610c218185610bc0565b9350610c31818560208601610bd1565b610c3a81610bfb565b840191505092915050565b6000610100820190508181036000830152610c60818b610c0c565b90508181036020830152610c74818a610c0c565b90508181036040830152610c888189610c0c565b9050610c976060830188610b0e565b8181036080830152610ca98187610c0c565b9050610cb860a0830186610b38565b610cc560c0830185610ae4565b610cd260e0830184610b0e565b9998505050505050505050565b600080fd5b600080fd5b7f4e487b7100000000000000000000000000000000000000000000000000000000600052604160045260246000fd5b610d2182610bfb565b810181811067ffffffffffffffff82111715610d4057610d3f610ce9565b5b80604052505050565b6000610d536109d6565b9050610d5f8282610d18565b919050565b600067ffffffffffffffff821115610d7f57610d7e610ce9565b5b610d8882610bfb565b9050602081019050919050565b82818337600083830152505050565b6000610db7610db284610d64565b610d49565b905082815260208101848484011115610dd357610dd2610ce4565b5b610dde848285610d95565b509392505050565b600082601f830112610dfb57610dfa610cdf565b5b8135610e0b848260208601610da4565b91505092915050565b60008060008060808587031215610e2e57610e2d6109e0565b5b600085013567ffffffffffffffff811115610e4c57610e4b6109e5565b5b610e5887828801610de6565b945050602085013567ffffffffffffffff811115610e7957610e786109e5565b5b610e8587828801610de6565b935050604085013567ffffffffffffffff811115610ea657610ea56109e5565b5b610eb287828801610de6565b925050606085013567ffffffffffffffff811115610ed357610ed26109e5565b5b610edf87828801610de6565b91505092959194509250565b7f4e487b7100000000000000000000000000000000000000000000000000000000600052603260045260246000fd5b7f4e487b7100000000000000000000000000000000000000000000000000000000600052601260045260246000fd5b7f4e487b7100000000000000000000000000000000000000000000000000000000600052601160045260246000fd5b6000610f83826109ea565b9150610f8e836109ea565b925082610f9e57610f9d610f1a565b5b828204905092915050565b7f4e487b7100000000000000000000000000000000000000000000000000000000600052602260045260246000fd5b60006002820490506001821680610ff057607f821691505b60208210810361100357611002610fa9565b5b50919050565b6000611014826109ea565b91507fffffffffffffffffffffffffffffffffffffffffffffffffffffffffffffffff820361104657611045610f49565b5b600182019050919050565b60008190508160005260206000209050919050565b60006020601f8301049050919050565b600082821b905092915050565b6000600883026110b37fffffffffffffffffffffffffffffffffffffffffffffffffffffffffffffffff82611076565b6110bd8683611076565b95508019841693508086168417925050509392505050565b6000819050919050565b60006110fa6110f56110f0846109ea565b6110d5565b6109ea565b9050919050565b6000819050919050565b611114836110df565b61112861112082611101565b848454611083565b825550505050565b600090565b61113d611130565b61114881848461110b565b505050565b5b8181101561116c57611161600082611135565b60018101905061114e565b5050565b601f8211156111b15761118281611051565b61118b84611066565b8101602085101561119a578190505b6111ae6111a685611066565b83018261114d565b50505b505050565b600082821c905092915050565b60006111d4600019846008026111b6565b1980831691505092915050565b60006111ed83836111c3565b9150826002028217905092915050565b61120682610bb5565b67ffffffffffffffff81111561121f5761121e610ce9565b5b6112298254610fd8565b611234828285611170565b600060209050601f8311600181146112675760008415611255578287015190505b61125f85826111e1565b8655506112c7565b601f19841661127586611051565b60005b8281101561129d57848901518255600182019150602085019450602081019050611278565b868310156112ba57848901516112b6601f8916826111c3565b8355505b6001600288020188555050505b50505050505056fea26469706673582212205aea935b310e97642e38023e1ea30f6ff2badeb07d2d3d7680b385266214916564736f6c63430008130033","opcodes":"PUSH1 0x80 PUSH1 0x40 MSTORE CALLVALUE DUP1 ISZERO PUSH3 0x11 JUMPI PUSH1 0x0 DUP1 REVERT JUMPDEST POP PUSH1 0x40 MLOAD PUSH3 0x1488 CODESIZE SUB DUP1 PUSH3 0x1488 DUP4 CODECOPY DUP2 DUP2 ADD PUSH1 0x40 MSTORE DUP2 ADD SWAP1 PUSH3 0x37 SWAP2 SWAP1 PUSH3 0x12C JUMP JUMPDEST DUP1 PUSH1 0x1 PUSH1 0x0 PUSH2 0x100 EXP DUP2 SLOAD DUP2 PUSH20 0xFFFFFFFFFFFFFFFFFFFFFFFFFFFFFFFFFFFFFFFF MUL NOT AND SWAP1 DUP4 PUSH20 0xFFFFFFFFFFFFFFFFFFFFFFFFFFFFFFFFFFFFFFFF AND MUL OR SWAP1 SSTORE POP DUP2 PUSH1 0x2 DUP2 SWAP1 SSTORE POP POP POP PUSH3 0x173 JUMP JUMPDEST PUSH1 0x0 DUP1 REVERT JUMPDEST PUSH1 0x0 DUP2 SWAP1 POP SWAP2 SWAP1 POP JUMP JUMPDEST PUSH3 0xA1 DUP2 PUSH3 0x8C JUMP JUMPDEST DUP2 EQ PUSH3 0xAD JUMPI PUSH1 0x0 DUP1 REVERT JUMPDEST POP JUMP JUMPDEST PUSH1 0x0 DUP2 MLOAD SWAP1 POP PUSH3 0xC1 DUP2 PUSH3 0x96 JUMP JUMPDEST SWAP3 SWAP2 POP POP JUMP JUMPDEST PUSH1 0x0 PUSH20 0xFFFFFFFFFFFFFFFFFFFFFFFFFFFFFFFFFFFFFFFF DUP3 AND SWAP1 POP SWAP2 SWAP1 POP JUMP JUMPDEST PUSH1 0x0 PUSH3 0xF4 DUP3 PUSH3 0xC7 JUMP JUMPDEST SWAP1 POP SWAP2 SWAP1 POP JUMP JUMPDEST PUSH3 0x106 DUP2 PUSH3 0xE7 JUMP JUMPDEST DUP2 EQ PUSH3 0x112 JUMPI PUSH1 0x0 DUP1 REVERT JUMPDEST POP JUMP JUMPDEST PUSH1 0x0 DUP2 MLOAD SWAP1 POP PUSH3 0x126 DUP2 PUSH3 0xFB JUMP JUMPDEST SWAP3 SWAP2 POP POP JUMP JUMPDEST PUSH1 0x0 DUP1 PUSH1 0x40 DUP4 DUP6 SUB SLT ISZERO PUSH3 0x146 JUMPI PUSH3 0x145 PUSH3 0x87 JUMP JUMPDEST JUMPDEST PUSH1 0x0 PUSH3 0x156 DUP6 DUP3 DUP7 ADD PUSH3 0xB0 JUMP JUMPDEST SWAP3 POP POP PUSH1 0x20 PUSH3 0x169 DUP6 DUP3 DUP7 ADD PUSH3 0x115 JUMP JUMPDEST SWAP2 POP POP SWAP3 POP SWAP3 SWAP1 POP JUMP JUMPDEST PUSH2 0x1305 DUP1 PUSH3 0x183 PUSH1 0x0 CODECOPY PUSH1 0x0 RETURN INVALID PUSH1 0x80 PUSH1 0x40 MSTORE PUSH1 0x4 CALLDATASIZE LT PUSH2 0x9C JUMPI PUSH1 0x0 CALLDATALOAD PUSH1 0xE0 SHR DUP1 PUSH4 0x81D12C58 GT PUSH2 0x64 JUMPI DUP1 PUSH4 0x81D12C58 EQ PUSH2 0x18C JUMPI DUP1 PUSH4 0x82FDE093 EQ PUSH2 0x1D0 JUMPI DUP1 PUSH4 0x937E09B1 EQ PUSH2 0x1FB JUMPI DUP1 PUSH4 0xD7BB99BA EQ PUSH2 0x226 JUMPI DUP1 PUSH4 0xD7D1BBDB EQ PUSH2 0x230 JUMPI DUP1 PUSH4 0xE600791C EQ PUSH2 0x259 JUMPI PUSH2 0x9C JUMP JUMPDEST DUP1 PUSH4 0x3441006 EQ PUSH2 0xA1 JUMPI DUP1 PUSH4 0xA144391 EQ PUSH2 0xCA JUMPI DUP1 PUSH4 0x3410452A EQ PUSH2 0x107 JUMPI DUP1 PUSH4 0x4051DDAC EQ PUSH2 0x132 JUMPI DUP1 PUSH4 0x481C6A75 EQ PUSH2 0x161 JUMPI JUMPDEST PUSH1 0x0 DUP1 REVERT JUMPDEST CALLVALUE DUP1 ISZERO PUSH2 0xAD JUMPI PUSH1 0x0 DUP1 REVERT JUMPDEST POP PUSH2 0xC8 PUSH1 0x4 DUP1 CALLDATASIZE SUB DUP2 ADD SWAP1 PUSH2 0xC3 SWAP2 SWAP1 PUSH2 0xA20 JUMP JUMPDEST PUSH2 0x282 JUMP JUMPDEST STOP JUMPDEST CALLVALUE DUP1 ISZERO PUSH2 0xD6 JUMPI PUSH1 0x0 DUP1 REVERT JUMPDEST POP PUSH2 0xF1 PUSH1 0x4 DUP1 CALLDATASIZE SUB DUP2 ADD SWAP1 PUSH2 0xEC SWAP2 SWAP1 PUSH2 0xAAB JUMP JUMPDEST PUSH2 0x3CB JUMP JUMPDEST PUSH1 0x40 MLOAD PUSH2 0xFE SWAP2 SWAP1 PUSH2 0xAF3 JUMP JUMPDEST PUSH1 0x40 MLOAD DUP1 SWAP2 SUB SWAP1 RETURN JUMPDEST CALLVALUE DUP1 ISZERO PUSH2 0x113 JUMPI PUSH1 0x0 DUP1 REVERT JUMPDEST POP PUSH2 0x11C PUSH2 0x3EB JUMP JUMPDEST PUSH1 0x40 MLOAD PUSH2 0x129 SWAP2 SWAP1 PUSH2 0xB1D JUMP JUMPDEST PUSH1 0x40 MLOAD DUP1 SWAP2 SUB SWAP1 RETURN JUMPDEST CALLVALUE DUP1 ISZERO PUSH2 0x13E JUMPI PUSH1 0x0 DUP1 REVERT JUMPDEST POP PUSH2 0x147 PUSH2 0x3F7 JUMP JUMPDEST PUSH1 0x40 MLOAD PUSH2 0x158 SWAP6 SWAP5 SWAP4 SWAP3 SWAP2 SWAP1 PUSH2 0xB47 JUMP JUMPDEST PUSH1 0x40 MLOAD DUP1 SWAP2 SUB SWAP1 RETURN JUMPDEST CALLVALUE DUP1 ISZERO PUSH2 0x16D JUMPI PUSH1 0x0 DUP1 REVERT JUMPDEST POP PUSH2 0x176 PUSH2 0x440 JUMP JUMPDEST PUSH1 0x40 MLOAD PUSH2 0x183 SWAP2 SWAP1 PUSH2 0xB9A JUMP JUMPDEST PUSH1 0x40 MLOAD DUP1 SWAP2 SUB SWAP1 RETURN JUMPDEST CALLVALUE DUP1 ISZERO PUSH2 0x198 JUMPI PUSH1 0x0 DUP1 REVERT JUMPDEST POP PUSH2 0x1B3 PUSH1 0x4 DUP1 CALLDATASIZE SUB DUP2 ADD SWAP1 PUSH2 0x1AE SWAP2 SWAP1 PUSH2 0xA20 JUMP JUMPDEST PUSH2 0x466 JUMP JUMPDEST PUSH1 0x40 MLOAD PUSH2 0x1C7 SWAP9 SWAP8 SWAP7 SWAP6 SWAP5 SWAP4 SWAP3 SWAP2 SWAP1 PUSH2 0xC45 JUMP JUMPDEST PUSH1 0x40 MLOAD DUP1 SWAP2 SUB SWAP1 RETURN JUMPDEST CALLVALUE DUP1 ISZERO PUSH2 0x1DC JUMPI PUSH1 0x0 DUP1 REVERT JUMPDEST POP PUSH2 0x1E5 PUSH2 0x70B JUMP JUMPDEST PUSH1 0x40 MLOAD PUSH2 0x1F2 SWAP2 SWAP1 PUSH2 0xB1D JUMP JUMPDEST PUSH1 0x40 MLOAD DUP1 SWAP2 SUB SWAP1 RETURN JUMPDEST CALLVALUE DUP1 ISZERO PUSH2 0x207 JUMPI PUSH1 0x0 DUP1 REVERT JUMPDEST POP PUSH2 0x210 PUSH2 0x711 JUMP JUMPDEST PUSH1 0x40 MLOAD PUSH2 0x21D SWAP2 SWAP1 PUSH2 0xB1D JUMP JUMPDEST PUSH1 0x40 MLOAD DUP1 SWAP2 SUB SWAP1 RETURN JUMPDEST PUSH2 0x22E PUSH2 0x717 JUMP JUMPDEST STOP JUMPDEST CALLVALUE DUP1 ISZERO PUSH2 0x23C JUMPI PUSH1 0x0 DUP1 REVERT JUMPDEST POP PUSH2 0x257 PUSH1 0x4 DUP1 CALLDATASIZE SUB DUP2 ADD SWAP1 PUSH2 0x252 SWAP2 SWAP1 PUSH2 0xA20 JUMP JUMPDEST PUSH2 0x797 JUMP JUMPDEST STOP JUMPDEST CALLVALUE DUP1 ISZERO PUSH2 0x265 JUMPI PUSH1 0x0 DUP1 REVERT JUMPDEST POP PUSH2 0x280 PUSH1 0x4 DUP1 CALLDATASIZE SUB DUP2 ADD SWAP1 PUSH2 0x27B SWAP2 SWAP1 PUSH2 0xE14 JUMP JUMPDEST PUSH2 0x8E3 JUMP JUMPDEST STOP JUMPDEST PUSH1 0x1 PUSH1 0x0 SWAP1 SLOAD SWAP1 PUSH2 0x100 EXP SWAP1 DIV PUSH20 0xFFFFFFFFFFFFFFFFFFFFFFFFFFFFFFFFFFFFFFFF AND PUSH20 0xFFFFFFFFFFFFFFFFFFFFFFFFFFFFFFFFFFFFFFFF AND CALLER PUSH20 0xFFFFFFFFFFFFFFFFFFFFFFFFFFFFFFFFFFFFFFFF AND EQ PUSH2 0x2DC JUMPI PUSH1 0x0 DUP1 REVERT JUMPDEST PUSH1 0x0 DUP1 DUP3 DUP2 SLOAD DUP2 LT PUSH2 0x2F1 JUMPI PUSH2 0x2F0 PUSH2 0xEEB JUMP JUMPDEST JUMPDEST SWAP1 PUSH1 0x0 MSTORE PUSH1 0x20 PUSH1 0x0 KECCAK256 SWAP1 PUSH1 0x8 MUL ADD SWAP1 POP PUSH1 0x2 PUSH1 0x4 SLOAD PUSH2 0x310 SWAP2 SWAP1 PUSH2 0xF78 JUMP JUMPDEST DUP2 PUSH1 0x6 ADD SLOAD GT PUSH2 0x31F JUMPI PUSH1 0x0 DUP1 REVERT JUMPDEST DUP1 PUSH1 0x5 ADD PUSH1 0x14 SWAP1 SLOAD SWAP1 PUSH2 0x100 EXP SWAP1 DIV PUSH1 0xFF AND ISZERO PUSH2 0x33B JUMPI PUSH1 0x0 DUP1 REVERT JUMPDEST DUP1 PUSH1 0x5 ADD PUSH1 0x0 SWAP1 SLOAD SWAP1 PUSH2 0x100 EXP SWAP1 DIV PUSH20 0xFFFFFFFFFFFFFFFFFFFFFFFFFFFFFFFFFFFFFFFF AND PUSH20 0xFFFFFFFFFFFFFFFFFFFFFFFFFFFFFFFFFFFFFFFF AND PUSH2 0x8FC DUP3 PUSH1 0x3 ADD SLOAD SWAP1 DUP2 ISZERO MUL SWAP1 PUSH1 0x40 MLOAD PUSH1 0x0 PUSH1 0x40 MLOAD DUP1 DUP4 SUB DUP2 DUP6 DUP9 DUP9 CALL SWAP4 POP POP POP POP ISZERO DUP1 ISZERO PUSH2 0x3A9 JUMPI RETURNDATASIZE PUSH1 0x0 DUP1 RETURNDATACOPY RETURNDATASIZE PUSH1 0x0 REVERT JUMPDEST POP PUSH1 0x1 DUP2 PUSH1 0x5 ADD PUSH1 0x14 PUSH2 0x100 EXP DUP2 SLOAD DUP2 PUSH1 0xFF MUL NOT AND SWAP1 DUP4 ISZERO ISZERO MUL OR SWAP1 SSTORE POP POP POP JUMP JUMPDEST PUSH1 0x3 PUSH1 0x20 MSTORE DUP1 PUSH1 0x0 MSTORE PUSH1 0x40 PUSH1 0x0 KECCAK256 PUSH1 0x0 SWAP2 POP SLOAD SWAP1 PUSH2 0x100 EXP SWAP1 DIV PUSH1 0xFF AND DUP2 JUMP JUMPDEST PUSH1 0x0 DUP1 DUP1 SLOAD SWAP1 POP SWAP1 POP SWAP1 JUMP JUMPDEST PUSH1 0x0 DUP1 PUSH1 0x0 DUP1 PUSH1 0x0 PUSH1 0x2 SLOAD SELFBALANCE PUSH1 0x0 DUP1 SLOAD SWAP1 POP PUSH1 0x4 SLOAD PUSH1 0x1 PUSH1 0x0 SWAP1 SLOAD SWAP1 PUSH2 0x100 EXP SWAP1 DIV PUSH20 0xFFFFFFFFFFFFFFFFFFFFFFFFFFFFFFFFFFFFFFFF AND SWAP5 POP SWAP5 POP SWAP5 POP SWAP5 POP SWAP5 POP SWAP1 SWAP2 SWAP3 SWAP4 SWAP5 JUMP JUMPDEST PUSH1 0x1 PUSH1 0x0 SWAP1 SLOAD SWAP1 PUSH2 0x100 EXP SWAP1 DIV PUSH20 0xFFFFFFFFFFFFFFFFFFFFFFFFFFFFFFFFFFFFFFFF AND DUP2 JUMP JUMPDEST PUSH1 0x0 DUP2 DUP2 SLOAD DUP2 LT PUSH2 0x476 JUMPI PUSH1 0x0 DUP1 REVERT JUMPDEST SWAP1 PUSH1 0x0 MSTORE PUSH1 0x20 PUSH1 0x0 KECCAK256 SWAP1 PUSH1 0x8 MUL ADD PUSH1 0x0 SWAP2 POP SWAP1 POP DUP1 PUSH1 0x0 ADD DUP1 SLOAD PUSH2 0x499 SWAP1 PUSH2 0xFD8 JUMP JUMPDEST DUP1 PUSH1 0x1F ADD PUSH1 0x20 DUP1 SWAP2 DIV MUL PUSH1 0x20 ADD PUSH1 0x40 MLOAD SWAP1 DUP2 ADD PUSH1 0x40 MSTORE DUP1 SWAP3 SWAP2 SWAP1 DUP2 DUP2 MSTORE PUSH1 0x20 ADD DUP3 DUP1 SLOAD PUSH2 0x4C5 SWAP1 PUSH2 0xFD8 JUMP JUMPDEST DUP1 ISZERO PUSH2 0x512 JUMPI DUP1 PUSH1 0x1F LT PUSH2 0x4E7 JUMPI PUSH2 0x100 DUP1 DUP4 SLOAD DIV MUL DUP4 MSTORE SWAP2 PUSH1 0x20 ADD SWAP2 PUSH2 0x512 JUMP JUMPDEST DUP3 ADD SWAP2 SWAP1 PUSH1 0x0 MSTORE PUSH1 0x20 PUSH1 0x0 KECCAK256 SWAP1 JUMPDEST DUP2 SLOAD DUP2 MSTORE SWAP1 PUSH1 0x1 ADD SWAP1 PUSH1 0x20 ADD DUP1 DUP4 GT PUSH2 0x4F5 JUMPI DUP3 SWAP1 SUB PUSH1 0x1F AND DUP3 ADD SWAP2 JUMPDEST POP POP POP POP POP SWAP1 DUP1 PUSH1 0x1 ADD DUP1 SLOAD PUSH2 0x527 SWAP1 PUSH2 0xFD8 JUMP JUMPDEST DUP1 PUSH1 0x1F ADD PUSH1 0x20 DUP1 SWAP2 DIV MUL PUSH1 0x20 ADD PUSH1 0x40 MLOAD SWAP1 DUP2 ADD PUSH1 0x40 MSTORE DUP1 SWAP3 SWAP2 SWAP1 DUP2 DUP2 MSTORE PUSH1 0x20 ADD DUP3 DUP1 SLOAD PUSH2 0x553 SWAP1 PUSH2 0xFD8 JUMP JUMPDEST DUP1 ISZERO PUSH2 0x5A0 JUMPI DUP1 PUSH1 0x1F LT PUSH2 0x575 JUMPI PUSH2 0x100 DUP1 DUP4 SLOAD DIV MUL DUP4 MSTORE SWAP2 PUSH1 0x20 ADD SWAP2 PUSH2 0x5A0 JUMP JUMPDEST DUP3 ADD SWAP2 SWAP1 PUSH1 0x0 MSTORE PUSH1 0x20 PUSH1 0x0 KECCAK256 SWAP1 JUMPDEST DUP2 SLOAD DUP2 MSTORE SWAP1 PUSH1 0x1 ADD SWAP1 PUSH1 0x20 ADD DUP1 DUP4 GT PUSH2 0x583 JUMPI DUP3 SWAP1 SUB PUSH1 0x1F AND DUP3 ADD SWAP2 JUMPDEST POP POP POP POP POP SWAP1 DUP1 PUSH1 0x2 ADD DUP1 SLOAD PUSH2 0x5B5 SWAP1 PUSH2 0xFD8 JUMP JUMPDEST DUP1 PUSH1 0x1F ADD PUSH1 0x20 DUP1 SWAP2 DIV MUL PUSH1 0x20 ADD PUSH1 0x40 MLOAD SWAP1 DUP2 ADD PUSH1 0x40 MSTORE DUP1 SWAP3 SWAP2 SWAP1 DUP2 DUP2 MSTORE PUSH1 0x20 ADD DUP3 DUP1 SLOAD PUSH2 0x5E1 SWAP1 PUSH2 0xFD8 JUMP JUMPDEST DUP1 ISZERO PUSH2 0x62E JUMPI DUP1 PUSH1 0x1F LT PUSH2 0x603 JUMPI PUSH2 0x100 DUP1 DUP4 SLOAD DIV MUL DUP4 MSTORE SWAP2 PUSH1 0x20 ADD SWAP2 PUSH2 0x62E JUMP JUMPDEST DUP3 ADD SWAP2 SWAP1 PUSH1 0x0 MSTORE PUSH1 0x20 PUSH1 0x0 KECCAK256 SWAP1 JUMPDEST DUP2 SLOAD DUP2 MSTORE SWAP1 PUSH1 0x1 ADD SWAP1 PUSH1 0x20 ADD DUP1 DUP4 GT PUSH2 0x611 JUMPI DUP3 SWAP1 SUB PUSH1 0x1F AND DUP3 ADD SWAP2 JUMPDEST POP POP POP POP POP SWAP1 DUP1 PUSH1 0x3 ADD SLOAD SWAP1 DUP1 PUSH1 0x4 ADD DUP1 SLOAD PUSH2 0x649 SWAP1 PUSH2 0xFD8 JUMP JUMPDEST DUP1 PUSH1 0x1F ADD PUSH1 0x20 DUP1 SWAP2 DIV MUL PUSH1 0x20 ADD PUSH1 0x40 MLOAD SWAP1 DUP2 ADD PUSH1 0x40 MSTORE DUP1 SWAP3 SWAP2 SWAP1 DUP2 DUP2 MSTORE PUSH1 0x20 ADD DUP3 DUP1 SLOAD PUSH2 0x675 SWAP1 PUSH2 0xFD8 JUMP JUMPDEST DUP1 ISZERO PUSH2 0x6C2 JUMPI DUP1 PUSH1 0x1F LT PUSH2 0x697 JUMPI PUSH2 0x100 DUP1 DUP4 SLOAD DIV MUL DUP4 MSTORE SWAP2 PUSH1 0x20 ADD SWAP2 PUSH2 0x6C2 JUMP JUMPDEST DUP3 ADD SWAP2 SWAP1 PUSH1 0x0 MSTORE PUSH1 0x20 PUSH1 0x0 KECCAK256 SWAP1 JUMPDEST DUP2 SLOAD DUP2 MSTORE SWAP1 PUSH1 0x1 ADD SWAP1 PUSH1 0x20 ADD DUP1 DUP4 GT PUSH2 0x6A5 JUMPI DUP3 SWAP1 SUB PUSH1 0x1F AND DUP3 ADD SWAP2 JUMPDEST POP POP POP POP POP SWAP1 DUP1 PUSH1 0x5 ADD PUSH1 0x0 SWAP1 SLOAD SWAP1 PUSH2 0x100 EXP SWAP1 DIV PUSH20 0xFFFFFFFFFFFFFFFFFFFFFFFFFFFFFFFFFFFFFFFF AND SWAP1 DUP1 PUSH1 0x5 ADD PUSH1 0x14 SWAP1 SLOAD SWAP1 PUSH2 0x100 EXP SWAP1 DIV PUSH1 0xFF AND SWAP1 DUP1 PUSH1 0x6 ADD SLOAD SWAP1 POP DUP9 JUMP JUMPDEST PUSH1 0x4 SLOAD DUP2 JUMP JUMPDEST PUSH1 0x2 SLOAD DUP2 JUMP JUMPDEST PUSH1 0x2 SLOAD CALLVALUE GT PUSH2 0x725 JUMPI PUSH1 0x0 DUP1 REVERT JUMPDEST PUSH1 0x1 PUSH1 0x3 PUSH1 0x0 CALLER PUSH20 0xFFFFFFFFFFFFFFFFFFFFFFFFFFFFFFFFFFFFFFFF AND PUSH20 0xFFFFFFFFFFFFFFFFFFFFFFFFFFFFFFFFFFFFFFFF AND DUP2 MSTORE PUSH1 0x20 ADD SWAP1 DUP2 MSTORE PUSH1 0x20 ADD PUSH1 0x0 KECCAK256 PUSH1 0x0 PUSH2 0x100 EXP DUP2 SLOAD DUP2 PUSH1 0xFF MUL NOT AND SWAP1 DUP4 ISZERO ISZERO MUL OR SWAP1 SSTORE POP PUSH1 0x4 PUSH1 0x0 DUP2 SLOAD DUP1 SWAP3 SWAP2 SWAP1 PUSH2 0x790 SWAP1 PUSH2 0x1009 JUMP JUMPDEST SWAP2 SWAP1 POP SSTORE POP JUMP JUMPDEST PUSH1 0x0 DUP1 DUP3 DUP2 SLOAD DUP2 LT PUSH2 0x7AC JUMPI PUSH2 0x7AB PUSH2 0xEEB JUMP JUMPDEST JUMPDEST SWAP1 PUSH1 0x0 MSTORE PUSH1 0x20 PUSH1 0x0 KECCAK256 SWAP1 PUSH1 0x8 MUL ADD SWAP1 POP PUSH1 0x3 PUSH1 0x0 CALLER PUSH20 0xFFFFFFFFFFFFFFFFFFFFFFFFFFFFFFFFFFFFFFFF AND PUSH20 0xFFFFFFFFFFFFFFFFFFFFFFFFFFFFFFFFFFFFFFFF AND DUP2 MSTORE PUSH1 0x20 ADD SWAP1 DUP2 MSTORE PUSH1 0x20 ADD PUSH1 0x0 KECCAK256 PUSH1 0x0 SWAP1 SLOAD SWAP1 PUSH2 0x100 EXP SWAP1 DIV PUSH1 0xFF AND PUSH2 0x812 JUMPI PUSH1 0x0 DUP1 REVERT JUMPDEST DUP1 PUSH1 0x7 ADD PUSH1 0x0 CALLER PUSH20 0xFFFFFFFFFFFFFFFFFFFFFFFFFFFFFFFFFFFFFFFF AND PUSH20 0xFFFFFFFFFFFFFFFFFFFFFFFFFFFFFFFFFFFFFFFF AND DUP2 MSTORE PUSH1 0x20 ADD SWAP1 DUP2 MSTORE PUSH1 0x20 ADD PUSH1 0x0 KECCAK256 PUSH1 0x0 SWAP1 SLOAD SWAP1 PUSH2 0x100 EXP SWAP1 DIV PUSH1 0xFF AND ISZERO PUSH2 0x86B JUMPI PUSH1 0x0 DUP1 REVERT JUMPDEST PUSH1 0x1 DUP2 PUSH1 0x7 ADD PUSH1 0x0 CALLER PUSH20 0xFFFFFFFFFFFFFFFFFFFFFFFFFFFFFFFFFFFFFFFF AND PUSH20 0xFFFFFFFFFFFFFFFFFFFFFFFFFFFFFFFFFFFFFFFF AND DUP2 MSTORE PUSH1 0x20 ADD SWAP1 DUP2 MSTORE PUSH1 0x20 ADD PUSH1 0x0 KECCAK256 PUSH1 0x0 PUSH2 0x100 EXP DUP2 SLOAD DUP2 PUSH1 0xFF MUL NOT AND SWAP1 DUP4 ISZERO ISZERO MUL OR SWAP1 SSTORE POP DUP1 PUSH1 0x6 ADD PUSH1 0x0 DUP2 SLOAD DUP1 SWAP3 SWAP2 SWAP1 PUSH2 0x8DA SWAP1 PUSH2 0x1009 JUMP JUMPDEST SWAP2 SWAP1 POP SSTORE POP POP POP JUMP JUMPDEST PUSH1 0x1 PUSH1 0x0 SWAP1 SLOAD SWAP1 PUSH2 0x100 EXP SWAP1 DIV PUSH20 0xFFFFFFFFFFFFFFFFFFFFFFFFFFFFFFFFFFFFFFFF AND PUSH20 0xFFFFFFFFFFFFFFFFFFFFFFFFFFFFFFFFFFFFFFFF AND CALLER PUSH20 0xFFFFFFFFFFFFFFFFFFFFFFFFFFFFFFFFFFFFFFFF AND EQ PUSH2 0x93D JUMPI PUSH1 0x0 DUP1 REVERT JUMPDEST PUSH1 0x0 DUP1 PUSH1 0x1 DUP2 PUSH1 0x1 DUP2 SLOAD ADD DUP1 DUP3 SSTORE DUP1 SWAP2 POP POP SUB SWAP1 PUSH1 0x0 MSTORE PUSH1 0x20 PUSH1 0x0 KECCAK256 SWAP1 PUSH1 0x8 MUL ADD SWAP1 POP DUP5 DUP2 PUSH1 0x0 ADD SWAP1 DUP2 PUSH2 0x971 SWAP2 SWAP1 PUSH2 0x11FD JUMP JUMPDEST POP DUP4 DUP2 PUSH1 0x1 ADD SWAP1 DUP2 PUSH2 0x983 SWAP2 SWAP1 PUSH2 0x11FD JUMP JUMPDEST POP DUP3 DUP2 PUSH1 0x2 ADD SWAP1 DUP2 PUSH2 0x995 SWAP2 SWAP1 PUSH2 0x11FD JUMP JUMPDEST POP DUP2 DUP2 PUSH1 0x4 ADD SWAP1 DUP2 PUSH2 0x9A7 SWAP2 SWAP1 PUSH2 0x11FD JUMP JUMPDEST POP PUSH1 0x0 DUP2 PUSH1 0x5 ADD PUSH1 0x14 PUSH2 0x100 EXP DUP2 SLOAD DUP2 PUSH1 0xFF MUL NOT AND SWAP1 DUP4 ISZERO ISZERO MUL OR SWAP1 SSTORE POP PUSH1 0x0 DUP2 PUSH1 0x6 ADD DUP2 SWAP1 SSTORE POP POP POP POP POP POP JUMP JUMPDEST PUSH1 0x0 PUSH1 0x40 MLOAD SWAP1 POP SWAP1 JUMP JUMPDEST PUSH1 0x0 DUP1 REVERT JUMPDEST PUSH1 0x0 DUP1 REVERT JUMPDEST PUSH1 0x0 DUP2 SWAP1 POP SWAP2 SWAP1 POP JUMP JUMPDEST PUSH2 0x9FD DUP2 PUSH2 0x9EA JUMP JUMPDEST DUP2 EQ PUSH2 0xA08 JUMPI PUSH1 0x0 DUP1 REVERT JUMPDEST POP JUMP JUMPDEST PUSH1 0x0 DUP2 CALLDATALOAD SWAP1 POP PUSH2 0xA1A DUP2 PUSH2 0x9F4 JUMP JUMPDEST SWAP3 SWAP2 POP POP JUMP JUMPDEST PUSH1 0x0 PUSH1 0x20 DUP3 DUP5 SUB SLT ISZERO PUSH2 0xA36 JUMPI PUSH2 0xA35 PUSH2 0x9E0 JUMP JUMPDEST JUMPDEST PUSH1 0x0 PUSH2 0xA44 DUP5 DUP3 DUP6 ADD PUSH2 0xA0B JUMP JUMPDEST SWAP2 POP POP SWAP3 SWAP2 POP POP JUMP JUMPDEST PUSH1 0x0 PUSH20 0xFFFFFFFFFFFFFFFFFFFFFFFFFFFFFFFFFFFFFFFF DUP3 AND SWAP1 POP SWAP2 SWAP1 POP JUMP JUMPDEST PUSH1 0x0 PUSH2 0xA78 DUP3 PUSH2 0xA4D JUMP JUMPDEST SWAP1 POP SWAP2 SWAP1 POP JUMP JUMPDEST PUSH2 0xA88 DUP2 PUSH2 0xA6D JUMP JUMPDEST DUP2 EQ PUSH2 0xA93 JUMPI PUSH1 0x0 DUP1 REVERT JUMPDEST POP JUMP JUMPDEST PUSH1 0x0 DUP2 CALLDATALOAD SWAP1 POP PUSH2 0xAA5 DUP2 PUSH2 0xA7F JUMP JUMPDEST SWAP3 SWAP2 POP POP JUMP JUMPDEST PUSH1 0x0 PUSH1 0x20 DUP3 DUP5 SUB SLT ISZERO PUSH2 0xAC1 JUMPI PUSH2 0xAC0 PUSH2 0x9E0 JUMP JUMPDEST JUMPDEST PUSH1 0x0 PUSH2 0xACF DUP5 DUP3 DUP6 ADD PUSH2 0xA96 JUMP JUMPDEST SWAP2 POP POP SWAP3 SWAP2 POP POP JUMP JUMPDEST PUSH1 0x0 DUP2 ISZERO ISZERO SWAP1 POP SWAP2 SWAP1 POP JUMP JUMPDEST PUSH2 0xAED DUP2 PUSH2 0xAD8 JUMP JUMPDEST DUP3 MSTORE POP POP JUMP JUMPDEST PUSH1 0x0 PUSH1 0x20 DUP3 ADD SWAP1 POP PUSH2 0xB08 PUSH1 0x0 DUP4 ADD DUP5 PUSH2 0xAE4 JUMP JUMPDEST SWAP3 SWAP2 POP POP JUMP JUMPDEST PUSH2 0xB17 DUP2 PUSH2 0x9EA JUMP JUMPDEST DUP3 MSTORE POP POP JUMP JUMPDEST PUSH1 0x0 PUSH1 0x20 DUP3 ADD SWAP1 POP PUSH2 0xB32 PUSH1 0x0 DUP4 ADD DUP5 PUSH2 0xB0E JUMP JUMPDEST SWAP3 SWAP2 POP POP JUMP JUMPDEST PUSH2 0xB41 DUP2 PUSH2 0xA6D JUMP JUMPDEST DUP3 MSTORE POP POP JUMP JUMPDEST PUSH1 0x0 PUSH1 0xA0 DUP3 ADD SWAP1 POP PUSH2 0xB5C PUSH1 0x0 DUP4 ADD DUP9 PUSH2 0xB0E JUMP JUMPDEST PUSH2 0xB69 PUSH1 0x20 DUP4 ADD DUP8 PUSH2 0xB0E JUMP JUMPDEST PUSH2 0xB76 PUSH1 0x40 DUP4 ADD DUP7 PUSH2 0xB0E JUMP JUMPDEST PUSH2 0xB83 PUSH1 0x60 DUP4 ADD DUP6 PUSH2 0xB0E JUMP JUMPDEST PUSH2 0xB90 PUSH1 0x80 DUP4 ADD DUP5 PUSH2 0xB38 JUMP JUMPDEST SWAP7 SWAP6 POP POP POP POP POP POP JUMP JUMPDEST PUSH1 0x0 PUSH1 0x20 DUP3 ADD SWAP1 POP PUSH2 0xBAF PUSH1 0x0 DUP4 ADD DUP5 PUSH2 0xB38 JUMP JUMPDEST SWAP3 SWAP2 POP POP JUMP JUMPDEST PUSH1 0x0 DUP2 MLOAD SWAP1 POP SWAP2 SWAP1 POP JUMP JUMPDEST PUSH1 0x0 DUP3 DUP3 MSTORE PUSH1 0x20 DUP3 ADD SWAP1 POP SWAP3 SWAP2 POP POP JUMP JUMPDEST PUSH1 0x0 JUMPDEST DUP4 DUP2 LT ISZERO PUSH2 0xBEF JUMPI DUP1 DUP3 ADD MLOAD DUP2 DUP5 ADD MSTORE PUSH1 0x20 DUP2 ADD SWAP1 POP PUSH2 0xBD4 JUMP JUMPDEST PUSH1 0x0 DUP5 DUP5 ADD MSTORE POP POP POP POP JUMP JUMPDEST PUSH1 0x0 PUSH1 0x1F NOT PUSH1 0x1F DUP4 ADD AND SWAP1 POP SWAP2 SWAP1 POP JUMP JUMPDEST PUSH1 0x0 PUSH2 0xC17 DUP3 PUSH2 0xBB5 JUMP JUMPDEST PUSH2 0xC21 DUP2 DUP6 PUSH2 0xBC0 JUMP JUMPDEST SWAP4 POP PUSH2 0xC31 DUP2 DUP6 PUSH1 0x20 DUP7 ADD PUSH2 0xBD1 JUMP JUMPDEST PUSH2 0xC3A DUP2 PUSH2 0xBFB JUMP JUMPDEST DUP5 ADD SWAP2 POP POP SWAP3 SWAP2 POP POP JUMP JUMPDEST PUSH1 0x0 PUSH2 0x100 DUP3 ADD SWAP1 POP DUP2 DUP2 SUB PUSH1 0x0 DUP4 ADD MSTORE PUSH2 0xC60 DUP2 DUP12 PUSH2 0xC0C JUMP JUMPDEST SWAP1 POP DUP2 DUP2 SUB PUSH1 0x20 DUP4 ADD MSTORE PUSH2 0xC74 DUP2 DUP11 PUSH2 0xC0C JUMP JUMPDEST SWAP1 POP DUP2 DUP2 SUB PUSH1 0x40 DUP4 ADD MSTORE PUSH2 0xC88 DUP2 DUP10 PUSH2 0xC0C JUMP JUMPDEST SWAP1 POP PUSH2 0xC97 PUSH1 0x60 DUP4 ADD DUP9 PUSH2 0xB0E JUMP JUMPDEST DUP2 DUP2 SUB PUSH1 0x80 DUP4 ADD MSTORE PUSH2 0xCA9 DUP2 DUP8 PUSH2 0xC0C JUMP JUMPDEST SWAP1 POP PUSH2 0xCB8 PUSH1 0xA0 DUP4 ADD DUP7 PUSH2 0xB38 JUMP JUMPDEST PUSH2 0xCC5 PUSH1 0xC0 DUP4 ADD DUP6 PUSH2 0xAE4 JUMP JUMPDEST PUSH2 0xCD2 PUSH1 0xE0 DUP4 ADD DUP5 PUSH2 0xB0E JUMP JUMPDEST SWAP10 SWAP9 POP POP POP POP POP POP POP POP POP JUMP JUMPDEST PUSH1 0x0 DUP1 REVERT JUMPDEST PUSH1 0x0 DUP1 REVERT JUMPDEST PUSH32 0x4E487B7100000000000000000000000000000000000000000000000000000000 PUSH1 0x0 MSTORE PUSH1 0x41 PUSH1 0x4 MSTORE PUSH1 0x24 PUSH1 0x0 REVERT JUMPDEST PUSH2 0xD21 DUP3 PUSH2 0xBFB JUMP JUMPDEST DUP2 ADD DUP2 DUP2 LT PUSH8 0xFFFFFFFFFFFFFFFF DUP3 GT OR ISZERO PUSH2 0xD40 JUMPI PUSH2 0xD3F PUSH2 0xCE9 JUMP JUMPDEST JUMPDEST DUP1 PUSH1 0x40 MSTORE POP POP POP JUMP JUMPDEST PUSH1 0x0 PUSH2 0xD53 PUSH2 0x9D6 JUMP JUMPDEST SWAP1 POP PUSH2 0xD5F DUP3 DUP3 PUSH2 0xD18 JUMP JUMPDEST SWAP2 SWAP1 POP JUMP JUMPDEST PUSH1 0x0 PUSH8 0xFFFFFFFFFFFFFFFF DUP3 GT ISZERO PUSH2 0xD7F JUMPI PUSH2 0xD7E PUSH2 0xCE9 JUMP JUMPDEST JUMPDEST PUSH2 0xD88 DUP3 PUSH2 0xBFB JUMP JUMPDEST SWAP1 POP PUSH1 0x20 DUP2 ADD SWAP1 POP SWAP2 SWAP1 POP JUMP JUMPDEST DUP3 DUP2 DUP4 CALLDATACOPY PUSH1 0x0 DUP4 DUP4 ADD MSTORE POP POP POP JUMP JUMPDEST PUSH1 0x0 PUSH2 0xDB7 PUSH2 0xDB2 DUP5 PUSH2 0xD64 JUMP JUMPDEST PUSH2 0xD49 JUMP JUMPDEST SWAP1 POP DUP3 DUP2 MSTORE PUSH1 0x20 DUP2 ADD DUP5 DUP5 DUP5 ADD GT ISZERO PUSH2 0xDD3 JUMPI PUSH2 0xDD2 PUSH2 0xCE4 JUMP JUMPDEST JUMPDEST PUSH2 0xDDE DUP5 DUP3 DUP6 PUSH2 0xD95 JUMP JUMPDEST POP SWAP4 SWAP3 POP POP POP JUMP JUMPDEST PUSH1 0x0 DUP3 PUSH1 0x1F DUP4 ADD SLT PUSH2 0xDFB JUMPI PUSH2 0xDFA PUSH2 0xCDF JUMP JUMPDEST JUMPDEST DUP2 CALLDATALOAD PUSH2 0xE0B DUP5 DUP3 PUSH1 0x20 DUP7 ADD PUSH2 0xDA4 JUMP JUMPDEST SWAP2 POP POP SWAP3 SWAP2 POP POP JUMP JUMPDEST PUSH1 0x0 DUP1 PUSH1 0x0 DUP1 PUSH1 0x80 DUP6 DUP8 SUB SLT ISZERO PUSH2 0xE2E JUMPI PUSH2 0xE2D PUSH2 0x9E0 JUMP JUMPDEST JUMPDEST PUSH1 0x0 DUP6 ADD CALLDATALOAD PUSH8 0xFFFFFFFFFFFFFFFF DUP2 GT ISZERO PUSH2 0xE4C JUMPI PUSH2 0xE4B PUSH2 0x9E5 JUMP JUMPDEST JUMPDEST PUSH2 0xE58 DUP8 DUP3 DUP9 ADD PUSH2 0xDE6 JUMP JUMPDEST SWAP5 POP POP PUSH1 0x20 DUP6 ADD CALLDATALOAD PUSH8 0xFFFFFFFFFFFFFFFF DUP2 GT ISZERO PUSH2 0xE79 JUMPI PUSH2 0xE78 PUSH2 0x9E5 JUMP JUMPDEST JUMPDEST PUSH2 0xE85 DUP8 DUP3 DUP9 ADD PUSH2 0xDE6 JUMP JUMPDEST SWAP4 POP POP PUSH1 0x40 DUP6 ADD CALLDATALOAD PUSH8 0xFFFFFFFFFFFFFFFF DUP2 GT ISZERO PUSH2 0xEA6 JUMPI PUSH2 0xEA5 PUSH2 0x9E5 JUMP JUMPDEST JUMPDEST PUSH2 0xEB2 DUP8 DUP3 DUP9 ADD PUSH2 0xDE6 JUMP JUMPDEST SWAP3 POP POP PUSH1 0x60 DUP6 ADD CALLDATALOAD PUSH8 0xFFFFFFFFFFFFFFFF DUP2 GT ISZERO PUSH2 0xED3 JUMPI PUSH2 0xED2 PUSH2 0x9E5 JUMP JUMPDEST JUMPDEST PUSH2 0xEDF DUP8 DUP3 DUP9 ADD PUSH2 0xDE6 JUMP JUMPDEST SWAP2 POP POP SWAP3 SWAP6 SWAP2 SWAP5 POP SWAP3 POP JUMP JUMPDEST PUSH32 0x4E487B7100000000000000000000000000000000000000000000000000000000 PUSH1 0x0 MSTORE PUSH1 0x32 PUSH1 0x4 MSTORE PUSH1 0x24 PUSH1 0x0 REVERT JUMPDEST PUSH32 0x4E487B7100000000000000000000000000000000000000000000000000000000 PUSH1 0x0 MSTORE PUSH1 0x12 PUSH1 0x4 MSTORE PUSH1 0x24 PUSH1 0x0 REVERT JUMPDEST PUSH32 0x4E487B7100000000000000000000000000000000000000000000000000000000 PUSH1 0x0 MSTORE PUSH1 0x11 PUSH1 0x4 MSTORE PUSH1 0x24 PUSH1 0x0 REVERT JUMPDEST PUSH1 0x0 PUSH2 0xF83 DUP3 PUSH2 0x9EA JUMP JUMPDEST SWAP2 POP PUSH2 0xF8E DUP4 PUSH2 0x9EA JUMP JUMPDEST SWAP3 POP DUP3 PUSH2 0xF9E JUMPI PUSH2 0xF9D PUSH2 0xF1A JUMP JUMPDEST JUMPDEST DUP3 DUP3 DIV SWAP1 POP SWAP3 SWAP2 POP POP JUMP JUMPDEST PUSH32 0x4E487B7100000000000000000000000000000000000000000000000000000000 PUSH1 0x0 MSTORE PUSH1 0x22 PUSH1 0x4 MSTORE PUSH1 0x24 PUSH1 0x0 REVERT JUMPDEST PUSH1 0x0 PUSH1 0x2 DUP3 DIV SWAP1 POP PUSH1 0x1 DUP3 AND DUP1 PUSH2 0xFF0 JUMPI PUSH1 0x7F DUP3 AND SWAP2 POP JUMPDEST PUSH1 0x20 DUP3 LT DUP2 SUB PUSH2 0x1003 JUMPI PUSH2 0x1002 PUSH2 0xFA9 JUMP JUMPDEST JUMPDEST POP SWAP2 SWAP1 POP JUMP JUMPDEST PUSH1 0x0 PUSH2 0x1014 DUP3 PUSH2 0x9EA JUMP JUMPDEST SWAP2 POP PUSH32 0xFFFFFFFFFFFFFFFFFFFFFFFFFFFFFFFFFFFFFFFFFFFFFFFFFFFFFFFFFFFFFFFF DUP3 SUB PUSH2 0x1046 JUMPI PUSH2 0x1045 PUSH2 0xF49 JUMP JUMPDEST JUMPDEST PUSH1 0x1 DUP3 ADD SWAP1 POP SWAP2 SWAP1 POP JUMP JUMPDEST PUSH1 0x0 DUP2 SWAP1 POP DUP2 PUSH1 0x0 MSTORE PUSH1 0x20 PUSH1 0x0 KECCAK256 SWAP1 POP SWAP2 SWAP1 POP JUMP JUMPDEST PUSH1 0x0 PUSH1 0x20 PUSH1 0x1F DUP4 ADD DIV SWAP1 POP SWAP2 SWAP1 POP JUMP JUMPDEST PUSH1 0x0 DUP3 DUP3 SHL SWAP1 POP SWAP3 SWAP2 POP POP JUMP JUMPDEST PUSH1 0x0 PUSH1 0x8 DUP4 MUL PUSH2 0x10B3 PUSH32 0xFFFFFFFFFFFFFFFFFFFFFFFFFFFFFFFFFFFFFFFFFFFFFFFFFFFFFFFFFFFFFFFF DUP3 PUSH2 0x1076 JUMP JUMPDEST PUSH2 0x10BD DUP7 DUP4 PUSH2 0x1076 JUMP JUMPDEST SWAP6 POP DUP1 NOT DUP5 AND SWAP4 POP DUP1 DUP7 AND DUP5 OR SWAP3 POP POP POP SWAP4 SWAP3 POP POP POP JUMP JUMPDEST PUSH1 0x0 DUP2 SWAP1 POP SWAP2 SWAP1 POP JUMP JUMPDEST PUSH1 0x0 PUSH2 0x10FA PUSH2 0x10F5 PUSH2 0x10F0 DUP5 PUSH2 0x9EA JUMP JUMPDEST PUSH2 0x10D5 JUMP JUMPDEST PUSH2 0x9EA JUMP JUMPDEST SWAP1 POP SWAP2 SWAP1 POP JUMP JUMPDEST PUSH1 0x0 DUP2 SWAP1 POP SWAP2 SWAP1 POP JUMP JUMPDEST PUSH2 0x1114 DUP4 PUSH2 0x10DF JUMP JUMPDEST PUSH2 0x1128 PUSH2 0x1120 DUP3 PUSH2 0x1101 JUMP JUMPDEST DUP5 DUP5 SLOAD PUSH2 0x1083 JUMP JUMPDEST DUP3 SSTORE POP POP POP POP JUMP JUMPDEST PUSH1 0x0 SWAP1 JUMP JUMPDEST PUSH2 0x113D PUSH2 0x1130 JUMP JUMPDEST PUSH2 0x1148 DUP2 DUP5 DUP5 PUSH2 0x110B JUMP JUMPDEST POP POP POP JUMP JUMPDEST JUMPDEST DUP2 DUP2 LT ISZERO PUSH2 0x116C JUMPI PUSH2 0x1161 PUSH1 0x0 DUP3 PUSH2 0x1135 JUMP JUMPDEST PUSH1 0x1 DUP2 ADD SWAP1 POP PUSH2 0x114E JUMP JUMPDEST POP POP JUMP JUMPDEST PUSH1 0x1F DUP3 GT ISZERO PUSH2 0x11B1 JUMPI PUSH2 0x1182 DUP2 PUSH2 0x1051 JUMP JUMPDEST PUSH2 0x118B DUP5 PUSH2 0x1066 JUMP JUMPDEST DUP2 ADD PUSH1 0x20 DUP6 LT ISZERO PUSH2 0x119A JUMPI DUP2 SWAP1 POP JUMPDEST PUSH2 0x11AE PUSH2 0x11A6 DUP6 PUSH2 0x1066 JUMP JUMPDEST DUP4 ADD DUP3 PUSH2 0x114D JUMP JUMPDEST POP POP JUMPDEST POP POP POP JUMP JUMPDEST PUSH1 0x0 DUP3 DUP3 SHR SWAP1 POP SWAP3 SWAP2 POP POP JUMP JUMPDEST PUSH1 0x0 PUSH2 0x11D4 PUSH1 0x0 NOT DUP5 PUSH1 0x8 MUL PUSH2 0x11B6 JUMP JUMPDEST NOT DUP1 DUP4 AND SWAP2 POP POP SWAP3 SWAP2 POP POP JUMP JUMPDEST PUSH1 0x0 PUSH2 0x11ED DUP4 DUP4 PUSH2 0x11C3 JUMP JUMPDEST SWAP2 POP DUP3 PUSH1 0x2 MUL DUP3 OR SWAP1 POP SWAP3 SWAP2 POP POP JUMP JUMPDEST PUSH2 0x1206 DUP3 PUSH2 0xBB5 JUMP JUMPDEST PUSH8 0xFFFFFFFFFFFFFFFF DUP2 GT ISZERO PUSH2 0x121F JUMPI PUSH2 0x121E PUSH2 0xCE9 JUMP JUMPDEST JUMPDEST PUSH2 0x1229 DUP3 SLOAD PUSH2 0xFD8 JUMP JUMPDEST PUSH2 0x1234 DUP3 DUP3 DUP6 PUSH2 0x1170 JUMP JUMPDEST PUSH1 0x0 PUSH1 0x20 SWAP1 POP PUSH1 0x1F DUP4 GT PUSH1 0x1 DUP2 EQ PUSH2 0x1267 JUMPI PUSH1 0x0 DUP5 ISZERO PUSH2 0x1255 JUMPI DUP3 DUP8 ADD MLOAD SWAP1 POP JUMPDEST PUSH2 0x125F DUP6 DUP3 PUSH2 0x11E1 JUMP JUMPDEST DUP7 SSTORE POP PUSH2 0x12C7 JUMP JUMPDEST PUSH1 0x1F NOT DUP5 AND PUSH2 0x1275 DUP7 PUSH2 0x1051 JUMP JUMPDEST PUSH1 0x0 JUMPDEST DUP3 DUP2 LT ISZERO PUSH2 0x129D JUMPI DUP5 DUP10 ADD MLOAD DUP3 SSTORE PUSH1 0x1 DUP3 ADD SWAP2 POP PUSH1 0x20 DUP6 ADD SWAP5 POP PUSH1 0x20 DUP2 ADD SWAP1 POP PUSH2 0x1278 JUMP JUMPDEST DUP7 DUP4 LT ISZERO PUSH2 0x12BA JUMPI DUP5 DUP10 ADD MLOAD PUSH2 0x12B6 PUSH1 0x1F DUP10 AND DUP3 PUSH2 0x11C3 JUMP JUMPDEST DUP4 SSTORE POP JUMPDEST PUSH1 0x1 PUSH1 0x2 DUP9 MUL ADD DUP9 SSTORE POP POP POP JUMPDEST POP POP POP POP POP POP JUMP INVALID LOG2 PUSH5 0x6970667358 0x22 SLT KECCAK256 GAS 0xEA SWAP4 JUMPDEST BALANCE 0xE SWAP8 PUSH5 0x2E38023E1E LOG3 0xF PUSH16 0xF2BADEB07D2D3D7680B3852662149165 PUSH5 0x736F6C6343 STOP ADDMOD SGT STOP CALLER "},"gasEstimates":{"creation":{"codeDepositCost":"973800","executionCost":"infinite","totalCost":"infinite"},"external":{"approveRequest(uint256)":"infinite","approvers(address)":"2868","approversCount()":"2451","contribute()":"51021","createRequest(string,string,string,string)":"infinite","finalizeRequest(uint256)":"infinite","getRequestsCount()":"2490","getSummary()":"infinite","manager()":"2603","minimumContribution()":"2473","requests(uint256)":"infinite"}},"methodIdentifiers":{"approveRequest(uint256)":"d7d1bbdb","approvers(address)":"0a144391","approversCount()":"82fde093","contribute()":"d7bb99ba","createRequest(string,string,string,string)":"e600791c","finalizeRequest(uint256)":"03441006","getRequestsCount()":"3410452a","getSummary()":"4051ddac","manager()":"481c6a75","minimumContribution()":"937e09b1","requests(uint256)":"81d12c58"}},"storageLayout":{"storage":[{"astId":67,"contract":"Campaign.sol:Campaign","label":"requests","offset":0,"slot":"0","type":"t_array(t_struct(Request)63_storage)dyn_storage"},{"astId":69,"contract":"Campaign.sol:Campaign","label":"manager","offset":0,"slot":"1","type":"t_address"},{"astId":71,"contract":"Campaign.sol:Campaign","label":"minimumContribution","offset":0,"slot":"2","type":"t_uint256"},{"astId":75,"contract":"Campaign.sol:Campaign","label":"approvers","offset":0,"slot":"3","type":"t_mapping(t_address,t_bool)"},{"astId":77,"contract":"Campaign.sol:Campaign","label":"approversCount","offset":0,"slot":"4","type":"t_uint256"}],"types":{"t_address":{"encoding":"inplace","label":"address","numberOfBytes":"20"},"t_array(t_struct(Request)63_storage)dyn_storage":{"base":"t_struct(Request)63_storage","encoding":"dynamic_array","label":"struct Campaign.Request[]","numberOfBytes":"32"},"t_bool":{"encoding":"inplace","label":"bool","numberOfBytes":"1"},"t_mapping(t_address,t_bool)":{"encoding":"mapping","key":"t_address","label":"mapping(address => bool)","numberOfBytes":"32","value":"t_bool"},"t_string_storage":{"encoding":"bytes","label":"string","numberOfBytes":"32"},"t_struct(Request)63_storage":{"encoding":"inplace","label":"struct Campaign.Request","members":[{"astId":44,"contract":"Campaign.sol:Campaign","label":"orderId","offset":0,"slot":"0","type":"t_string_storage"},{"astId":46,"contract":"Campaign.sol:Campaign","label":"inspectedby","offset":0,"slot":"1","type":"t_string_storage"},{"astId":48,"contract":"Campaign.sol:Campaign","label":"approvedby","offset":0,"slot":"2","type":"t_string_storage"},{"astId":50,"contract":"Campaign.sol:Campaign","label":"value","offset":0,"slot":"3","type":"t_uint256"},{"astId":52,"contract":"Campaign.sol:Campaign","label":"selectedFile","offset":0,"slot":"4","type":"t_string_storage"},{"astId":54,"contract":"Campaign.sol:Campaign","label":"recipient","offset":0,"slot":"5","type":"t_address"},{"astId":56,"contract":"Campaign.sol:Campaign","label":"complete","offset":20,"slot":"5","type":"t_bool"},{"astId":58,"contract":"Campaign.sol:Campaign","label":"approvalCount","offset":0,"slot":"6","type":"t_uint256"},{"astId":62,"contract":"Campaign.sol:Campaign","label":"approvals","offset":0,"slot":"7","type":"t_mapping(t_address,t_bool)"}],"numberOfBytes":"256"},"t_uint256":{"encoding":"inplace","label":"uint256","numberOfBytes":"32"}}},"userdoc":{"kind":"user","methods":{},"version":1}}