{"abi":[{"inputs":[{"internalType":"uint256","name":"minimum","type":"uint256"},{"internalType":"address","name":"creator","type":"address"}],"stateMutability":"nonpayable","type":"constructor"},{"inputs":[{"internalType":"uint256","name":"index","type":"uint256"}],"name":"approveRequest","outputs":[],"stateMutability":"nonpayable","type":"function"},{"inputs":[{"internalType":"address","name":"","type":"address"}],"name":"approvers","outputs":[{"internalType":"bool","name":"","type":"bool"}],"stateMutability":"view","type":"function"},{"inputs":[],"name":"approversCount","outputs":[{"internalType":"uint256","name":"","type":"uint256"}],"stateMutability":"view","type":"function"},{"inputs":[],"name":"contribute","outputs":[],"stateMutability":"payable","type":"function"},{"inputs":[{"internalType":"string","name":"orderId","type":"string"},{"internalType":"string","name":"inspectedby","type":"string"},{"internalType":"string","name":"approvedby","type":"string"},{"internalType":"uint256","name":"value","type":"uint256"},{"internalType":"string","name":"selectedFile","type":"string"},{"internalType":"address","name":"recipient","type":"address"}],"name":"createRequest","outputs":[],"stateMutability":"nonpayable","type":"function"},{"inputs":[{"internalType":"uint256","name":"index","type":"uint256"}],"name":"finalizeRequest","outputs":[],"stateMutability":"nonpayable","type":"function"},{"inputs":[],"name":"getRequestsCount","outputs":[{"internalType":"uint256","name":"","type":"uint256"}],"stateMutability":"view","type":"function"},{"inputs":[],"name":"getSummary","outputs":[{"internalType":"uint256","name":"","type":"uint256"},{"internalType":"uint256","name":"","type":"uint256"},{"internalType":"uint256","name":"","type":"uint256"},{"internalType":"uint256","name":"","type":"uint256"},{"internalType":"address","name":"","type":"address"}],"stateMutability":"view","type":"function"},{"inputs":[],"name":"manager","outputs":[{"internalType":"address","name":"","type":"address"}],"stateMutability":"view","type":"function"},{"inputs":[],"name":"minimumContribution","outputs":[{"internalType":"uint256","name":"","type":"uint256"}],"stateMutability":"view","type":"function"},{"inputs":[{"internalType":"uint256","name":"","type":"uint256"}],"name":"requests","outputs":[{"internalType":"string","name":"orderId","type":"string"},{"internalType":"string","name":"inspectedby","type":"string"},{"internalType":"string","name":"approvedby","type":"string"},{"internalType":"uint256","name":"value","type":"uint256"},{"internalType":"string","name":"selectedFile","type":"string"},{"internalType":"address","name":"recipient","type":"address"},{"internalType":"bool","name":"complete","type":"bool"},{"internalType":"uint256","name":"approvalCount","type":"uint256"}],"stateMutability":"view","type":"function"}],"devdoc":{"kind":"dev","methods":{},"version":1},"evm":{"assembly":"    /* \"Campaign.sol\":465:2926  contract Campaign {... */\n  mstore(0x40, 0x80)\n    /* \"Campaign.sol\":1053:1173  constructor (uint minimum, address creator) {... */\n  callvalue\n  dup1\n  iszero\n  tag_1\n  jumpi\n  0x00\n  dup1\n  revert\ntag_1:\n  pop\n  mload(0x40)\n  sub(codesize, bytecodeSize)\n  dup1\n  bytecodeSize\n  dup4\n  codecopy\n  dup2\n  dup2\n  add\n  0x40\n  mstore\n  dup2\n  add\n  swap1\n  tag_2\n  swap2\n  swap1\n  tag_3\n  jump\t// in\ntag_2:\n    /* \"Campaign.sol\":1118:1125  creator */\n  dup1\n    /* \"Campaign.sol\":1108:1115  manager */\n  0x01\n  0x00\n    /* \"Campaign.sol\":1108:1125  manager = creator */\n  0x0100\n  exp\n  dup2\n  sload\n  dup2\n  0xffffffffffffffffffffffffffffffffffffffff\n  mul\n  not\n  and\n  swap1\n  dup4\n  0xffffffffffffffffffffffffffffffffffffffff\n  and\n  mul\n  or\n  swap1\n  sstore\n  pop\n    /* \"Campaign.sol\":1158:1165  minimum */\n  dup2\n    /* \"Campaign.sol\":1136:1155  minimumContribution */\n  0x02\n    /* \"Campaign.sol\":1136:1165  minimumContribution = minimum */\n  dup2\n  swap1\n  sstore\n  pop\n    /* \"Campaign.sol\":1053:1173  constructor (uint minimum, address creator) {... */\n  pop\n  pop\n    /* \"Campaign.sol\":465:2926  contract Campaign {... */\n  jump(tag_6)\n    /* \"#utility.yul\":88:205   */\ntag_8:\n    /* \"#utility.yul\":197:198   */\n  0x00\n    /* \"#utility.yul\":194:195   */\n  dup1\n    /* \"#utility.yul\":187:199   */\n  revert\n    /* \"#utility.yul\":334:411   */\ntag_10:\n    /* \"#utility.yul\":371:378   */\n  0x00\n    /* \"#utility.yul\":400:405   */\n  dup2\n    /* \"#utility.yul\":389:405   */\n  swap1\n  pop\n    /* \"#utility.yul\":334:411   */\n  swap2\n  swap1\n  pop\n  jump\t// out\n    /* \"#utility.yul\":417:539   */\ntag_11:\n    /* \"#utility.yul\":490:514   */\n  tag_23\n    /* \"#utility.yul\":508:513   */\n  dup2\n    /* \"#utility.yul\":490:514   */\n  tag_10\n  jump\t// in\ntag_23:\n    /* \"#utility.yul\":483:488   */\n  dup2\n    /* \"#utility.yul\":480:515   */\n  eq\n    /* \"#utility.yul\":470:533   */\n  tag_24\n  jumpi\n    /* \"#utility.yul\":529:530   */\n  0x00\n    /* \"#utility.yul\":526:527   */\n  dup1\n    /* \"#utility.yul\":519:531   */\n  revert\n    /* \"#utility.yul\":470:533   */\ntag_24:\n    /* \"#utility.yul\":417:539   */\n  pop\n  jump\t// out\n    /* \"#utility.yul\":545:688   */\ntag_12:\n    /* \"#utility.yul\":602:607   */\n  0x00\n    /* \"#utility.yul\":633:639   */\n  dup2\n    /* \"#utility.yul\":627:640   */\n  mload\n    /* \"#utility.yul\":618:640   */\n  swap1\n  pop\n    /* \"#utility.yul\":649:682   */\n  tag_26\n    /* \"#utility.yul\":676:681   */\n  dup2\n    /* \"#utility.yul\":649:682   */\n  tag_11\n  jump\t// in\ntag_26:\n    /* \"#utility.yul\":545:688   */\n  swap3\n  swap2\n  pop\n  pop\n  jump\t// out\n    /* \"#utility.yul\":694:820   */\ntag_13:\n    /* \"#utility.yul\":731:738   */\n  0x00\n    /* \"#utility.yul\":771:813   */\n  0xffffffffffffffffffffffffffffffffffffffff\n    /* \"#utility.yul\":764:769   */\n  dup3\n    /* \"#utility.yul\":760:814   */\n  and\n    /* \"#utility.yul\":749:814   */\n  swap1\n  pop\n    /* \"#utility.yul\":694:820   */\n  swap2\n  swap1\n  pop\n  jump\t// out\n    /* \"#utility.yul\":826:922   */\ntag_14:\n    /* \"#utility.yul\":863:870   */\n  0x00\n    /* \"#utility.yul\":892:916   */\n  tag_29\n    /* \"#utility.yul\":910:915   */\n  dup3\n    /* \"#utility.yul\":892:916   */\n  tag_13\n  jump\t// in\ntag_29:\n    /* \"#utility.yul\":881:916   */\n  swap1\n  pop\n    /* \"#utility.yul\":826:922   */\n  swap2\n  swap1\n  pop\n  jump\t// out\n    /* \"#utility.yul\":928:1050   */\ntag_15:\n    /* \"#utility.yul\":1001:1025   */\n  tag_31\n    /* \"#utility.yul\":1019:1024   */\n  dup2\n    /* \"#utility.yul\":1001:1025   */\n  tag_14\n  jump\t// in\ntag_31:\n    /* \"#utility.yul\":994:999   */\n  dup2\n    /* \"#utility.yul\":991:1026   */\n  eq\n    /* \"#utility.yul\":981:1044   */\n  tag_32\n  jumpi\n    /* \"#utility.yul\":1040:1041   */\n  0x00\n    /* \"#utility.yul\":1037:1038   */\n  dup1\n    /* \"#utility.yul\":1030:1042   */\n  revert\n    /* \"#utility.yul\":981:1044   */\ntag_32:\n    /* \"#utility.yul\":928:1050   */\n  pop\n  jump\t// out\n    /* \"#utility.yul\":1056:1199   */\ntag_16:\n    /* \"#utility.yul\":1113:1118   */\n  0x00\n    /* \"#utility.yul\":1144:1150   */\n  dup2\n    /* \"#utility.yul\":1138:1151   */\n  mload\n    /* \"#utility.yul\":1129:1151   */\n  swap1\n  pop\n    /* \"#utility.yul\":1160:1193   */\n  tag_34\n    /* \"#utility.yul\":1187:1192   */\n  dup2\n    /* \"#utility.yul\":1160:1193   */\n  tag_15\n  jump\t// in\ntag_34:\n    /* \"#utility.yul\":1056:1199   */\n  swap3\n  swap2\n  pop\n  pop\n  jump\t// out\n    /* \"#utility.yul\":1205:1712   */\ntag_3:\n    /* \"#utility.yul\":1284:1290   */\n  0x00\n    /* \"#utility.yul\":1292:1298   */\n  dup1\n    /* \"#utility.yul\":1341:1343   */\n  0x40\n    /* \"#utility.yul\":1329:1338   */\n  dup4\n    /* \"#utility.yul\":1320:1327   */\n  dup6\n    /* \"#utility.yul\":1316:1339   */\n  sub\n    /* \"#utility.yul\":1312:1344   */\n  slt\n    /* \"#utility.yul\":1309:1428   */\n  iszero\n  tag_36\n  jumpi\n    /* \"#utility.yul\":1347:1426   */\n  tag_37\n  tag_8\n  jump\t// in\ntag_37:\n    /* \"#utility.yul\":1309:1428   */\ntag_36:\n    /* \"#utility.yul\":1467:1468   */\n  0x00\n    /* \"#utility.yul\":1492:1556   */\n  tag_38\n    /* \"#utility.yul\":1548:1555   */\n  dup6\n    /* \"#utility.yul\":1539:1545   */\n  dup3\n    /* \"#utility.yul\":1528:1537   */\n  dup7\n    /* \"#utility.yul\":1524:1546   */\n  add\n    /* \"#utility.yul\":1492:1556   */\n  tag_12\n  jump\t// in\ntag_38:\n    /* \"#utility.yul\":1482:1556   */\n  swap3\n  pop\n    /* \"#utility.yul\":1438:1566   */\n  pop\n    /* \"#utility.yul\":1605:1607   */\n  0x20\n    /* \"#utility.yul\":1631:1695   */\n  tag_39\n    /* \"#utility.yul\":1687:1694   */\n  dup6\n    /* \"#utility.yul\":1678:1684   */\n  dup3\n    /* \"#utility.yul\":1667:1676   */\n  dup7\n    /* \"#utility.yul\":1663:1685   */\n  add\n    /* \"#utility.yul\":1631:1695   */\n  tag_16\n  jump\t// in\ntag_39:\n    /* \"#utility.yul\":1621:1695   */\n  swap2\n  pop\n    /* \"#utility.yul\":1576:1705   */\n  pop\n    /* \"#utility.yul\":1205:1712   */\n  swap3\n  pop\n  swap3\n  swap1\n  pop\n  jump\t// out\n    /* \"Campaign.sol\":465:2926  contract Campaign {... */\ntag_6:\n  dataSize(sub_0)\n  dup1\n  dataOffset(sub_0)\n  0x00\n  codecopy\n  0x00\n  return\nstop\n\nsub_0: assembly {\n        /* \"Campaign.sol\":465:2926  contract Campaign {... */\n      mstore(0x40, 0x80)\n      jumpi(tag_1, lt(calldatasize, 0x04))\n      shr(0xe0, calldataload(0x00))\n      dup1\n      0x5b1410b5\n      gt\n      tag_13\n      jumpi\n      dup1\n      0x5b1410b5\n      eq\n      tag_7\n      jumpi\n      dup1\n      0x81d12c58\n      eq\n      tag_8\n      jumpi\n      dup1\n      0x82fde093\n      eq\n      tag_9\n      jumpi\n      dup1\n      0x937e09b1\n      eq\n      tag_10\n      jumpi\n      dup1\n      0xd7bb99ba\n      eq\n      tag_11\n      jumpi\n      dup1\n      0xd7d1bbdb\n      eq\n      tag_12\n      jumpi\n      jump(tag_1)\n    tag_13:\n      dup1\n      0x03441006\n      eq\n      tag_2\n      jumpi\n      dup1\n      0x0a144391\n      eq\n      tag_3\n      jumpi\n      dup1\n      0x3410452a\n      eq\n      tag_4\n      jumpi\n      dup1\n      0x4051ddac\n      eq\n      tag_5\n      jumpi\n      dup1\n      0x481c6a75\n      eq\n      tag_6\n      jumpi\n    tag_1:\n      0x00\n      dup1\n      revert\n        /* \"Campaign.sol\":2218:2533  function finalizeRequest(uint index) public restricted {... */\n    tag_2:\n      callvalue\n      dup1\n      iszero\n      tag_14\n      jumpi\n      0x00\n      dup1\n      revert\n    tag_14:\n      pop\n      tag_15\n      0x04\n      dup1\n      calldatasize\n      sub\n      dup2\n      add\n      swap1\n      tag_16\n      swap2\n      swap1\n      tag_17\n      jump\t// in\n    tag_16:\n      tag_18\n      jump\t// in\n    tag_15:\n      stop\n        /* \"Campaign.sol\":879:920  mapping(address => bool) public approvers */\n    tag_3:\n      callvalue\n      dup1\n      iszero\n      tag_19\n      jumpi\n      0x00\n      dup1\n      revert\n    tag_19:\n      pop\n      tag_20\n      0x04\n      dup1\n      calldatasize\n      sub\n      dup2\n      add\n      swap1\n      tag_21\n      swap2\n      swap1\n      tag_22\n      jump\t// in\n    tag_21:\n      tag_23\n      jump\t// in\n    tag_20:\n      mload(0x40)\n      tag_24\n      swap2\n      swap1\n      tag_25\n      jump\t// in\n    tag_24:\n      mload(0x40)\n      dup1\n      swap2\n      sub\n      swap1\n      return\n        /* \"Campaign.sol\":2827:2923  function getRequestsCount() public view returns (uint) {... */\n    tag_4:\n      callvalue\n      dup1\n      iszero\n      tag_26\n      jumpi\n      0x00\n      dup1\n      revert\n    tag_26:\n      pop\n      tag_27\n      tag_28\n      jump\t// in\n    tag_27:\n      mload(0x40)\n      tag_29\n      swap2\n      swap1\n      tag_30\n      jump\t// in\n    tag_29:\n      mload(0x40)\n      dup1\n      swap2\n      sub\n      swap1\n      return\n        /* \"Campaign.sol\":2545:2815  function getSummary() public view returns (... */\n    tag_5:\n      callvalue\n      dup1\n      iszero\n      tag_31\n      jumpi\n      0x00\n      dup1\n      revert\n    tag_31:\n      pop\n      tag_32\n      tag_33\n      jump\t// in\n    tag_32:\n      mload(0x40)\n      tag_34\n      swap6\n      swap5\n      swap4\n      swap3\n      swap2\n      swap1\n      tag_35\n      jump\t// in\n    tag_34:\n      mload(0x40)\n      dup1\n      swap2\n      sub\n      swap1\n      return\n        /* \"Campaign.sol\":812:834  address public manager */\n    tag_6:\n      callvalue\n      dup1\n      iszero\n      tag_36\n      jumpi\n      0x00\n      dup1\n      revert\n    tag_36:\n      pop\n      tag_37\n      tag_38\n      jump\t// in\n    tag_37:\n      mload(0x40)\n      tag_39\n      swap2\n      swap1\n      tag_40\n      jump\t// in\n    tag_39:\n      mload(0x40)\n      dup1\n      swap2\n      sub\n      swap1\n      return\n        /* \"Campaign.sol\":1353:1923  function createRequest(string memory orderId, string memory inspectedby,string memory approvedby, uint value,string memory selectedFile ,address recipient) public restricted {... */\n    tag_7:\n      callvalue\n      dup1\n      iszero\n      tag_41\n      jumpi\n      0x00\n      dup1\n      revert\n    tag_41:\n      pop\n      tag_42\n      0x04\n      dup1\n      calldatasize\n      sub\n      dup2\n      add\n      swap1\n      tag_43\n      swap2\n      swap1\n      tag_44\n      jump\t// in\n    tag_43:\n      tag_45\n      jump\t// in\n    tag_42:\n      stop\n        /* \"Campaign.sol\":780:805  Request[] public requests */\n    tag_8:\n      callvalue\n      dup1\n      iszero\n      tag_46\n      jumpi\n      0x00\n      dup1\n      revert\n    tag_46:\n      pop\n      tag_47\n      0x04\n      dup1\n      calldatasize\n      sub\n      dup2\n      add\n      swap1\n      tag_48\n      swap2\n      swap1\n      tag_17\n      jump\t// in\n    tag_48:\n      tag_49\n      jump\t// in\n    tag_47:\n      mload(0x40)\n      tag_50\n      swap9\n      swap8\n      swap7\n      swap6\n      swap5\n      swap4\n      swap3\n      swap2\n      swap1\n      tag_51\n      jump\t// in\n    tag_50:\n      mload(0x40)\n      dup1\n      swap2\n      sub\n      swap1\n      return\n        /* \"Campaign.sol\":927:953  uint public approversCount */\n    tag_9:\n      callvalue\n      dup1\n      iszero\n      tag_52\n      jumpi\n      0x00\n      dup1\n      revert\n    tag_52:\n      pop\n      tag_53\n      tag_54\n      jump\t// in\n    tag_53:\n      mload(0x40)\n      tag_55\n      swap2\n      swap1\n      tag_30\n      jump\t// in\n    tag_55:\n      mload(0x40)\n      dup1\n      swap2\n      sub\n      swap1\n      return\n        /* \"Campaign.sol\":841:872  uint public minimumContribution */\n    tag_10:\n      callvalue\n      dup1\n      iszero\n      tag_56\n      jumpi\n      0x00\n      dup1\n      revert\n    tag_56:\n      pop\n      tag_57\n      tag_58\n      jump\t// in\n    tag_57:\n      mload(0x40)\n      tag_59\n      swap2\n      swap1\n      tag_30\n      jump\t// in\n    tag_59:\n      mload(0x40)\n      dup1\n      swap2\n      sub\n      swap1\n      return\n        /* \"Campaign.sol\":1181:1345  function contribute() public payable {... */\n    tag_11:\n      tag_60\n      tag_61\n      jump\t// in\n    tag_60:\n      stop\n        /* \"Campaign.sol\":1931:2210  function approveRequest(uint index) public {... */\n    tag_12:\n      callvalue\n      dup1\n      iszero\n      tag_62\n      jumpi\n      0x00\n      dup1\n      revert\n    tag_62:\n      pop\n      tag_63\n      0x04\n      dup1\n      calldatasize\n      sub\n      dup2\n      add\n      swap1\n      tag_64\n      swap2\n      swap1\n      tag_17\n      jump\t// in\n    tag_64:\n      tag_65\n      jump\t// in\n    tag_63:\n      stop\n        /* \"Campaign.sol\":2218:2533  function finalizeRequest(uint index) public restricted {... */\n    tag_18:\n        /* \"Campaign.sol\":1017:1024  manager */\n      0x01\n      0x00\n      swap1\n      sload\n      swap1\n      0x0100\n      exp\n      swap1\n      div\n      0xffffffffffffffffffffffffffffffffffffffff\n      and\n        /* \"Campaign.sol\":1003:1024  msg.sender == manager */\n      0xffffffffffffffffffffffffffffffffffffffff\n      and\n        /* \"Campaign.sol\":1003:1013  msg.sender */\n      caller\n        /* \"Campaign.sol\":1003:1024  msg.sender == manager */\n      0xffffffffffffffffffffffffffffffffffffffff\n      and\n      eq\n        /* \"Campaign.sol\":995:1025  require(msg.sender == manager) */\n      tag_67\n      jumpi\n      0x00\n      dup1\n      revert\n    tag_67:\n        /* \"Campaign.sol\":2284:2307  Request storage request */\n      0x00\n        /* \"Campaign.sol\":2310:2318  requests */\n      dup1\n        /* \"Campaign.sol\":2319:2324  index */\n      dup3\n        /* \"Campaign.sol\":2310:2325  requests[index] */\n      dup2\n      sload\n      dup2\n      lt\n      tag_69\n      jumpi\n      tag_70\n      tag_71\n      jump\t// in\n    tag_70:\n    tag_69:\n      swap1\n      0x00\n      mstore\n      keccak256(0x00, 0x20)\n      swap1\n      0x08\n      mul\n      add\n        /* \"Campaign.sol\":2284:2325  Request storage request = requests[index] */\n      swap1\n      pop\n        /* \"Campaign.sol\":2388:2389  2 */\n      0x02\n        /* \"Campaign.sol\":2371:2385  approversCount */\n      sload(0x04)\n        /* \"Campaign.sol\":2371:2389  approversCount / 2 */\n      tag_73\n      swap2\n      swap1\n      tag_74\n      jump\t// in\n    tag_73:\n        /* \"Campaign.sol\":2346:2353  request */\n      dup2\n        /* \"Campaign.sol\":2346:2367  request.approvalCount */\n      0x06\n      add\n      sload\n        /* \"Campaign.sol\":2346:2390  request.approvalCount > (approversCount / 2) */\n      gt\n        /* \"Campaign.sol\":2338:2391  require(request.approvalCount > (approversCount / 2)) */\n      tag_75\n      jumpi\n      0x00\n      dup1\n      revert\n    tag_75:\n        /* \"Campaign.sol\":2411:2418  request */\n      dup1\n        /* \"Campaign.sol\":2411:2427  request.complete */\n      0x05\n      add\n      0x14\n      swap1\n      sload\n      swap1\n      0x0100\n      exp\n      swap1\n      div\n      0xff\n      and\n        /* \"Campaign.sol\":2410:2427  !request.complete */\n      iszero\n        /* \"Campaign.sol\":2402:2428  require(!request.complete) */\n      tag_76\n      jumpi\n      0x00\n      dup1\n      revert\n    tag_76:\n        /* \"Campaign.sol\":2449:2456  request */\n      dup1\n        /* \"Campaign.sol\":2449:2466  request.recipient */\n      0x05\n      add\n      0x00\n      swap1\n      sload\n      swap1\n      0x0100\n      exp\n      swap1\n      div\n      0xffffffffffffffffffffffffffffffffffffffff\n      and\n        /* \"Campaign.sol\":2441:2476  payable(request.recipient).transfer */\n      0xffffffffffffffffffffffffffffffffffffffff\n      and\n        /* \"Campaign.sol\":2441:2491  payable(request.recipient).transfer(request.value) */\n      0x08fc\n        /* \"Campaign.sol\":2477:2484  request */\n      dup3\n        /* \"Campaign.sol\":2477:2490  request.value */\n      0x03\n      add\n      sload\n        /* \"Campaign.sol\":2441:2491  payable(request.recipient).transfer(request.value) */\n      swap1\n      dup2\n      iszero\n      mul\n      swap1\n      mload(0x40)\n      0x00\n      mload(0x40)\n      dup1\n      dup4\n      sub\n      dup2\n      dup6\n      dup9\n      dup9\n      call\n      swap4\n      pop\n      pop\n      pop\n      pop\n      iszero\n      dup1\n      iszero\n      tag_78\n      jumpi\n      returndatasize\n      0x00\n      dup1\n      returndatacopy\n      revert(0x00, returndatasize)\n    tag_78:\n      pop\n        /* \"Campaign.sol\":2521:2525  true */\n      0x01\n        /* \"Campaign.sol\":2502:2509  request */\n      dup2\n        /* \"Campaign.sol\":2502:2518  request.complete */\n      0x05\n      add\n      0x14\n        /* \"Campaign.sol\":2502:2525  request.complete = true */\n      0x0100\n      exp\n      dup2\n      sload\n      dup2\n      0xff\n      mul\n      not\n      and\n      swap1\n      dup4\n      iszero\n      iszero\n      mul\n      or\n      swap1\n      sstore\n      pop\n        /* \"Campaign.sol\":2273:2533  {... */\n      pop\n        /* \"Campaign.sol\":2218:2533  function finalizeRequest(uint index) public restricted {... */\n      pop\n      jump\t// out\n        /* \"Campaign.sol\":879:920  mapping(address => bool) public approvers */\n    tag_23:\n      mstore(0x20, 0x03)\n      dup1\n      0x00\n      mstore\n      keccak256(0x00, 0x40)\n      0x00\n      swap2\n      pop\n      sload\n      swap1\n      0x0100\n      exp\n      swap1\n      div\n      0xff\n      and\n      dup2\n      jump\t// out\n        /* \"Campaign.sol\":2827:2923  function getRequestsCount() public view returns (uint) {... */\n    tag_28:\n        /* \"Campaign.sol\":2876:2880  uint */\n      0x00\n        /* \"Campaign.sol\":2900:2908  requests */\n      dup1\n        /* \"Campaign.sol\":2900:2915  requests.length */\n      dup1\n      sload\n      swap1\n      pop\n        /* \"Campaign.sol\":2893:2915  return requests.length */\n      swap1\n      pop\n        /* \"Campaign.sol\":2827:2923  function getRequestsCount() public view returns (uint) {... */\n      swap1\n      jump\t// out\n        /* \"Campaign.sol\":2545:2815  function getSummary() public view returns (... */\n    tag_33:\n        /* \"Campaign.sol\":2596:2600  uint */\n      0x00\n        /* \"Campaign.sol\":2602:2606  uint */\n      dup1\n        /* \"Campaign.sol\":2608:2612  uint */\n      0x00\n        /* \"Campaign.sol\":2614:2618  uint */\n      dup1\n        /* \"Campaign.sol\":2620:2627  address */\n      0x00\n        /* \"Campaign.sol\":2668:2687  minimumContribution */\n      sload(0x02)\n        /* \"Campaign.sol\":2700:2721  address(this).balance */\n      selfbalance\n        /* \"Campaign.sol\":2734:2742  requests */\n      0x00\n        /* \"Campaign.sol\":2734:2749  requests.length */\n      dup1\n      sload\n      swap1\n      pop\n        /* \"Campaign.sol\":2762:2776  approversCount */\n      sload(0x04)\n        /* \"Campaign.sol\":2789:2796  manager */\n      0x01\n      0x00\n      swap1\n      sload\n      swap1\n      0x0100\n      exp\n      swap1\n      div\n      0xffffffffffffffffffffffffffffffffffffffff\n      and\n        /* \"Campaign.sol\":2648:2807  return (... */\n      swap5\n      pop\n      swap5\n      pop\n      swap5\n      pop\n      swap5\n      pop\n      swap5\n      pop\n        /* \"Campaign.sol\":2545:2815  function getSummary() public view returns (... */\n      swap1\n      swap2\n      swap3\n      swap4\n      swap5\n      jump\t// out\n        /* \"Campaign.sol\":812:834  address public manager */\n    tag_38:\n      0x01\n      0x00\n      swap1\n      sload\n      swap1\n      0x0100\n      exp\n      swap1\n      div\n      0xffffffffffffffffffffffffffffffffffffffff\n      and\n      dup2\n      jump\t// out\n        /* \"Campaign.sol\":1353:1923  function createRequest(string memory orderId, string memory inspectedby,string memory approvedby, uint value,string memory selectedFile ,address recipient) public restricted {... */\n    tag_45:\n        /* \"Campaign.sol\":1017:1024  manager */\n      0x01\n      0x00\n      swap1\n      sload\n      swap1\n      0x0100\n      exp\n      swap1\n      div\n      0xffffffffffffffffffffffffffffffffffffffff\n      and\n        /* \"Campaign.sol\":1003:1024  msg.sender == manager */\n      0xffffffffffffffffffffffffffffffffffffffff\n      and\n        /* \"Campaign.sol\":1003:1013  msg.sender */\n      caller\n        /* \"Campaign.sol\":1003:1024  msg.sender == manager */\n      0xffffffffffffffffffffffffffffffffffffffff\n      and\n      eq\n        /* \"Campaign.sol\":995:1025  require(msg.sender == manager) */\n      tag_82\n      jumpi\n      0x00\n      dup1\n      revert\n    tag_82:\n        /* \"Campaign.sol\":1538:1564  Request storage newRequest */\n      0x00\n        /* \"Campaign.sol\":1567:1575  requests */\n      dup1\n        /* \"Campaign.sol\":1567:1582  requests.push() */\n      0x01\n      dup2\n      0x01\n      dup2\n      sload\n      add\n      dup1\n      dup3\n      sstore\n      dup1\n      swap2\n      pop\n      pop\n      sub\n      swap1\n      0x00\n      mstore\n      keccak256(0x00, 0x20)\n      swap1\n      0x08\n      mul\n      add\n        /* \"Campaign.sol\":1538:1582  Request storage newRequest = requests.push() */\n      swap1\n      pop\n        /* \"Campaign.sol\":1615:1622  orderId */\n      dup7\n        /* \"Campaign.sol\":1594:1604  newRequest */\n      dup2\n        /* \"Campaign.sol\":1594:1612  newRequest.orderId */\n      0x00\n      add\n        /* \"Campaign.sol\":1594:1622  newRequest.orderId = orderId */\n      swap1\n      dup2\n      tag_85\n      swap2\n      swap1\n      tag_86\n      jump\t// in\n    tag_85:\n      pop\n        /* \"Campaign.sol\":1658:1669  inspectedby */\n      dup6\n        /* \"Campaign.sol\":1633:1643  newRequest */\n      dup2\n        /* \"Campaign.sol\":1633:1655  newRequest.inspectedby */\n      0x01\n      add\n        /* \"Campaign.sol\":1633:1669  newRequest.inspectedby = inspectedby */\n      swap1\n      dup2\n      tag_87\n      swap2\n      swap1\n      tag_86\n      jump\t// in\n    tag_87:\n      pop\n        /* \"Campaign.sol\":1704:1714  approvedby */\n      dup5\n        /* \"Campaign.sol\":1680:1690  newRequest */\n      dup2\n        /* \"Campaign.sol\":1680:1701  newRequest.approvedby */\n      0x02\n      add\n        /* \"Campaign.sol\":1680:1714  newRequest.approvedby = approvedby */\n      swap1\n      dup2\n      tag_88\n      swap2\n      swap1\n      tag_86\n      jump\t// in\n    tag_88:\n      pop\n        /* \"Campaign.sol\":1745:1750  value */\n      dup4\n        /* \"Campaign.sol\":1727:1737  newRequest */\n      dup2\n        /* \"Campaign.sol\":1727:1743  newRequest.value */\n      0x03\n      add\n        /* \"Campaign.sol\":1727:1750  newRequest.value= value */\n      dup2\n      swap1\n      sstore\n      pop\n        /* \"Campaign.sol\":1786:1798  selectedFile */\n      dup3\n        /* \"Campaign.sol\":1761:1771  newRequest */\n      dup2\n        /* \"Campaign.sol\":1761:1784  newRequest.selectedFile */\n      0x04\n      add\n        /* \"Campaign.sol\":1761:1798  newRequest.selectedFile= selectedFile */\n      swap1\n      dup2\n      tag_89\n      swap2\n      swap1\n      tag_86\n      jump\t// in\n    tag_89:\n      pop\n        /* \"Campaign.sol\":1831:1840  recipient */\n      dup2\n        /* \"Campaign.sol\":1809:1819  newRequest */\n      dup2\n        /* \"Campaign.sol\":1809:1829  newRequest.recipient */\n      0x05\n      add\n      0x00\n        /* \"Campaign.sol\":1809:1840  newRequest.recipient= recipient */\n      0x0100\n      exp\n      dup2\n      sload\n      dup2\n      0xffffffffffffffffffffffffffffffffffffffff\n      mul\n      not\n      and\n      swap1\n      dup4\n      0xffffffffffffffffffffffffffffffffffffffff\n      and\n      mul\n      or\n      swap1\n      sstore\n      pop\n        /* \"Campaign.sol\":1872:1877  false */\n      0x00\n        /* \"Campaign.sol\":1851:1861  newRequest */\n      dup2\n        /* \"Campaign.sol\":1851:1870  newRequest.complete */\n      0x05\n      add\n      0x14\n        /* \"Campaign.sol\":1851:1877  newRequest.complete= false */\n      0x0100\n      exp\n      dup2\n      sload\n      dup2\n      0xff\n      mul\n      not\n      and\n      swap1\n      dup4\n      iszero\n      iszero\n      mul\n      or\n      swap1\n      sstore\n      pop\n        /* \"Campaign.sol\":1914:1915  0 */\n      0x00\n        /* \"Campaign.sol\":1888:1898  newRequest */\n      dup2\n        /* \"Campaign.sol\":1888:1912  newRequest.approvalCount */\n      0x06\n      add\n        /* \"Campaign.sol\":1888:1915  newRequest.approvalCount= 0 */\n      dup2\n      swap1\n      sstore\n      pop\n        /* \"Campaign.sol\":1527:1923  {... */\n      pop\n        /* \"Campaign.sol\":1353:1923  function createRequest(string memory orderId, string memory inspectedby,string memory approvedby, uint value,string memory selectedFile ,address recipient) public restricted {... */\n      pop\n      pop\n      pop\n      pop\n      pop\n      pop\n      jump\t// out\n        /* \"Campaign.sol\":780:805  Request[] public requests */\n    tag_49:\n      0x00\n      dup2\n      dup2\n      sload\n      dup2\n      lt\n      tag_90\n      jumpi\n      0x00\n      dup1\n      revert\n    tag_90:\n      swap1\n      0x00\n      mstore\n      keccak256(0x00, 0x20)\n      swap1\n      0x08\n      mul\n      add\n      0x00\n      swap2\n      pop\n      swap1\n      pop\n      dup1\n      0x00\n      add\n      dup1\n      sload\n      tag_92\n      swap1\n      tag_93\n      jump\t// in\n    tag_92:\n      dup1\n      0x1f\n      add\n      0x20\n      dup1\n      swap2\n      div\n      mul\n      0x20\n      add\n      mload(0x40)\n      swap1\n      dup2\n      add\n      0x40\n      mstore\n      dup1\n      swap3\n      swap2\n      swap1\n      dup2\n      dup2\n      mstore\n      0x20\n      add\n      dup3\n      dup1\n      sload\n      tag_94\n      swap1\n      tag_93\n      jump\t// in\n    tag_94:\n      dup1\n      iszero\n      tag_95\n      jumpi\n      dup1\n      0x1f\n      lt\n      tag_96\n      jumpi\n      0x0100\n      dup1\n      dup4\n      sload\n      div\n      mul\n      dup4\n      mstore\n      swap2\n      0x20\n      add\n      swap2\n      jump(tag_95)\n    tag_96:\n      dup3\n      add\n      swap2\n      swap1\n      0x00\n      mstore\n      keccak256(0x00, 0x20)\n      swap1\n    tag_97:\n      dup2\n      sload\n      dup2\n      mstore\n      swap1\n      0x01\n      add\n      swap1\n      0x20\n      add\n      dup1\n      dup4\n      gt\n      tag_97\n      jumpi\n      dup3\n      swap1\n      sub\n      0x1f\n      and\n      dup3\n      add\n      swap2\n    tag_95:\n      pop\n      pop\n      pop\n      pop\n      pop\n      swap1\n      dup1\n      0x01\n      add\n      dup1\n      sload\n      tag_98\n      swap1\n      tag_93\n      jump\t// in\n    tag_98:\n      dup1\n      0x1f\n      add\n      0x20\n      dup1\n      swap2\n      div\n      mul\n      0x20\n      add\n      mload(0x40)\n      swap1\n      dup2\n      add\n      0x40\n      mstore\n      dup1\n      swap3\n      swap2\n      swap1\n      dup2\n      dup2\n      mstore\n      0x20\n      add\n      dup3\n      dup1\n      sload\n      tag_99\n      swap1\n      tag_93\n      jump\t// in\n    tag_99:\n      dup1\n      iszero\n      tag_100\n      jumpi\n      dup1\n      0x1f\n      lt\n      tag_101\n      jumpi\n      0x0100\n      dup1\n      dup4\n      sload\n      div\n      mul\n      dup4\n      mstore\n      swap2\n      0x20\n      add\n      swap2\n      jump(tag_100)\n    tag_101:\n      dup3\n      add\n      swap2\n      swap1\n      0x00\n      mstore\n      keccak256(0x00, 0x20)\n      swap1\n    tag_102:\n      dup2\n      sload\n      dup2\n      mstore\n      swap1\n      0x01\n      add\n      swap1\n      0x20\n      add\n      dup1\n      dup4\n      gt\n      tag_102\n      jumpi\n      dup3\n      swap1\n      sub\n      0x1f\n      and\n      dup3\n      add\n      swap2\n    tag_100:\n      pop\n      pop\n      pop\n      pop\n      pop\n      swap1\n      dup1\n      0x02\n      add\n      dup1\n      sload\n      tag_103\n      swap1\n      tag_93\n      jump\t// in\n    tag_103:\n      dup1\n      0x1f\n      add\n      0x20\n      dup1\n      swap2\n      div\n      mul\n      0x20\n      add\n      mload(0x40)\n      swap1\n      dup2\n      add\n      0x40\n      mstore\n      dup1\n      swap3\n      swap2\n      swap1\n      dup2\n      dup2\n      mstore\n      0x20\n      add\n      dup3\n      dup1\n      sload\n      tag_104\n      swap1\n      tag_93\n      jump\t// in\n    tag_104:\n      dup1\n      iszero\n      tag_105\n      jumpi\n      dup1\n      0x1f\n      lt\n      tag_106\n      jumpi\n      0x0100\n      dup1\n      dup4\n      sload\n      div\n      mul\n      dup4\n      mstore\n      swap2\n      0x20\n      add\n      swap2\n      jump(tag_105)\n    tag_106:\n      dup3\n      add\n      swap2\n      swap1\n      0x00\n      mstore\n      keccak256(0x00, 0x20)\n      swap1\n    tag_107:\n      dup2\n      sload\n      dup2\n      mstore\n      swap1\n      0x01\n      add\n      swap1\n      0x20\n      add\n      dup1\n      dup4\n      gt\n      tag_107\n      jumpi\n      dup3\n      swap1\n      sub\n      0x1f\n      and\n      dup3\n      add\n      swap2\n    tag_105:\n      pop\n      pop\n      pop\n      pop\n      pop\n      swap1\n      dup1\n      0x03\n      add\n      sload\n      swap1\n      dup1\n      0x04\n      add\n      dup1\n      sload\n      tag_108\n      swap1\n      tag_93\n      jump\t// in\n    tag_108:\n      dup1\n      0x1f\n      add\n      0x20\n      dup1\n      swap2\n      div\n      mul\n      0x20\n      add\n      mload(0x40)\n      swap1\n      dup2\n      add\n      0x40\n      mstore\n      dup1\n      swap3\n      swap2\n      swap1\n      dup2\n      dup2\n      mstore\n      0x20\n      add\n      dup3\n      dup1\n      sload\n      tag_109\n      swap1\n      tag_93\n      jump\t// in\n    tag_109:\n      dup1\n      iszero\n      tag_110\n      jumpi\n      dup1\n      0x1f\n      lt\n      tag_111\n      jumpi\n      0x0100\n      dup1\n      dup4\n      sload\n      div\n      mul\n      dup4\n      mstore\n      swap2\n      0x20\n      add\n      swap2\n      jump(tag_110)\n    tag_111:\n      dup3\n      add\n      swap2\n      swap1\n      0x00\n      mstore\n      keccak256(0x00, 0x20)\n      swap1\n    tag_112:\n      dup2\n      sload\n      dup2\n      mstore\n      swap1\n      0x01\n      add\n      swap1\n      0x20\n      add\n      dup1\n      dup4\n      gt\n      tag_112\n      jumpi\n      dup3\n      swap1\n      sub\n      0x1f\n      and\n      dup3\n      add\n      swap2\n    tag_110:\n      pop\n      pop\n      pop\n      pop\n      pop\n      swap1\n      dup1\n      0x05\n      add\n      0x00\n      swap1\n      sload\n      swap1\n      0x0100\n      exp\n      swap1\n      div\n      0xffffffffffffffffffffffffffffffffffffffff\n      and\n      swap1\n      dup1\n      0x05\n      add\n      0x14\n      swap1\n      sload\n      swap1\n      0x0100\n      exp\n      swap1\n      div\n      0xff\n      and\n      swap1\n      dup1\n      0x06\n      add\n      sload\n      swap1\n      pop\n      dup9\n      jump\t// out\n        /* \"Campaign.sol\":927:953  uint public approversCount */\n    tag_54:\n      sload(0x04)\n      dup2\n      jump\t// out\n        /* \"Campaign.sol\":841:872  uint public minimumContribution */\n    tag_58:\n      sload(0x02)\n      dup2\n      jump\t// out\n        /* \"Campaign.sol\":1181:1345  function contribute() public payable {... */\n    tag_61:\n        /* \"Campaign.sol\":1249:1268  minimumContribution */\n      sload(0x02)\n        /* \"Campaign.sol\":1237:1246  msg.value */\n      callvalue\n        /* \"Campaign.sol\":1237:1268  msg.value > minimumContribution */\n      gt\n        /* \"Campaign.sol\":1229:1269  require(msg.value > minimumContribution) */\n      tag_114\n      jumpi\n      0x00\n      dup1\n      revert\n    tag_114:\n        /* \"Campaign.sol\":1306:1310  true */\n      0x01\n        /* \"Campaign.sol\":1282:1291  approvers */\n      0x03\n        /* \"Campaign.sol\":1282:1303  approvers[msg.sender] */\n      0x00\n        /* \"Campaign.sol\":1292:1302  msg.sender */\n      caller\n        /* \"Campaign.sol\":1282:1303  approvers[msg.sender] */\n      0xffffffffffffffffffffffffffffffffffffffff\n      and\n      0xffffffffffffffffffffffffffffffffffffffff\n      and\n      dup2\n      mstore\n      0x20\n      add\n      swap1\n      dup2\n      mstore\n      0x20\n      add\n      0x00\n      keccak256\n      0x00\n        /* \"Campaign.sol\":1282:1310  approvers[msg.sender] = true */\n      0x0100\n      exp\n      dup2\n      sload\n      dup2\n      0xff\n      mul\n      not\n      and\n      swap1\n      dup4\n      iszero\n      iszero\n      mul\n      or\n      swap1\n      sstore\n      pop\n        /* \"Campaign.sol\":1321:1335  approversCount */\n      0x04\n      0x00\n        /* \"Campaign.sol\":1321:1337  approversCount++ */\n      dup2\n      sload\n      dup1\n      swap3\n      swap2\n      swap1\n      tag_115\n      swap1\n      tag_116\n      jump\t// in\n    tag_115:\n      swap2\n      swap1\n      pop\n      sstore\n      pop\n        /* \"Campaign.sol\":1181:1345  function contribute() public payable {... */\n      jump\t// out\n        /* \"Campaign.sol\":1931:2210  function approveRequest(uint index) public {... */\n    tag_65:\n        /* \"Campaign.sol\":1985:2008  Request storage request */\n      0x00\n        /* \"Campaign.sol\":2011:2019  requests */\n      dup1\n        /* \"Campaign.sol\":2020:2025  index */\n      dup3\n        /* \"Campaign.sol\":2011:2026  requests[index] */\n      dup2\n      sload\n      dup2\n      lt\n      tag_118\n      jumpi\n      tag_119\n      tag_71\n      jump\t// in\n    tag_119:\n    tag_118:\n      swap1\n      0x00\n      mstore\n      keccak256(0x00, 0x20)\n      swap1\n      0x08\n      mul\n      add\n        /* \"Campaign.sol\":1985:2026  Request storage request = requests[index] */\n      swap1\n      pop\n        /* \"Campaign.sol\":2047:2056  approvers */\n      0x03\n        /* \"Campaign.sol\":2047:2068  approvers[msg.sender] */\n      0x00\n        /* \"Campaign.sol\":2057:2067  msg.sender */\n      caller\n        /* \"Campaign.sol\":2047:2068  approvers[msg.sender] */\n      0xffffffffffffffffffffffffffffffffffffffff\n      and\n      0xffffffffffffffffffffffffffffffffffffffff\n      and\n      dup2\n      mstore\n      0x20\n      add\n      swap1\n      dup2\n      mstore\n      0x20\n      add\n      0x00\n      keccak256\n      0x00\n      swap1\n      sload\n      swap1\n      0x0100\n      exp\n      swap1\n      div\n      0xff\n      and\n        /* \"Campaign.sol\":2039:2069  require(approvers[msg.sender]) */\n      tag_121\n      jumpi\n      0x00\n      dup1\n      revert\n    tag_121:\n        /* \"Campaign.sol\":2089:2096  request */\n      dup1\n        /* \"Campaign.sol\":2089:2106  request.approvals */\n      0x07\n      add\n        /* \"Campaign.sol\":2089:2118  request.approvals[msg.sender] */\n      0x00\n        /* \"Campaign.sol\":2107:2117  msg.sender */\n      caller\n        /* \"Campaign.sol\":2089:2118  request.approvals[msg.sender] */\n      0xffffffffffffffffffffffffffffffffffffffff\n      and\n      0xffffffffffffffffffffffffffffffffffffffff\n      and\n      dup2\n      mstore\n      0x20\n      add\n      swap1\n      dup2\n      mstore\n      0x20\n      add\n      0x00\n      keccak256\n      0x00\n      swap1\n      sload\n      swap1\n      0x0100\n      exp\n      swap1\n      div\n      0xff\n      and\n        /* \"Campaign.sol\":2088:2118  !request.approvals[msg.sender] */\n      iszero\n        /* \"Campaign.sol\":2080:2119  require(!request.approvals[msg.sender]) */\n      tag_122\n      jumpi\n      0x00\n      dup1\n      revert\n    tag_122:\n        /* \"Campaign.sol\":2164:2168  true */\n      0x01\n        /* \"Campaign.sol\":2132:2139  request */\n      dup2\n        /* \"Campaign.sol\":2132:2149  request.approvals */\n      0x07\n      add\n        /* \"Campaign.sol\":2132:2161  request.approvals[msg.sender] */\n      0x00\n        /* \"Campaign.sol\":2150:2160  msg.sender */\n      caller\n        /* \"Campaign.sol\":2132:2161  request.approvals[msg.sender] */\n      0xffffffffffffffffffffffffffffffffffffffff\n      and\n      0xffffffffffffffffffffffffffffffffffffffff\n      and\n      dup2\n      mstore\n      0x20\n      add\n      swap1\n      dup2\n      mstore\n      0x20\n      add\n      0x00\n      keccak256\n      0x00\n        /* \"Campaign.sol\":2132:2168  request.approvals[msg.sender] = true */\n      0x0100\n      exp\n      dup2\n      sload\n      dup2\n      0xff\n      mul\n      not\n      and\n      swap1\n      dup4\n      iszero\n      iszero\n      mul\n      or\n      swap1\n      sstore\n      pop\n        /* \"Campaign.sol\":2179:2186  request */\n      dup1\n        /* \"Campaign.sol\":2179:2200  request.approvalCount */\n      0x06\n      add\n      0x00\n        /* \"Campaign.sol\":2179:2202  request.approvalCount++ */\n      dup2\n      sload\n      dup1\n      swap3\n      swap2\n      swap1\n      tag_123\n      swap1\n      tag_116\n      jump\t// in\n    tag_123:\n      swap2\n      swap1\n      pop\n      sstore\n      pop\n        /* \"Campaign.sol\":1974:2210  {... */\n      pop\n        /* \"Campaign.sol\":1931:2210  function approveRequest(uint index) public {... */\n      pop\n      jump\t// out\n        /* \"#utility.yul\":7:82   */\n    tag_124:\n        /* \"#utility.yul\":40:46   */\n      0x00\n        /* \"#utility.yul\":73:75   */\n      0x40\n        /* \"#utility.yul\":67:76   */\n      mload\n        /* \"#utility.yul\":57:76   */\n      swap1\n      pop\n        /* \"#utility.yul\":7:82   */\n      swap1\n      jump\t// out\n        /* \"#utility.yul\":88:205   */\n    tag_125:\n        /* \"#utility.yul\":197:198   */\n      0x00\n        /* \"#utility.yul\":194:195   */\n      dup1\n        /* \"#utility.yul\":187:199   */\n      revert\n        /* \"#utility.yul\":211:328   */\n    tag_126:\n        /* \"#utility.yul\":320:321   */\n      0x00\n        /* \"#utility.yul\":317:318   */\n      dup1\n        /* \"#utility.yul\":310:322   */\n      revert\n        /* \"#utility.yul\":334:411   */\n    tag_127:\n        /* \"#utility.yul\":371:378   */\n      0x00\n        /* \"#utility.yul\":400:405   */\n      dup2\n        /* \"#utility.yul\":389:405   */\n      swap1\n      pop\n        /* \"#utility.yul\":334:411   */\n      swap2\n      swap1\n      pop\n      jump\t// out\n        /* \"#utility.yul\":417:539   */\n    tag_128:\n        /* \"#utility.yul\":490:514   */\n      tag_176\n        /* \"#utility.yul\":508:513   */\n      dup2\n        /* \"#utility.yul\":490:514   */\n      tag_127\n      jump\t// in\n    tag_176:\n        /* \"#utility.yul\":483:488   */\n      dup2\n        /* \"#utility.yul\":480:515   */\n      eq\n        /* \"#utility.yul\":470:533   */\n      tag_177\n      jumpi\n        /* \"#utility.yul\":529:530   */\n      0x00\n        /* \"#utility.yul\":526:527   */\n      dup1\n        /* \"#utility.yul\":519:531   */\n      revert\n        /* \"#utility.yul\":470:533   */\n    tag_177:\n        /* \"#utility.yul\":417:539   */\n      pop\n      jump\t// out\n        /* \"#utility.yul\":545:684   */\n    tag_129:\n        /* \"#utility.yul\":591:596   */\n      0x00\n        /* \"#utility.yul\":629:635   */\n      dup2\n        /* \"#utility.yul\":616:636   */\n      calldataload\n        /* \"#utility.yul\":607:636   */\n      swap1\n      pop\n        /* \"#utility.yul\":645:678   */\n      tag_179\n        /* \"#utility.yul\":672:677   */\n      dup2\n        /* \"#utility.yul\":645:678   */\n      tag_128\n      jump\t// in\n    tag_179:\n        /* \"#utility.yul\":545:684   */\n      swap3\n      swap2\n      pop\n      pop\n      jump\t// out\n        /* \"#utility.yul\":690:1019   */\n    tag_17:\n        /* \"#utility.yul\":749:755   */\n      0x00\n        /* \"#utility.yul\":798:800   */\n      0x20\n        /* \"#utility.yul\":786:795   */\n      dup3\n        /* \"#utility.yul\":777:784   */\n      dup5\n        /* \"#utility.yul\":773:796   */\n      sub\n        /* \"#utility.yul\":769:801   */\n      slt\n        /* \"#utility.yul\":766:885   */\n      iszero\n      tag_181\n      jumpi\n        /* \"#utility.yul\":804:883   */\n      tag_182\n      tag_125\n      jump\t// in\n    tag_182:\n        /* \"#utility.yul\":766:885   */\n    tag_181:\n        /* \"#utility.yul\":924:925   */\n      0x00\n        /* \"#utility.yul\":949:1002   */\n      tag_183\n        /* \"#utility.yul\":994:1001   */\n      dup5\n        /* \"#utility.yul\":985:991   */\n      dup3\n        /* \"#utility.yul\":974:983   */\n      dup6\n        /* \"#utility.yul\":970:992   */\n      add\n        /* \"#utility.yul\":949:1002   */\n      tag_129\n      jump\t// in\n    tag_183:\n        /* \"#utility.yul\":939:1002   */\n      swap2\n      pop\n        /* \"#utility.yul\":895:1012   */\n      pop\n        /* \"#utility.yul\":690:1019   */\n      swap3\n      swap2\n      pop\n      pop\n      jump\t// out\n        /* \"#utility.yul\":1025:1151   */\n    tag_130:\n        /* \"#utility.yul\":1062:1069   */\n      0x00\n        /* \"#utility.yul\":1102:1144   */\n      0xffffffffffffffffffffffffffffffffffffffff\n        /* \"#utility.yul\":1095:1100   */\n      dup3\n        /* \"#utility.yul\":1091:1145   */\n      and\n        /* \"#utility.yul\":1080:1145   */\n      swap1\n      pop\n        /* \"#utility.yul\":1025:1151   */\n      swap2\n      swap1\n      pop\n      jump\t// out\n        /* \"#utility.yul\":1157:1253   */\n    tag_131:\n        /* \"#utility.yul\":1194:1201   */\n      0x00\n        /* \"#utility.yul\":1223:1247   */\n      tag_186\n        /* \"#utility.yul\":1241:1246   */\n      dup3\n        /* \"#utility.yul\":1223:1247   */\n      tag_130\n      jump\t// in\n    tag_186:\n        /* \"#utility.yul\":1212:1247   */\n      swap1\n      pop\n        /* \"#utility.yul\":1157:1253   */\n      swap2\n      swap1\n      pop\n      jump\t// out\n        /* \"#utility.yul\":1259:1381   */\n    tag_132:\n        /* \"#utility.yul\":1332:1356   */\n      tag_188\n        /* \"#utility.yul\":1350:1355   */\n      dup2\n        /* \"#utility.yul\":1332:1356   */\n      tag_131\n      jump\t// in\n    tag_188:\n        /* \"#utility.yul\":1325:1330   */\n      dup2\n        /* \"#utility.yul\":1322:1357   */\n      eq\n        /* \"#utility.yul\":1312:1375   */\n      tag_189\n      jumpi\n        /* \"#utility.yul\":1371:1372   */\n      0x00\n        /* \"#utility.yul\":1368:1369   */\n      dup1\n        /* \"#utility.yul\":1361:1373   */\n      revert\n        /* \"#utility.yul\":1312:1375   */\n    tag_189:\n        /* \"#utility.yul\":1259:1381   */\n      pop\n      jump\t// out\n        /* \"#utility.yul\":1387:1526   */\n    tag_133:\n        /* \"#utility.yul\":1433:1438   */\n      0x00\n        /* \"#utility.yul\":1471:1477   */\n      dup2\n        /* \"#utility.yul\":1458:1478   */\n      calldataload\n        /* \"#utility.yul\":1449:1478   */\n      swap1\n      pop\n        /* \"#utility.yul\":1487:1520   */\n      tag_191\n        /* \"#utility.yul\":1514:1519   */\n      dup2\n        /* \"#utility.yul\":1487:1520   */\n      tag_132\n      jump\t// in\n    tag_191:\n        /* \"#utility.yul\":1387:1526   */\n      swap3\n      swap2\n      pop\n      pop\n      jump\t// out\n        /* \"#utility.yul\":1532:1861   */\n    tag_22:\n        /* \"#utility.yul\":1591:1597   */\n      0x00\n        /* \"#utility.yul\":1640:1642   */\n      0x20\n        /* \"#utility.yul\":1628:1637   */\n      dup3\n        /* \"#utility.yul\":1619:1626   */\n      dup5\n        /* \"#utility.yul\":1615:1638   */\n      sub\n        /* \"#utility.yul\":1611:1643   */\n      slt\n        /* \"#utility.yul\":1608:1727   */\n      iszero\n      tag_193\n      jumpi\n        /* \"#utility.yul\":1646:1725   */\n      tag_194\n      tag_125\n      jump\t// in\n    tag_194:\n        /* \"#utility.yul\":1608:1727   */\n    tag_193:\n        /* \"#utility.yul\":1766:1767   */\n      0x00\n        /* \"#utility.yul\":1791:1844   */\n      tag_195\n        /* \"#utility.yul\":1836:1843   */\n      dup5\n        /* \"#utility.yul\":1827:1833   */\n      dup3\n        /* \"#utility.yul\":1816:1825   */\n      dup6\n        /* \"#utility.yul\":1812:1834   */\n      add\n        /* \"#utility.yul\":1791:1844   */\n      tag_133\n      jump\t// in\n    tag_195:\n        /* \"#utility.yul\":1781:1844   */\n      swap2\n      pop\n        /* \"#utility.yul\":1737:1854   */\n      pop\n        /* \"#utility.yul\":1532:1861   */\n      swap3\n      swap2\n      pop\n      pop\n      jump\t// out\n        /* \"#utility.yul\":1867:1957   */\n    tag_134:\n        /* \"#utility.yul\":1901:1908   */\n      0x00\n        /* \"#utility.yul\":1944:1949   */\n      dup2\n        /* \"#utility.yul\":1937:1950   */\n      iszero\n        /* \"#utility.yul\":1930:1951   */\n      iszero\n        /* \"#utility.yul\":1919:1951   */\n      swap1\n      pop\n        /* \"#utility.yul\":1867:1957   */\n      swap2\n      swap1\n      pop\n      jump\t// out\n        /* \"#utility.yul\":1963:2072   */\n    tag_135:\n        /* \"#utility.yul\":2044:2065   */\n      tag_198\n        /* \"#utility.yul\":2059:2064   */\n      dup2\n        /* \"#utility.yul\":2044:2065   */\n      tag_134\n      jump\t// in\n    tag_198:\n        /* \"#utility.yul\":2039:2042   */\n      dup3\n        /* \"#utility.yul\":2032:2066   */\n      mstore\n        /* \"#utility.yul\":1963:2072   */\n      pop\n      pop\n      jump\t// out\n        /* \"#utility.yul\":2078:2288   */\n    tag_25:\n        /* \"#utility.yul\":2165:2169   */\n      0x00\n        /* \"#utility.yul\":2203:2205   */\n      0x20\n        /* \"#utility.yul\":2192:2201   */\n      dup3\n        /* \"#utility.yul\":2188:2206   */\n      add\n        /* \"#utility.yul\":2180:2206   */\n      swap1\n      pop\n        /* \"#utility.yul\":2216:2281   */\n      tag_200\n        /* \"#utility.yul\":2278:2279   */\n      0x00\n        /* \"#utility.yul\":2267:2276   */\n      dup4\n        /* \"#utility.yul\":2263:2280   */\n      add\n        /* \"#utility.yul\":2254:2260   */\n      dup5\n        /* \"#utility.yul\":2216:2281   */\n      tag_135\n      jump\t// in\n    tag_200:\n        /* \"#utility.yul\":2078:2288   */\n      swap3\n      swap2\n      pop\n      pop\n      jump\t// out\n        /* \"#utility.yul\":2294:2412   */\n    tag_136:\n        /* \"#utility.yul\":2381:2405   */\n      tag_202\n        /* \"#utility.yul\":2399:2404   */\n      dup2\n        /* \"#utility.yul\":2381:2405   */\n      tag_127\n      jump\t// in\n    tag_202:\n        /* \"#utility.yul\":2376:2379   */\n      dup3\n        /* \"#utility.yul\":2369:2406   */\n      mstore\n        /* \"#utility.yul\":2294:2412   */\n      pop\n      pop\n      jump\t// out\n        /* \"#utility.yul\":2418:2640   */\n    tag_30:\n        /* \"#utility.yul\":2511:2515   */\n      0x00\n        /* \"#utility.yul\":2549:2551   */\n      0x20\n        /* \"#utility.yul\":2538:2547   */\n      dup3\n        /* \"#utility.yul\":2534:2552   */\n      add\n        /* \"#utility.yul\":2526:2552   */\n      swap1\n      pop\n        /* \"#utility.yul\":2562:2633   */\n      tag_204\n        /* \"#utility.yul\":2630:2631   */\n      0x00\n        /* \"#utility.yul\":2619:2628   */\n      dup4\n        /* \"#utility.yul\":2615:2632   */\n      add\n        /* \"#utility.yul\":2606:2612   */\n      dup5\n        /* \"#utility.yul\":2562:2633   */\n      tag_136\n      jump\t// in\n    tag_204:\n        /* \"#utility.yul\":2418:2640   */\n      swap3\n      swap2\n      pop\n      pop\n      jump\t// out\n        /* \"#utility.yul\":2646:2764   */\n    tag_137:\n        /* \"#utility.yul\":2733:2757   */\n      tag_206\n        /* \"#utility.yul\":2751:2756   */\n      dup2\n        /* \"#utility.yul\":2733:2757   */\n      tag_131\n      jump\t// in\n    tag_206:\n        /* \"#utility.yul\":2728:2731   */\n      dup3\n        /* \"#utility.yul\":2721:2758   */\n      mstore\n        /* \"#utility.yul\":2646:2764   */\n      pop\n      pop\n      jump\t// out\n        /* \"#utility.yul\":2770:3434   */\n    tag_35:\n        /* \"#utility.yul\":2975:2979   */\n      0x00\n        /* \"#utility.yul\":3013:3016   */\n      0xa0\n        /* \"#utility.yul\":3002:3011   */\n      dup3\n        /* \"#utility.yul\":2998:3017   */\n      add\n        /* \"#utility.yul\":2990:3017   */\n      swap1\n      pop\n        /* \"#utility.yul\":3027:3098   */\n      tag_208\n        /* \"#utility.yul\":3095:3096   */\n      0x00\n        /* \"#utility.yul\":3084:3093   */\n      dup4\n        /* \"#utility.yul\":3080:3097   */\n      add\n        /* \"#utility.yul\":3071:3077   */\n      dup9\n        /* \"#utility.yul\":3027:3098   */\n      tag_136\n      jump\t// in\n    tag_208:\n        /* \"#utility.yul\":3108:3180   */\n      tag_209\n        /* \"#utility.yul\":3176:3178   */\n      0x20\n        /* \"#utility.yul\":3165:3174   */\n      dup4\n        /* \"#utility.yul\":3161:3179   */\n      add\n        /* \"#utility.yul\":3152:3158   */\n      dup8\n        /* \"#utility.yul\":3108:3180   */\n      tag_136\n      jump\t// in\n    tag_209:\n        /* \"#utility.yul\":3190:3262   */\n      tag_210\n        /* \"#utility.yul\":3258:3260   */\n      0x40\n        /* \"#utility.yul\":3247:3256   */\n      dup4\n        /* \"#utility.yul\":3243:3261   */\n      add\n        /* \"#utility.yul\":3234:3240   */\n      dup7\n        /* \"#utility.yul\":3190:3262   */\n      tag_136\n      jump\t// in\n    tag_210:\n        /* \"#utility.yul\":3272:3344   */\n      tag_211\n        /* \"#utility.yul\":3340:3342   */\n      0x60\n        /* \"#utility.yul\":3329:3338   */\n      dup4\n        /* \"#utility.yul\":3325:3343   */\n      add\n        /* \"#utility.yul\":3316:3322   */\n      dup6\n        /* \"#utility.yul\":3272:3344   */\n      tag_136\n      jump\t// in\n    tag_211:\n        /* \"#utility.yul\":3354:3427   */\n      tag_212\n        /* \"#utility.yul\":3422:3425   */\n      0x80\n        /* \"#utility.yul\":3411:3420   */\n      dup4\n        /* \"#utility.yul\":3407:3426   */\n      add\n        /* \"#utility.yul\":3398:3404   */\n      dup5\n        /* \"#utility.yul\":3354:3427   */\n      tag_137\n      jump\t// in\n    tag_212:\n        /* \"#utility.yul\":2770:3434   */\n      swap7\n      swap6\n      pop\n      pop\n      pop\n      pop\n      pop\n      pop\n      jump\t// out\n        /* \"#utility.yul\":3440:3662   */\n    tag_40:\n        /* \"#utility.yul\":3533:3537   */\n      0x00\n        /* \"#utility.yul\":3571:3573   */\n      0x20\n        /* \"#utility.yul\":3560:3569   */\n      dup3\n        /* \"#utility.yul\":3556:3574   */\n      add\n        /* \"#utility.yul\":3548:3574   */\n      swap1\n      pop\n        /* \"#utility.yul\":3584:3655   */\n      tag_214\n        /* \"#utility.yul\":3652:3653   */\n      0x00\n        /* \"#utility.yul\":3641:3650   */\n      dup4\n        /* \"#utility.yul\":3637:3654   */\n      add\n        /* \"#utility.yul\":3628:3634   */\n      dup5\n        /* \"#utility.yul\":3584:3655   */\n      tag_137\n      jump\t// in\n    tag_214:\n        /* \"#utility.yul\":3440:3662   */\n      swap3\n      swap2\n      pop\n      pop\n      jump\t// out\n        /* \"#utility.yul\":3668:3785   */\n    tag_138:\n        /* \"#utility.yul\":3777:3778   */\n      0x00\n        /* \"#utility.yul\":3774:3775   */\n      dup1\n        /* \"#utility.yul\":3767:3779   */\n      revert\n        /* \"#utility.yul\":3791:3908   */\n    tag_139:\n        /* \"#utility.yul\":3900:3901   */\n      0x00\n        /* \"#utility.yul\":3897:3898   */\n      dup1\n        /* \"#utility.yul\":3890:3902   */\n      revert\n        /* \"#utility.yul\":3914:4016   */\n    tag_140:\n        /* \"#utility.yul\":3955:3961   */\n      0x00\n        /* \"#utility.yul\":4006:4008   */\n      0x1f\n        /* \"#utility.yul\":4002:4009   */\n      not\n        /* \"#utility.yul\":3997:3999   */\n      0x1f\n        /* \"#utility.yul\":3990:3995   */\n      dup4\n        /* \"#utility.yul\":3986:4000   */\n      add\n        /* \"#utility.yul\":3982:4010   */\n      and\n        /* \"#utility.yul\":3972:4010   */\n      swap1\n      pop\n        /* \"#utility.yul\":3914:4016   */\n      swap2\n      swap1\n      pop\n      jump\t// out\n        /* \"#utility.yul\":4022:4202   */\n    tag_141:\n        /* \"#utility.yul\":4070:4147   */\n      0x4e487b7100000000000000000000000000000000000000000000000000000000\n        /* \"#utility.yul\":4067:4068   */\n      0x00\n        /* \"#utility.yul\":4060:4148   */\n      mstore\n        /* \"#utility.yul\":4167:4171   */\n      0x41\n        /* \"#utility.yul\":4164:4165   */\n      0x04\n        /* \"#utility.yul\":4157:4172   */\n      mstore\n        /* \"#utility.yul\":4191:4195   */\n      0x24\n        /* \"#utility.yul\":4188:4189   */\n      0x00\n        /* \"#utility.yul\":4181:4196   */\n      revert\n        /* \"#utility.yul\":4208:4489   */\n    tag_142:\n        /* \"#utility.yul\":4291:4318   */\n      tag_220\n        /* \"#utility.yul\":4313:4317   */\n      dup3\n        /* \"#utility.yul\":4291:4318   */\n      tag_140\n      jump\t// in\n    tag_220:\n        /* \"#utility.yul\":4283:4289   */\n      dup2\n        /* \"#utility.yul\":4279:4319   */\n      add\n        /* \"#utility.yul\":4421:4427   */\n      dup2\n        /* \"#utility.yul\":4409:4419   */\n      dup2\n        /* \"#utility.yul\":4406:4428   */\n      lt\n        /* \"#utility.yul\":4385:4403   */\n      0xffffffffffffffff\n        /* \"#utility.yul\":4373:4383   */\n      dup3\n        /* \"#utility.yul\":4370:4404   */\n      gt\n        /* \"#utility.yul\":4367:4429   */\n      or\n        /* \"#utility.yul\":4364:4452   */\n      iszero\n      tag_221\n      jumpi\n        /* \"#utility.yul\":4432:4450   */\n      tag_222\n      tag_141\n      jump\t// in\n    tag_222:\n        /* \"#utility.yul\":4364:4452   */\n    tag_221:\n        /* \"#utility.yul\":4472:4482   */\n      dup1\n        /* \"#utility.yul\":4468:4470   */\n      0x40\n        /* \"#utility.yul\":4461:4483   */\n      mstore\n        /* \"#utility.yul\":4251:4489   */\n      pop\n        /* \"#utility.yul\":4208:4489   */\n      pop\n      pop\n      jump\t// out\n        /* \"#utility.yul\":4495:4624   */\n    tag_143:\n        /* \"#utility.yul\":4529:4535   */\n      0x00\n        /* \"#utility.yul\":4556:4576   */\n      tag_224\n      tag_124\n      jump\t// in\n    tag_224:\n        /* \"#utility.yul\":4546:4576   */\n      swap1\n      pop\n        /* \"#utility.yul\":4585:4618   */\n      tag_225\n        /* \"#utility.yul\":4613:4617   */\n      dup3\n        /* \"#utility.yul\":4605:4611   */\n      dup3\n        /* \"#utility.yul\":4585:4618   */\n      tag_142\n      jump\t// in\n    tag_225:\n        /* \"#utility.yul\":4495:4624   */\n      swap2\n      swap1\n      pop\n      jump\t// out\n        /* \"#utility.yul\":4630:4938   */\n    tag_144:\n        /* \"#utility.yul\":4692:4696   */\n      0x00\n        /* \"#utility.yul\":4782:4800   */\n      0xffffffffffffffff\n        /* \"#utility.yul\":4774:4780   */\n      dup3\n        /* \"#utility.yul\":4771:4801   */\n      gt\n        /* \"#utility.yul\":4768:4824   */\n      iszero\n      tag_227\n      jumpi\n        /* \"#utility.yul\":4804:4822   */\n      tag_228\n      tag_141\n      jump\t// in\n    tag_228:\n        /* \"#utility.yul\":4768:4824   */\n    tag_227:\n        /* \"#utility.yul\":4842:4871   */\n      tag_229\n        /* \"#utility.yul\":4864:4870   */\n      dup3\n        /* \"#utility.yul\":4842:4871   */\n      tag_140\n      jump\t// in\n    tag_229:\n        /* \"#utility.yul\":4834:4871   */\n      swap1\n      pop\n        /* \"#utility.yul\":4926:4930   */\n      0x20\n        /* \"#utility.yul\":4920:4924   */\n      dup2\n        /* \"#utility.yul\":4916:4931   */\n      add\n        /* \"#utility.yul\":4908:4931   */\n      swap1\n      pop\n        /* \"#utility.yul\":4630:4938   */\n      swap2\n      swap1\n      pop\n      jump\t// out\n        /* \"#utility.yul\":4944:5090   */\n    tag_145:\n        /* \"#utility.yul\":5041:5047   */\n      dup3\n        /* \"#utility.yul\":5036:5039   */\n      dup2\n        /* \"#utility.yul\":5031:5034   */\n      dup4\n        /* \"#utility.yul\":5018:5048   */\n      calldatacopy\n        /* \"#utility.yul\":5082:5083   */\n      0x00\n        /* \"#utility.yul\":5073:5079   */\n      dup4\n        /* \"#utility.yul\":5068:5071   */\n      dup4\n        /* \"#utility.yul\":5064:5080   */\n      add\n        /* \"#utility.yul\":5057:5084   */\n      mstore\n        /* \"#utility.yul\":4944:5090   */\n      pop\n      pop\n      pop\n      jump\t// out\n        /* \"#utility.yul\":5096:5521   */\n    tag_146:\n        /* \"#utility.yul\":5174:5179   */\n      0x00\n        /* \"#utility.yul\":5199:5265   */\n      tag_232\n        /* \"#utility.yul\":5215:5264   */\n      tag_233\n        /* \"#utility.yul\":5257:5263   */\n      dup5\n        /* \"#utility.yul\":5215:5264   */\n      tag_144\n      jump\t// in\n    tag_233:\n        /* \"#utility.yul\":5199:5265   */\n      tag_143\n      jump\t// in\n    tag_232:\n        /* \"#utility.yul\":5190:5265   */\n      swap1\n      pop\n        /* \"#utility.yul\":5288:5294   */\n      dup3\n        /* \"#utility.yul\":5281:5286   */\n      dup2\n        /* \"#utility.yul\":5274:5295   */\n      mstore\n        /* \"#utility.yul\":5326:5330   */\n      0x20\n        /* \"#utility.yul\":5319:5324   */\n      dup2\n        /* \"#utility.yul\":5315:5331   */\n      add\n        /* \"#utility.yul\":5364:5367   */\n      dup5\n        /* \"#utility.yul\":5355:5361   */\n      dup5\n        /* \"#utility.yul\":5350:5353   */\n      dup5\n        /* \"#utility.yul\":5346:5362   */\n      add\n        /* \"#utility.yul\":5343:5368   */\n      gt\n        /* \"#utility.yul\":5340:5452   */\n      iszero\n      tag_234\n      jumpi\n        /* \"#utility.yul\":5371:5450   */\n      tag_235\n      tag_139\n      jump\t// in\n    tag_235:\n        /* \"#utility.yul\":5340:5452   */\n    tag_234:\n        /* \"#utility.yul\":5461:5515   */\n      tag_236\n        /* \"#utility.yul\":5508:5514   */\n      dup5\n        /* \"#utility.yul\":5503:5506   */\n      dup3\n        /* \"#utility.yul\":5498:5501   */\n      dup6\n        /* \"#utility.yul\":5461:5515   */\n      tag_145\n      jump\t// in\n    tag_236:\n        /* \"#utility.yul\":5180:5521   */\n      pop\n        /* \"#utility.yul\":5096:5521   */\n      swap4\n      swap3\n      pop\n      pop\n      pop\n      jump\t// out\n        /* \"#utility.yul\":5541:5881   */\n    tag_147:\n        /* \"#utility.yul\":5597:5602   */\n      0x00\n        /* \"#utility.yul\":5646:5649   */\n      dup3\n        /* \"#utility.yul\":5639:5643   */\n      0x1f\n        /* \"#utility.yul\":5631:5637   */\n      dup4\n        /* \"#utility.yul\":5627:5644   */\n      add\n        /* \"#utility.yul\":5623:5650   */\n      slt\n        /* \"#utility.yul\":5613:5735   */\n      tag_238\n      jumpi\n        /* \"#utility.yul\":5654:5733   */\n      tag_239\n      tag_138\n      jump\t// in\n    tag_239:\n        /* \"#utility.yul\":5613:5735   */\n    tag_238:\n        /* \"#utility.yul\":5771:5777   */\n      dup2\n        /* \"#utility.yul\":5758:5778   */\n      calldataload\n        /* \"#utility.yul\":5796:5875   */\n      tag_240\n        /* \"#utility.yul\":5871:5874   */\n      dup5\n        /* \"#utility.yul\":5863:5869   */\n      dup3\n        /* \"#utility.yul\":5856:5860   */\n      0x20\n        /* \"#utility.yul\":5848:5854   */\n      dup7\n        /* \"#utility.yul\":5844:5861   */\n      add\n        /* \"#utility.yul\":5796:5875   */\n      tag_146\n      jump\t// in\n    tag_240:\n        /* \"#utility.yul\":5787:5875   */\n      swap2\n      pop\n        /* \"#utility.yul\":5603:5881   */\n      pop\n        /* \"#utility.yul\":5541:5881   */\n      swap3\n      swap2\n      pop\n      pop\n      jump\t// out\n        /* \"#utility.yul\":5887:7664   */\n    tag_44:\n        /* \"#utility.yul\":6031:6037   */\n      0x00\n        /* \"#utility.yul\":6039:6045   */\n      dup1\n        /* \"#utility.yul\":6047:6053   */\n      0x00\n        /* \"#utility.yul\":6055:6061   */\n      dup1\n        /* \"#utility.yul\":6063:6069   */\n      0x00\n        /* \"#utility.yul\":6071:6077   */\n      dup1\n        /* \"#utility.yul\":6120:6123   */\n      0xc0\n        /* \"#utility.yul\":6108:6117   */\n      dup8\n        /* \"#utility.yul\":6099:6106   */\n      dup10\n        /* \"#utility.yul\":6095:6118   */\n      sub\n        /* \"#utility.yul\":6091:6124   */\n      slt\n        /* \"#utility.yul\":6088:6208   */\n      iszero\n      tag_242\n      jumpi\n        /* \"#utility.yul\":6127:6206   */\n      tag_243\n      tag_125\n      jump\t// in\n    tag_243:\n        /* \"#utility.yul\":6088:6208   */\n    tag_242:\n        /* \"#utility.yul\":6275:6276   */\n      0x00\n        /* \"#utility.yul\":6264:6273   */\n      dup8\n        /* \"#utility.yul\":6260:6277   */\n      add\n        /* \"#utility.yul\":6247:6278   */\n      calldataload\n        /* \"#utility.yul\":6305:6323   */\n      0xffffffffffffffff\n        /* \"#utility.yul\":6297:6303   */\n      dup2\n        /* \"#utility.yul\":6294:6324   */\n      gt\n        /* \"#utility.yul\":6291:6408   */\n      iszero\n      tag_244\n      jumpi\n        /* \"#utility.yul\":6327:6406   */\n      tag_245\n      tag_126\n      jump\t// in\n    tag_245:\n        /* \"#utility.yul\":6291:6408   */\n    tag_244:\n        /* \"#utility.yul\":6432:6495   */\n      tag_246\n        /* \"#utility.yul\":6487:6494   */\n      dup10\n        /* \"#utility.yul\":6478:6484   */\n      dup3\n        /* \"#utility.yul\":6467:6476   */\n      dup11\n        /* \"#utility.yul\":6463:6485   */\n      add\n        /* \"#utility.yul\":6432:6495   */\n      tag_147\n      jump\t// in\n    tag_246:\n        /* \"#utility.yul\":6422:6495   */\n      swap7\n      pop\n        /* \"#utility.yul\":6218:6505   */\n      pop\n        /* \"#utility.yul\":6572:6574   */\n      0x20\n        /* \"#utility.yul\":6561:6570   */\n      dup8\n        /* \"#utility.yul\":6557:6575   */\n      add\n        /* \"#utility.yul\":6544:6576   */\n      calldataload\n        /* \"#utility.yul\":6603:6621   */\n      0xffffffffffffffff\n        /* \"#utility.yul\":6595:6601   */\n      dup2\n        /* \"#utility.yul\":6592:6622   */\n      gt\n        /* \"#utility.yul\":6589:6706   */\n      iszero\n      tag_247\n      jumpi\n        /* \"#utility.yul\":6625:6704   */\n      tag_248\n      tag_126\n      jump\t// in\n    tag_248:\n        /* \"#utility.yul\":6589:6706   */\n    tag_247:\n        /* \"#utility.yul\":6730:6793   */\n      tag_249\n        /* \"#utility.yul\":6785:6792   */\n      dup10\n        /* \"#utility.yul\":6776:6782   */\n      dup3\n        /* \"#utility.yul\":6765:6774   */\n      dup11\n        /* \"#utility.yul\":6761:6783   */\n      add\n        /* \"#utility.yul\":6730:6793   */\n      tag_147\n      jump\t// in\n    tag_249:\n        /* \"#utility.yul\":6720:6793   */\n      swap6\n      pop\n        /* \"#utility.yul\":6515:6803   */\n      pop\n        /* \"#utility.yul\":6870:6872   */\n      0x40\n        /* \"#utility.yul\":6859:6868   */\n      dup8\n        /* \"#utility.yul\":6855:6873   */\n      add\n        /* \"#utility.yul\":6842:6874   */\n      calldataload\n        /* \"#utility.yul\":6901:6919   */\n      0xffffffffffffffff\n        /* \"#utility.yul\":6893:6899   */\n      dup2\n        /* \"#utility.yul\":6890:6920   */\n      gt\n        /* \"#utility.yul\":6887:7004   */\n      iszero\n      tag_250\n      jumpi\n        /* \"#utility.yul\":6923:7002   */\n      tag_251\n      tag_126\n      jump\t// in\n    tag_251:\n        /* \"#utility.yul\":6887:7004   */\n    tag_250:\n        /* \"#utility.yul\":7028:7091   */\n      tag_252\n        /* \"#utility.yul\":7083:7090   */\n      dup10\n        /* \"#utility.yul\":7074:7080   */\n      dup3\n        /* \"#utility.yul\":7063:7072   */\n      dup11\n        /* \"#utility.yul\":7059:7081   */\n      add\n        /* \"#utility.yul\":7028:7091   */\n      tag_147\n      jump\t// in\n    tag_252:\n        /* \"#utility.yul\":7018:7091   */\n      swap5\n      pop\n        /* \"#utility.yul\":6813:7101   */\n      pop\n        /* \"#utility.yul\":7140:7142   */\n      0x60\n        /* \"#utility.yul\":7166:7219   */\n      tag_253\n        /* \"#utility.yul\":7211:7218   */\n      dup10\n        /* \"#utility.yul\":7202:7208   */\n      dup3\n        /* \"#utility.yul\":7191:7200   */\n      dup11\n        /* \"#utility.yul\":7187:7209   */\n      add\n        /* \"#utility.yul\":7166:7219   */\n      tag_129\n      jump\t// in\n    tag_253:\n        /* \"#utility.yul\":7156:7219   */\n      swap4\n      pop\n        /* \"#utility.yul\":7111:7229   */\n      pop\n        /* \"#utility.yul\":7296:7299   */\n      0x80\n        /* \"#utility.yul\":7285:7294   */\n      dup8\n        /* \"#utility.yul\":7281:7300   */\n      add\n        /* \"#utility.yul\":7268:7301   */\n      calldataload\n        /* \"#utility.yul\":7328:7346   */\n      0xffffffffffffffff\n        /* \"#utility.yul\":7320:7326   */\n      dup2\n        /* \"#utility.yul\":7317:7347   */\n      gt\n        /* \"#utility.yul\":7314:7431   */\n      iszero\n      tag_254\n      jumpi\n        /* \"#utility.yul\":7350:7429   */\n      tag_255\n      tag_126\n      jump\t// in\n    tag_255:\n        /* \"#utility.yul\":7314:7431   */\n    tag_254:\n        /* \"#utility.yul\":7455:7518   */\n      tag_256\n        /* \"#utility.yul\":7510:7517   */\n      dup10\n        /* \"#utility.yul\":7501:7507   */\n      dup3\n        /* \"#utility.yul\":7490:7499   */\n      dup11\n        /* \"#utility.yul\":7486:7508   */\n      add\n        /* \"#utility.yul\":7455:7518   */\n      tag_147\n      jump\t// in\n    tag_256:\n        /* \"#utility.yul\":7445:7518   */\n      swap3\n      pop\n        /* \"#utility.yul\":7239:7528   */\n      pop\n        /* \"#utility.yul\":7567:7570   */\n      0xa0\n        /* \"#utility.yul\":7594:7647   */\n      tag_257\n        /* \"#utility.yul\":7639:7646   */\n      dup10\n        /* \"#utility.yul\":7630:7636   */\n      dup3\n        /* \"#utility.yul\":7619:7628   */\n      dup11\n        /* \"#utility.yul\":7615:7637   */\n      add\n        /* \"#utility.yul\":7594:7647   */\n      tag_133\n      jump\t// in\n    tag_257:\n        /* \"#utility.yul\":7584:7647   */\n      swap2\n      pop\n        /* \"#utility.yul\":7538:7657   */\n      pop\n        /* \"#utility.yul\":5887:7664   */\n      swap3\n      swap6\n      pop\n      swap3\n      swap6\n      pop\n      swap3\n      swap6\n      jump\t// out\n        /* \"#utility.yul\":7670:7769   */\n    tag_148:\n        /* \"#utility.yul\":7722:7728   */\n      0x00\n        /* \"#utility.yul\":7756:7761   */\n      dup2\n        /* \"#utility.yul\":7750:7762   */\n      mload\n        /* \"#utility.yul\":7740:7762   */\n      swap1\n      pop\n        /* \"#utility.yul\":7670:7769   */\n      swap2\n      swap1\n      pop\n      jump\t// out\n        /* \"#utility.yul\":7775:7944   */\n    tag_149:\n        /* \"#utility.yul\":7859:7870   */\n      0x00\n        /* \"#utility.yul\":7893:7899   */\n      dup3\n        /* \"#utility.yul\":7888:7891   */\n      dup3\n        /* \"#utility.yul\":7881:7900   */\n      mstore\n        /* \"#utility.yul\":7933:7937   */\n      0x20\n        /* \"#utility.yul\":7928:7931   */\n      dup3\n        /* \"#utility.yul\":7924:7938   */\n      add\n        /* \"#utility.yul\":7909:7938   */\n      swap1\n      pop\n        /* \"#utility.yul\":7775:7944   */\n      swap3\n      swap2\n      pop\n      pop\n      jump\t// out\n        /* \"#utility.yul\":7950:8196   */\n    tag_150:\n        /* \"#utility.yul\":8031:8032   */\n      0x00\n        /* \"#utility.yul\":8041:8154   */\n    tag_261:\n        /* \"#utility.yul\":8055:8061   */\n      dup4\n        /* \"#utility.yul\":8052:8053   */\n      dup2\n        /* \"#utility.yul\":8049:8062   */\n      lt\n        /* \"#utility.yul\":8041:8154   */\n      iszero\n      tag_263\n      jumpi\n        /* \"#utility.yul\":8140:8141   */\n      dup1\n        /* \"#utility.yul\":8135:8138   */\n      dup3\n        /* \"#utility.yul\":8131:8142   */\n      add\n        /* \"#utility.yul\":8125:8143   */\n      mload\n        /* \"#utility.yul\":8121:8122   */\n      dup2\n        /* \"#utility.yul\":8116:8119   */\n      dup5\n        /* \"#utility.yul\":8112:8123   */\n      add\n        /* \"#utility.yul\":8105:8144   */\n      mstore\n        /* \"#utility.yul\":8077:8079   */\n      0x20\n        /* \"#utility.yul\":8074:8075   */\n      dup2\n        /* \"#utility.yul\":8070:8080   */\n      add\n        /* \"#utility.yul\":8065:8080   */\n      swap1\n      pop\n        /* \"#utility.yul\":8041:8154   */\n      jump(tag_261)\n    tag_263:\n        /* \"#utility.yul\":8188:8189   */\n      0x00\n        /* \"#utility.yul\":8179:8185   */\n      dup5\n        /* \"#utility.yul\":8174:8177   */\n      dup5\n        /* \"#utility.yul\":8170:8186   */\n      add\n        /* \"#utility.yul\":8163:8190   */\n      mstore\n        /* \"#utility.yul\":8012:8196   */\n      pop\n        /* \"#utility.yul\":7950:8196   */\n      pop\n      pop\n      pop\n      jump\t// out\n        /* \"#utility.yul\":8202:8579   */\n    tag_151:\n        /* \"#utility.yul\":8290:8293   */\n      0x00\n        /* \"#utility.yul\":8318:8357   */\n      tag_265\n        /* \"#utility.yul\":8351:8356   */\n      dup3\n        /* \"#utility.yul\":8318:8357   */\n      tag_148\n      jump\t// in\n    tag_265:\n        /* \"#utility.yul\":8373:8444   */\n      tag_266\n        /* \"#utility.yul\":8437:8443   */\n      dup2\n        /* \"#utility.yul\":8432:8435   */\n      dup6\n        /* \"#utility.yul\":8373:8444   */\n      tag_149\n      jump\t// in\n    tag_266:\n        /* \"#utility.yul\":8366:8444   */\n      swap4\n      pop\n        /* \"#utility.yul\":8453:8518   */\n      tag_267\n        /* \"#utility.yul\":8511:8517   */\n      dup2\n        /* \"#utility.yul\":8506:8509   */\n      dup6\n        /* \"#utility.yul\":8499:8503   */\n      0x20\n        /* \"#utility.yul\":8492:8497   */\n      dup7\n        /* \"#utility.yul\":8488:8504   */\n      add\n        /* \"#utility.yul\":8453:8518   */\n      tag_150\n      jump\t// in\n    tag_267:\n        /* \"#utility.yul\":8543:8572   */\n      tag_268\n        /* \"#utility.yul\":8565:8571   */\n      dup2\n        /* \"#utility.yul\":8543:8572   */\n      tag_140\n      jump\t// in\n    tag_268:\n        /* \"#utility.yul\":8538:8541   */\n      dup5\n        /* \"#utility.yul\":8534:8573   */\n      add\n        /* \"#utility.yul\":8527:8573   */\n      swap2\n      pop\n        /* \"#utility.yul\":8294:8579   */\n      pop\n        /* \"#utility.yul\":8202:8579   */\n      swap3\n      swap2\n      pop\n      pop\n      jump\t// out\n        /* \"#utility.yul\":8585:9934   */\n    tag_51:\n        /* \"#utility.yul\":8948:8952   */\n      0x00\n        /* \"#utility.yul\":8986:8989   */\n      0x0100\n        /* \"#utility.yul\":8975:8984   */\n      dup3\n        /* \"#utility.yul\":8971:8990   */\n      add\n        /* \"#utility.yul\":8963:8990   */\n      swap1\n      pop\n        /* \"#utility.yul\":9036:9045   */\n      dup2\n        /* \"#utility.yul\":9030:9034   */\n      dup2\n        /* \"#utility.yul\":9026:9046   */\n      sub\n        /* \"#utility.yul\":9022:9023   */\n      0x00\n        /* \"#utility.yul\":9011:9020   */\n      dup4\n        /* \"#utility.yul\":9007:9024   */\n      add\n        /* \"#utility.yul\":9000:9047   */\n      mstore\n        /* \"#utility.yul\":9064:9142   */\n      tag_270\n        /* \"#utility.yul\":9137:9141   */\n      dup2\n        /* \"#utility.yul\":9128:9134   */\n      dup12\n        /* \"#utility.yul\":9064:9142   */\n      tag_151\n      jump\t// in\n    tag_270:\n        /* \"#utility.yul\":9056:9142   */\n      swap1\n      pop\n        /* \"#utility.yul\":9189:9198   */\n      dup2\n        /* \"#utility.yul\":9183:9187   */\n      dup2\n        /* \"#utility.yul\":9179:9199   */\n      sub\n        /* \"#utility.yul\":9174:9176   */\n      0x20\n        /* \"#utility.yul\":9163:9172   */\n      dup4\n        /* \"#utility.yul\":9159:9177   */\n      add\n        /* \"#utility.yul\":9152:9200   */\n      mstore\n        /* \"#utility.yul\":9217:9295   */\n      tag_271\n        /* \"#utility.yul\":9290:9294   */\n      dup2\n        /* \"#utility.yul\":9281:9287   */\n      dup11\n        /* \"#utility.yul\":9217:9295   */\n      tag_151\n      jump\t// in\n    tag_271:\n        /* \"#utility.yul\":9209:9295   */\n      swap1\n      pop\n        /* \"#utility.yul\":9342:9351   */\n      dup2\n        /* \"#utility.yul\":9336:9340   */\n      dup2\n        /* \"#utility.yul\":9332:9352   */\n      sub\n        /* \"#utility.yul\":9327:9329   */\n      0x40\n        /* \"#utility.yul\":9316:9325   */\n      dup4\n        /* \"#utility.yul\":9312:9330   */\n      add\n        /* \"#utility.yul\":9305:9353   */\n      mstore\n        /* \"#utility.yul\":9370:9448   */\n      tag_272\n        /* \"#utility.yul\":9443:9447   */\n      dup2\n        /* \"#utility.yul\":9434:9440   */\n      dup10\n        /* \"#utility.yul\":9370:9448   */\n      tag_151\n      jump\t// in\n    tag_272:\n        /* \"#utility.yul\":9362:9448   */\n      swap1\n      pop\n        /* \"#utility.yul\":9458:9530   */\n      tag_273\n        /* \"#utility.yul\":9526:9528   */\n      0x60\n        /* \"#utility.yul\":9515:9524   */\n      dup4\n        /* \"#utility.yul\":9511:9529   */\n      add\n        /* \"#utility.yul\":9502:9508   */\n      dup9\n        /* \"#utility.yul\":9458:9530   */\n      tag_136\n      jump\t// in\n    tag_273:\n        /* \"#utility.yul\":9578:9587   */\n      dup2\n        /* \"#utility.yul\":9572:9576   */\n      dup2\n        /* \"#utility.yul\":9568:9588   */\n      sub\n        /* \"#utility.yul\":9562:9565   */\n      0x80\n        /* \"#utility.yul\":9551:9560   */\n      dup4\n        /* \"#utility.yul\":9547:9566   */\n      add\n        /* \"#utility.yul\":9540:9589   */\n      mstore\n        /* \"#utility.yul\":9606:9684   */\n      tag_274\n        /* \"#utility.yul\":9679:9683   */\n      dup2\n        /* \"#utility.yul\":9670:9676   */\n      dup8\n        /* \"#utility.yul\":9606:9684   */\n      tag_151\n      jump\t// in\n    tag_274:\n        /* \"#utility.yul\":9598:9684   */\n      swap1\n      pop\n        /* \"#utility.yul\":9694:9767   */\n      tag_275\n        /* \"#utility.yul\":9762:9765   */\n      0xa0\n        /* \"#utility.yul\":9751:9760   */\n      dup4\n        /* \"#utility.yul\":9747:9766   */\n      add\n        /* \"#utility.yul\":9738:9744   */\n      dup7\n        /* \"#utility.yul\":9694:9767   */\n      tag_137\n      jump\t// in\n    tag_275:\n        /* \"#utility.yul\":9777:9844   */\n      tag_276\n        /* \"#utility.yul\":9839:9842   */\n      0xc0\n        /* \"#utility.yul\":9828:9837   */\n      dup4\n        /* \"#utility.yul\":9824:9843   */\n      add\n        /* \"#utility.yul\":9815:9821   */\n      dup6\n        /* \"#utility.yul\":9777:9844   */\n      tag_135\n      jump\t// in\n    tag_276:\n        /* \"#utility.yul\":9854:9927   */\n      tag_277\n        /* \"#utility.yul\":9922:9925   */\n      0xe0\n        /* \"#utility.yul\":9911:9920   */\n      dup4\n        /* \"#utility.yul\":9907:9926   */\n      add\n        /* \"#utility.yul\":9898:9904   */\n      dup5\n        /* \"#utility.yul\":9854:9927   */\n      tag_136\n      jump\t// in\n    tag_277:\n        /* \"#utility.yul\":8585:9934   */\n      swap10\n      swap9\n      pop\n      pop\n      pop\n      pop\n      pop\n      pop\n      pop\n      pop\n      pop\n      jump\t// out\n        /* \"#utility.yul\":9940:10120   */\n    tag_71:\n        /* \"#utility.yul\":9988:10065   */\n      0x4e487b7100000000000000000000000000000000000000000000000000000000\n        /* \"#utility.yul\":9985:9986   */\n      0x00\n        /* \"#utility.yul\":9978:10066   */\n      mstore\n        /* \"#utility.yul\":10085:10089   */\n      0x32\n        /* \"#utility.yul\":10082:10083   */\n      0x04\n        /* \"#utility.yul\":10075:10090   */\n      mstore\n        /* \"#utility.yul\":10109:10113   */\n      0x24\n        /* \"#utility.yul\":10106:10107   */\n      0x00\n        /* \"#utility.yul\":10099:10114   */\n      revert\n        /* \"#utility.yul\":10126:10306   */\n    tag_152:\n        /* \"#utility.yul\":10174:10251   */\n      0x4e487b7100000000000000000000000000000000000000000000000000000000\n        /* \"#utility.yul\":10171:10172   */\n      0x00\n        /* \"#utility.yul\":10164:10252   */\n      mstore\n        /* \"#utility.yul\":10271:10275   */\n      0x12\n        /* \"#utility.yul\":10268:10269   */\n      0x04\n        /* \"#utility.yul\":10261:10276   */\n      mstore\n        /* \"#utility.yul\":10295:10299   */\n      0x24\n        /* \"#utility.yul\":10292:10293   */\n      0x00\n        /* \"#utility.yul\":10285:10300   */\n      revert\n        /* \"#utility.yul\":10312:10492   */\n    tag_153:\n        /* \"#utility.yul\":10360:10437   */\n      0x4e487b7100000000000000000000000000000000000000000000000000000000\n        /* \"#utility.yul\":10357:10358   */\n      0x00\n        /* \"#utility.yul\":10350:10438   */\n      mstore\n        /* \"#utility.yul\":10457:10461   */\n      0x11\n        /* \"#utility.yul\":10454:10455   */\n      0x04\n        /* \"#utility.yul\":10447:10462   */\n      mstore\n        /* \"#utility.yul\":10481:10485   */\n      0x24\n        /* \"#utility.yul\":10478:10479   */\n      0x00\n        /* \"#utility.yul\":10471:10486   */\n      revert\n        /* \"#utility.yul\":10498:10683   */\n    tag_74:\n        /* \"#utility.yul\":10538:10539   */\n      0x00\n        /* \"#utility.yul\":10555:10575   */\n      tag_282\n        /* \"#utility.yul\":10573:10574   */\n      dup3\n        /* \"#utility.yul\":10555:10575   */\n      tag_127\n      jump\t// in\n    tag_282:\n        /* \"#utility.yul\":10550:10575   */\n      swap2\n      pop\n        /* \"#utility.yul\":10589:10609   */\n      tag_283\n        /* \"#utility.yul\":10607:10608   */\n      dup4\n        /* \"#utility.yul\":10589:10609   */\n      tag_127\n      jump\t// in\n    tag_283:\n        /* \"#utility.yul\":10584:10609   */\n      swap3\n      pop\n        /* \"#utility.yul\":10628:10629   */\n      dup3\n        /* \"#utility.yul\":10618:10653   */\n      tag_284\n      jumpi\n        /* \"#utility.yul\":10633:10651   */\n      tag_285\n      tag_152\n      jump\t// in\n    tag_285:\n        /* \"#utility.yul\":10618:10653   */\n    tag_284:\n        /* \"#utility.yul\":10675:10676   */\n      dup3\n        /* \"#utility.yul\":10672:10673   */\n      dup3\n        /* \"#utility.yul\":10668:10677   */\n      div\n        /* \"#utility.yul\":10663:10677   */\n      swap1\n      pop\n        /* \"#utility.yul\":10498:10683   */\n      swap3\n      swap2\n      pop\n      pop\n      jump\t// out\n        /* \"#utility.yul\":10689:10869   */\n    tag_154:\n        /* \"#utility.yul\":10737:10814   */\n      0x4e487b7100000000000000000000000000000000000000000000000000000000\n        /* \"#utility.yul\":10734:10735   */\n      0x00\n        /* \"#utility.yul\":10727:10815   */\n      mstore\n        /* \"#utility.yul\":10834:10838   */\n      0x22\n        /* \"#utility.yul\":10831:10832   */\n      0x04\n        /* \"#utility.yul\":10824:10839   */\n      mstore\n        /* \"#utility.yul\":10858:10862   */\n      0x24\n        /* \"#utility.yul\":10855:10856   */\n      0x00\n        /* \"#utility.yul\":10848:10863   */\n      revert\n        /* \"#utility.yul\":10875:11195   */\n    tag_93:\n        /* \"#utility.yul\":10919:10925   */\n      0x00\n        /* \"#utility.yul\":10956:10957   */\n      0x02\n        /* \"#utility.yul\":10950:10954   */\n      dup3\n        /* \"#utility.yul\":10946:10958   */\n      div\n        /* \"#utility.yul\":10936:10958   */\n      swap1\n      pop\n        /* \"#utility.yul\":11003:11004   */\n      0x01\n        /* \"#utility.yul\":10997:11001   */\n      dup3\n        /* \"#utility.yul\":10993:11005   */\n      and\n        /* \"#utility.yul\":11024:11042   */\n      dup1\n        /* \"#utility.yul\":11014:11095   */\n      tag_288\n      jumpi\n        /* \"#utility.yul\":11080:11084   */\n      0x7f\n        /* \"#utility.yul\":11072:11078   */\n      dup3\n        /* \"#utility.yul\":11068:11085   */\n      and\n        /* \"#utility.yul\":11058:11085   */\n      swap2\n      pop\n        /* \"#utility.yul\":11014:11095   */\n    tag_288:\n        /* \"#utility.yul\":11142:11144   */\n      0x20\n        /* \"#utility.yul\":11134:11140   */\n      dup3\n        /* \"#utility.yul\":11131:11145   */\n      lt\n        /* \"#utility.yul\":11111:11129   */\n      dup2\n        /* \"#utility.yul\":11108:11146   */\n      sub\n        /* \"#utility.yul\":11105:11189   */\n      tag_289\n      jumpi\n        /* \"#utility.yul\":11161:11179   */\n      tag_290\n      tag_154\n      jump\t// in\n    tag_290:\n        /* \"#utility.yul\":11105:11189   */\n    tag_289:\n        /* \"#utility.yul\":10926:11195   */\n      pop\n        /* \"#utility.yul\":10875:11195   */\n      swap2\n      swap1\n      pop\n      jump\t// out\n        /* \"#utility.yul\":11201:11342   */\n    tag_155:\n        /* \"#utility.yul\":11250:11254   */\n      0x00\n        /* \"#utility.yul\":11273:11276   */\n      dup2\n        /* \"#utility.yul\":11265:11276   */\n      swap1\n      pop\n        /* \"#utility.yul\":11296:11299   */\n      dup2\n        /* \"#utility.yul\":11293:11294   */\n      0x00\n        /* \"#utility.yul\":11286:11300   */\n      mstore\n        /* \"#utility.yul\":11330:11334   */\n      0x20\n        /* \"#utility.yul\":11327:11328   */\n      0x00\n        /* \"#utility.yul\":11317:11335   */\n      keccak256\n        /* \"#utility.yul\":11309:11335   */\n      swap1\n      pop\n        /* \"#utility.yul\":11201:11342   */\n      swap2\n      swap1\n      pop\n      jump\t// out\n        /* \"#utility.yul\":11348:11441   */\n    tag_156:\n        /* \"#utility.yul\":11385:11391   */\n      0x00\n        /* \"#utility.yul\":11432:11434   */\n      0x20\n        /* \"#utility.yul\":11427:11429   */\n      0x1f\n        /* \"#utility.yul\":11420:11425   */\n      dup4\n        /* \"#utility.yul\":11416:11430   */\n      add\n        /* \"#utility.yul\":11412:11435   */\n      div\n        /* \"#utility.yul\":11402:11435   */\n      swap1\n      pop\n        /* \"#utility.yul\":11348:11441   */\n      swap2\n      swap1\n      pop\n      jump\t// out\n        /* \"#utility.yul\":11447:11554   */\n    tag_157:\n        /* \"#utility.yul\":11491:11499   */\n      0x00\n        /* \"#utility.yul\":11541:11546   */\n      dup3\n        /* \"#utility.yul\":11535:11539   */\n      dup3\n        /* \"#utility.yul\":11531:11547   */\n      shl\n        /* \"#utility.yul\":11510:11547   */\n      swap1\n      pop\n        /* \"#utility.yul\":11447:11554   */\n      swap3\n      swap2\n      pop\n      pop\n      jump\t// out\n        /* \"#utility.yul\":11560:11953   */\n    tag_158:\n        /* \"#utility.yul\":11629:11635   */\n      0x00\n        /* \"#utility.yul\":11679:11680   */\n      0x08\n        /* \"#utility.yul\":11667:11677   */\n      dup4\n        /* \"#utility.yul\":11663:11681   */\n      mul\n        /* \"#utility.yul\":11702:11799   */\n      tag_295\n        /* \"#utility.yul\":11732:11798   */\n      0xffffffffffffffffffffffffffffffffffffffffffffffffffffffffffffffff\n        /* \"#utility.yul\":11721:11730   */\n      dup3\n        /* \"#utility.yul\":11702:11799   */\n      tag_157\n      jump\t// in\n    tag_295:\n        /* \"#utility.yul\":11820:11859   */\n      tag_296\n        /* \"#utility.yul\":11850:11858   */\n      dup7\n        /* \"#utility.yul\":11839:11848   */\n      dup4\n        /* \"#utility.yul\":11820:11859   */\n      tag_157\n      jump\t// in\n    tag_296:\n        /* \"#utility.yul\":11808:11859   */\n      swap6\n      pop\n        /* \"#utility.yul\":11892:11896   */\n      dup1\n        /* \"#utility.yul\":11888:11897   */\n      not\n        /* \"#utility.yul\":11881:11886   */\n      dup5\n        /* \"#utility.yul\":11877:11898   */\n      and\n        /* \"#utility.yul\":11868:11898   */\n      swap4\n      pop\n        /* \"#utility.yul\":11941:11945   */\n      dup1\n        /* \"#utility.yul\":11931:11939   */\n      dup7\n        /* \"#utility.yul\":11927:11946   */\n      and\n        /* \"#utility.yul\":11920:11925   */\n      dup5\n        /* \"#utility.yul\":11917:11947   */\n      or\n        /* \"#utility.yul\":11907:11947   */\n      swap3\n      pop\n        /* \"#utility.yul\":11636:11953   */\n      pop\n      pop\n        /* \"#utility.yul\":11560:11953   */\n      swap4\n      swap3\n      pop\n      pop\n      pop\n      jump\t// out\n        /* \"#utility.yul\":11959:12019   */\n    tag_159:\n        /* \"#utility.yul\":11987:11990   */\n      0x00\n        /* \"#utility.yul\":12008:12013   */\n      dup2\n        /* \"#utility.yul\":12001:12013   */\n      swap1\n      pop\n        /* \"#utility.yul\":11959:12019   */\n      swap2\n      swap1\n      pop\n      jump\t// out\n        /* \"#utility.yul\":12025:12167   */\n    tag_160:\n        /* \"#utility.yul\":12075:12084   */\n      0x00\n        /* \"#utility.yul\":12108:12161   */\n      tag_299\n        /* \"#utility.yul\":12126:12160   */\n      tag_300\n        /* \"#utility.yul\":12135:12159   */\n      tag_301\n        /* \"#utility.yul\":12153:12158   */\n      dup5\n        /* \"#utility.yul\":12135:12159   */\n      tag_127\n      jump\t// in\n    tag_301:\n        /* \"#utility.yul\":12126:12160   */\n      tag_159\n      jump\t// in\n    tag_300:\n        /* \"#utility.yul\":12108:12161   */\n      tag_127\n      jump\t// in\n    tag_299:\n        /* \"#utility.yul\":12095:12161   */\n      swap1\n      pop\n        /* \"#utility.yul\":12025:12167   */\n      swap2\n      swap1\n      pop\n      jump\t// out\n        /* \"#utility.yul\":12173:12248   */\n    tag_161:\n        /* \"#utility.yul\":12216:12219   */\n      0x00\n        /* \"#utility.yul\":12237:12242   */\n      dup2\n        /* \"#utility.yul\":12230:12242   */\n      swap1\n      pop\n        /* \"#utility.yul\":12173:12248   */\n      swap2\n      swap1\n      pop\n      jump\t// out\n        /* \"#utility.yul\":12254:12523   */\n    tag_162:\n        /* \"#utility.yul\":12364:12403   */\n      tag_304\n        /* \"#utility.yul\":12395:12402   */\n      dup4\n        /* \"#utility.yul\":12364:12403   */\n      tag_160\n      jump\t// in\n    tag_304:\n        /* \"#utility.yul\":12425:12516   */\n      tag_305\n        /* \"#utility.yul\":12474:12515   */\n      tag_306\n        /* \"#utility.yul\":12498:12514   */\n      dup3\n        /* \"#utility.yul\":12474:12515   */\n      tag_161\n      jump\t// in\n    tag_306:\n        /* \"#utility.yul\":12466:12472   */\n      dup5\n        /* \"#utility.yul\":12459:12463   */\n      dup5\n        /* \"#utility.yul\":12453:12464   */\n      sload\n        /* \"#utility.yul\":12425:12516   */\n      tag_158\n      jump\t// in\n    tag_305:\n        /* \"#utility.yul\":12419:12423   */\n      dup3\n        /* \"#utility.yul\":12412:12517   */\n      sstore\n        /* \"#utility.yul\":12330:12523   */\n      pop\n        /* \"#utility.yul\":12254:12523   */\n      pop\n      pop\n      pop\n      jump\t// out\n        /* \"#utility.yul\":12529:12602   */\n    tag_163:\n        /* \"#utility.yul\":12574:12577   */\n      0x00\n        /* \"#utility.yul\":12529:12602   */\n      swap1\n      jump\t// out\n        /* \"#utility.yul\":12608:12797   */\n    tag_164:\n        /* \"#utility.yul\":12685:12717   */\n      tag_309\n      tag_163\n      jump\t// in\n    tag_309:\n        /* \"#utility.yul\":12726:12791   */\n      tag_310\n        /* \"#utility.yul\":12784:12790   */\n      dup2\n        /* \"#utility.yul\":12776:12782   */\n      dup5\n        /* \"#utility.yul\":12770:12774   */\n      dup5\n        /* \"#utility.yul\":12726:12791   */\n      tag_162\n      jump\t// in\n    tag_310:\n        /* \"#utility.yul\":12661:12797   */\n      pop\n        /* \"#utility.yul\":12608:12797   */\n      pop\n      pop\n      jump\t// out\n        /* \"#utility.yul\":12803:12989   */\n    tag_165:\n        /* \"#utility.yul\":12863:12983   */\n    tag_312:\n        /* \"#utility.yul\":12880:12883   */\n      dup2\n        /* \"#utility.yul\":12873:12878   */\n      dup2\n        /* \"#utility.yul\":12870:12884   */\n      lt\n        /* \"#utility.yul\":12863:12983   */\n      iszero\n      tag_314\n      jumpi\n        /* \"#utility.yul\":12934:12973   */\n      tag_315\n        /* \"#utility.yul\":12971:12972   */\n      0x00\n        /* \"#utility.yul\":12964:12969   */\n      dup3\n        /* \"#utility.yul\":12934:12973   */\n      tag_164\n      jump\t// in\n    tag_315:\n        /* \"#utility.yul\":12907:12908   */\n      0x01\n        /* \"#utility.yul\":12900:12905   */\n      dup2\n        /* \"#utility.yul\":12896:12909   */\n      add\n        /* \"#utility.yul\":12887:12909   */\n      swap1\n      pop\n        /* \"#utility.yul\":12863:12983   */\n      jump(tag_312)\n    tag_314:\n        /* \"#utility.yul\":12803:12989   */\n      pop\n      pop\n      jump\t// out\n        /* \"#utility.yul\":12995:13538   */\n    tag_166:\n        /* \"#utility.yul\":13096:13098   */\n      0x1f\n        /* \"#utility.yul\":13091:13094   */\n      dup3\n        /* \"#utility.yul\":13088:13099   */\n      gt\n        /* \"#utility.yul\":13085:13531   */\n      iszero\n      tag_317\n      jumpi\n        /* \"#utility.yul\":13130:13168   */\n      tag_318\n        /* \"#utility.yul\":13162:13167   */\n      dup2\n        /* \"#utility.yul\":13130:13168   */\n      tag_155\n      jump\t// in\n    tag_318:\n        /* \"#utility.yul\":13214:13243   */\n      tag_319\n        /* \"#utility.yul\":13232:13242   */\n      dup5\n        /* \"#utility.yul\":13214:13243   */\n      tag_156\n      jump\t// in\n    tag_319:\n        /* \"#utility.yul\":13204:13212   */\n      dup2\n        /* \"#utility.yul\":13200:13244   */\n      add\n        /* \"#utility.yul\":13397:13399   */\n      0x20\n        /* \"#utility.yul\":13385:13395   */\n      dup6\n        /* \"#utility.yul\":13382:13400   */\n      lt\n        /* \"#utility.yul\":13379:13428   */\n      iszero\n      tag_320\n      jumpi\n        /* \"#utility.yul\":13418:13426   */\n      dup2\n        /* \"#utility.yul\":13403:13426   */\n      swap1\n      pop\n        /* \"#utility.yul\":13379:13428   */\n    tag_320:\n        /* \"#utility.yul\":13441:13521   */\n      tag_321\n        /* \"#utility.yul\":13497:13519   */\n      tag_322\n        /* \"#utility.yul\":13515:13518   */\n      dup6\n        /* \"#utility.yul\":13497:13519   */\n      tag_156\n      jump\t// in\n    tag_322:\n        /* \"#utility.yul\":13487:13495   */\n      dup4\n        /* \"#utility.yul\":13483:13520   */\n      add\n        /* \"#utility.yul\":13470:13481   */\n      dup3\n        /* \"#utility.yul\":13441:13521   */\n      tag_165\n      jump\t// in\n    tag_321:\n        /* \"#utility.yul\":13100:13531   */\n      pop\n      pop\n        /* \"#utility.yul\":13085:13531   */\n    tag_317:\n        /* \"#utility.yul\":12995:13538   */\n      pop\n      pop\n      pop\n      jump\t// out\n        /* \"#utility.yul\":13544:13661   */\n    tag_167:\n        /* \"#utility.yul\":13598:13606   */\n      0x00\n        /* \"#utility.yul\":13648:13653   */\n      dup3\n        /* \"#utility.yul\":13642:13646   */\n      dup3\n        /* \"#utility.yul\":13638:13654   */\n      shr\n        /* \"#utility.yul\":13617:13654   */\n      swap1\n      pop\n        /* \"#utility.yul\":13544:13661   */\n      swap3\n      swap2\n      pop\n      pop\n      jump\t// out\n        /* \"#utility.yul\":13667:13836   */\n    tag_168:\n        /* \"#utility.yul\":13711:13717   */\n      0x00\n        /* \"#utility.yul\":13744:13795   */\n      tag_325\n        /* \"#utility.yul\":13792:13793   */\n      0x00\n        /* \"#utility.yul\":13788:13794   */\n      not\n        /* \"#utility.yul\":13780:13785   */\n      dup5\n        /* \"#utility.yul\":13777:13778   */\n      0x08\n        /* \"#utility.yul\":13773:13786   */\n      mul\n        /* \"#utility.yul\":13744:13795   */\n      tag_167\n      jump\t// in\n    tag_325:\n        /* \"#utility.yul\":13740:13796   */\n      not\n        /* \"#utility.yul\":13825:13829   */\n      dup1\n        /* \"#utility.yul\":13819:13823   */\n      dup4\n        /* \"#utility.yul\":13815:13830   */\n      and\n        /* \"#utility.yul\":13805:13830   */\n      swap2\n      pop\n        /* \"#utility.yul\":13718:13836   */\n      pop\n        /* \"#utility.yul\":13667:13836   */\n      swap3\n      swap2\n      pop\n      pop\n      jump\t// out\n        /* \"#utility.yul\":13841:14136   */\n    tag_169:\n        /* \"#utility.yul\":13917:13921   */\n      0x00\n        /* \"#utility.yul\":14063:14092   */\n      tag_327\n        /* \"#utility.yul\":14088:14091   */\n      dup4\n        /* \"#utility.yul\":14082:14086   */\n      dup4\n        /* \"#utility.yul\":14063:14092   */\n      tag_168\n      jump\t// in\n    tag_327:\n        /* \"#utility.yul\":14055:14092   */\n      swap2\n      pop\n        /* \"#utility.yul\":14125:14128   */\n      dup3\n        /* \"#utility.yul\":14122:14123   */\n      0x02\n        /* \"#utility.yul\":14118:14129   */\n      mul\n        /* \"#utility.yul\":14112:14116   */\n      dup3\n        /* \"#utility.yul\":14109:14130   */\n      or\n        /* \"#utility.yul\":14101:14130   */\n      swap1\n      pop\n        /* \"#utility.yul\":13841:14136   */\n      swap3\n      swap2\n      pop\n      pop\n      jump\t// out\n        /* \"#utility.yul\":14141:15536   */\n    tag_86:\n        /* \"#utility.yul\":14258:14295   */\n      tag_329\n        /* \"#utility.yul\":14291:14294   */\n      dup3\n        /* \"#utility.yul\":14258:14295   */\n      tag_148\n      jump\t// in\n    tag_329:\n        /* \"#utility.yul\":14360:14378   */\n      0xffffffffffffffff\n        /* \"#utility.yul\":14352:14358   */\n      dup2\n        /* \"#utility.yul\":14349:14379   */\n      gt\n        /* \"#utility.yul\":14346:14402   */\n      iszero\n      tag_330\n      jumpi\n        /* \"#utility.yul\":14382:14400   */\n      tag_331\n      tag_141\n      jump\t// in\n    tag_331:\n        /* \"#utility.yul\":14346:14402   */\n    tag_330:\n        /* \"#utility.yul\":14426:14464   */\n      tag_332\n        /* \"#utility.yul\":14458:14462   */\n      dup3\n        /* \"#utility.yul\":14452:14463   */\n      sload\n        /* \"#utility.yul\":14426:14464   */\n      tag_93\n      jump\t// in\n    tag_332:\n        /* \"#utility.yul\":14511:14578   */\n      tag_333\n        /* \"#utility.yul\":14571:14577   */\n      dup3\n        /* \"#utility.yul\":14563:14569   */\n      dup3\n        /* \"#utility.yul\":14557:14561   */\n      dup6\n        /* \"#utility.yul\":14511:14578   */\n      tag_166\n      jump\t// in\n    tag_333:\n        /* \"#utility.yul\":14605:14606   */\n      0x00\n        /* \"#utility.yul\":14629:14633   */\n      0x20\n        /* \"#utility.yul\":14616:14633   */\n      swap1\n      pop\n        /* \"#utility.yul\":14661:14663   */\n      0x1f\n        /* \"#utility.yul\":14653:14659   */\n      dup4\n        /* \"#utility.yul\":14650:14664   */\n      gt\n        /* \"#utility.yul\":14678:14679   */\n      0x01\n        /* \"#utility.yul\":14673:15291   */\n      dup2\n      eq\n      tag_335\n      jumpi\n        /* \"#utility.yul\":15335:15336   */\n      0x00\n        /* \"#utility.yul\":15352:15358   */\n      dup5\n        /* \"#utility.yul\":15349:15426   */\n      iszero\n      tag_336\n      jumpi\n        /* \"#utility.yul\":15401:15410   */\n      dup3\n        /* \"#utility.yul\":15396:15399   */\n      dup8\n        /* \"#utility.yul\":15392:15411   */\n      add\n        /* \"#utility.yul\":15386:15412   */\n      mload\n        /* \"#utility.yul\":15377:15412   */\n      swap1\n      pop\n        /* \"#utility.yul\":15349:15426   */\n    tag_336:\n        /* \"#utility.yul\":15452:15519   */\n      tag_337\n        /* \"#utility.yul\":15512:15518   */\n      dup6\n        /* \"#utility.yul\":15505:15510   */\n      dup3\n        /* \"#utility.yul\":15452:15519   */\n      tag_169\n      jump\t// in\n    tag_337:\n        /* \"#utility.yul\":15446:15450   */\n      dup7\n        /* \"#utility.yul\":15439:15520   */\n      sstore\n        /* \"#utility.yul\":15308:15530   */\n      pop\n        /* \"#utility.yul\":14643:15530   */\n      jump(tag_334)\n        /* \"#utility.yul\":14673:15291   */\n    tag_335:\n        /* \"#utility.yul\":14725:14729   */\n      0x1f\n        /* \"#utility.yul\":14721:14730   */\n      not\n        /* \"#utility.yul\":14713:14719   */\n      dup5\n        /* \"#utility.yul\":14709:14731   */\n      and\n        /* \"#utility.yul\":14759:14796   */\n      tag_338\n        /* \"#utility.yul\":14791:14795   */\n      dup7\n        /* \"#utility.yul\":14759:14796   */\n      tag_155\n      jump\t// in\n    tag_338:\n        /* \"#utility.yul\":14818:14819   */\n      0x00\n        /* \"#utility.yul\":14832:15040   */\n    tag_339:\n        /* \"#utility.yul\":14846:14853   */\n      dup3\n        /* \"#utility.yul\":14843:14844   */\n      dup2\n        /* \"#utility.yul\":14840:14854   */\n      lt\n        /* \"#utility.yul\":14832:15040   */\n      iszero\n      tag_341\n      jumpi\n        /* \"#utility.yul\":14925:14934   */\n      dup5\n        /* \"#utility.yul\":14920:14923   */\n      dup10\n        /* \"#utility.yul\":14916:14935   */\n      add\n        /* \"#utility.yul\":14910:14936   */\n      mload\n        /* \"#utility.yul\":14902:14908   */\n      dup3\n        /* \"#utility.yul\":14895:14937   */\n      sstore\n        /* \"#utility.yul\":14976:14977   */\n      0x01\n        /* \"#utility.yul\":14968:14974   */\n      dup3\n        /* \"#utility.yul\":14964:14978   */\n      add\n        /* \"#utility.yul\":14954:14978   */\n      swap2\n      pop\n        /* \"#utility.yul\":15023:15025   */\n      0x20\n        /* \"#utility.yul\":15012:15021   */\n      dup6\n        /* \"#utility.yul\":15008:15026   */\n      add\n        /* \"#utility.yul\":14995:15026   */\n      swap5\n      pop\n        /* \"#utility.yul\":14869:14873   */\n      0x20\n        /* \"#utility.yul\":14866:14867   */\n      dup2\n        /* \"#utility.yul\":14862:14874   */\n      add\n        /* \"#utility.yul\":14857:14874   */\n      swap1\n      pop\n        /* \"#utility.yul\":14832:15040   */\n      jump(tag_339)\n    tag_341:\n        /* \"#utility.yul\":15068:15074   */\n      dup7\n        /* \"#utility.yul\":15059:15066   */\n      dup4\n        /* \"#utility.yul\":15056:15075   */\n      lt\n        /* \"#utility.yul\":15053:15232   */\n      iszero\n      tag_342\n      jumpi\n        /* \"#utility.yul\":15126:15135   */\n      dup5\n        /* \"#utility.yul\":15121:15124   */\n      dup10\n        /* \"#utility.yul\":15117:15136   */\n      add\n        /* \"#utility.yul\":15111:15137   */\n      mload\n        /* \"#utility.yul\":15169:15217   */\n      tag_343\n        /* \"#utility.yul\":15211:15215   */\n      0x1f\n        /* \"#utility.yul\":15203:15209   */\n      dup10\n        /* \"#utility.yul\":15199:15216   */\n      and\n        /* \"#utility.yul\":15188:15197   */\n      dup3\n        /* \"#utility.yul\":15169:15217   */\n      tag_168\n      jump\t// in\n    tag_343:\n        /* \"#utility.yul\":15161:15167   */\n      dup4\n        /* \"#utility.yul\":15154:15218   */\n      sstore\n        /* \"#utility.yul\":15076:15232   */\n      pop\n        /* \"#utility.yul\":15053:15232   */\n    tag_342:\n        /* \"#utility.yul\":15278:15279   */\n      0x01\n        /* \"#utility.yul\":15274:15275   */\n      0x02\n        /* \"#utility.yul\":15266:15272   */\n      dup9\n        /* \"#utility.yul\":15262:15276   */\n      mul\n        /* \"#utility.yul\":15258:15280   */\n      add\n        /* \"#utility.yul\":15252:15256   */\n      dup9\n        /* \"#utility.yul\":15245:15281   */\n      sstore\n        /* \"#utility.yul\":14680:15291   */\n      pop\n      pop\n      pop\n        /* \"#utility.yul\":14643:15530   */\n    tag_334:\n      pop\n        /* \"#utility.yul\":14233:15536   */\n      pop\n      pop\n      pop\n        /* \"#utility.yul\":14141:15536   */\n      pop\n      pop\n      jump\t// out\n        /* \"#utility.yul\":15542:15775   */\n    tag_116:\n        /* \"#utility.yul\":15581:15584   */\n      0x00\n        /* \"#utility.yul\":15604:15628   */\n      tag_345\n        /* \"#utility.yul\":15622:15627   */\n      dup3\n        /* \"#utility.yul\":15604:15628   */\n      tag_127\n      jump\t// in\n    tag_345:\n        /* \"#utility.yul\":15595:15628   */\n      swap2\n      pop\n        /* \"#utility.yul\":15650:15716   */\n      0xffffffffffffffffffffffffffffffffffffffffffffffffffffffffffffffff\n        /* \"#utility.yul\":15643:15648   */\n      dup3\n        /* \"#utility.yul\":15640:15717   */\n      sub\n        /* \"#utility.yul\":15637:15740   */\n      tag_346\n      jumpi\n        /* \"#utility.yul\":15720:15738   */\n      tag_347\n      tag_153\n      jump\t// in\n    tag_347:\n        /* \"#utility.yul\":15637:15740   */\n    tag_346:\n        /* \"#utility.yul\":15767:15768   */\n      0x01\n        /* \"#utility.yul\":15760:15765   */\n      dup3\n        /* \"#utility.yul\":15756:15769   */\n      add\n        /* \"#utility.yul\":15749:15769   */\n      swap1\n      pop\n        /* \"#utility.yul\":15542:15775   */\n      swap2\n      swap1\n      pop\n      jump\t// out\n\n    auxdata: 0xa2646970667358221220b56e9b873474baa7e402fc68c745b07b792c3f003882d2f2a7f3a4b7c9c1bfba64736f6c63430008130033\n}\n","bytecode":{"linkReferences":{},"object":"60806040523480156200001157600080fd5b50604051620014fc380380620014fc83398181016040528101906200003791906200012c565b80600160006101000a81548173ffffffffffffffffffffffffffffffffffffffff021916908373ffffffffffffffffffffffffffffffffffffffff16021790555081600281905550505062000173565b600080fd5b6000819050919050565b620000a1816200008c565b8114620000ad57600080fd5b50565b600081519050620000c18162000096565b92915050565b600073ffffffffffffffffffffffffffffffffffffffff82169050919050565b6000620000f482620000c7565b9050919050565b6200010681620000e7565b81146200011257600080fd5b50565b6000815190506200012681620000fb565b92915050565b6000806040838503121562000146576200014562000087565b5b60006200015685828601620000b0565b9250506020620001698582860162000115565b9150509250929050565b61137980620001836000396000f3fe60806040526004361061009c5760003560e01c80635b1410b5116100645780635b1410b51461018c57806381d12c58146101b557806382fde093146101f9578063937e09b114610224578063d7bb99ba1461024f578063d7d1bbdb146102595761009c565b806303441006146100a15780630a144391146100ca5780633410452a146101075780634051ddac14610132578063481c6a7514610161575b600080fd5b3480156100ad57600080fd5b506100c860048036038101906100c39190610a6e565b610282565b005b3480156100d657600080fd5b506100f160048036038101906100ec9190610af9565b6103cb565b6040516100fe9190610b41565b60405180910390f35b34801561011357600080fd5b5061011c6103eb565b6040516101299190610b6b565b60405180910390f35b34801561013e57600080fd5b506101476103f7565b604051610158959493929190610b95565b60405180910390f35b34801561016d57600080fd5b50610176610440565b6040516101839190610be8565b60405180910390f35b34801561019857600080fd5b506101b360048036038101906101ae9190610d49565b610466565b005b3480156101c157600080fd5b506101dc60048036038101906101d79190610a6e565b6105a7565b6040516101f0989796959493929190610ec5565b60405180910390f35b34801561020557600080fd5b5061020e61084c565b60405161021b9190610b6b565b60405180910390f35b34801561023057600080fd5b50610239610852565b6040516102469190610b6b565b60405180910390f35b610257610858565b005b34801561026557600080fd5b50610280600480360381019061027b9190610a6e565b6108d8565b005b600160009054906101000a900473ffffffffffffffffffffffffffffffffffffffff1673ffffffffffffffffffffffffffffffffffffffff163373ffffffffffffffffffffffffffffffffffffffff16146102dc57600080fd5b60008082815481106102f1576102f0610f5f565b5b9060005260206000209060080201905060026004546103109190610fec565b81600601541161031f57600080fd5b8060050160149054906101000a900460ff161561033b57600080fd5b8060050160009054906101000a900473ffffffffffffffffffffffffffffffffffffffff1673ffffffffffffffffffffffffffffffffffffffff166108fc82600301549081150290604051600060405180830381858888f193505050501580156103a9573d6000803e3d6000fd5b5060018160050160146101000a81548160ff0219169083151502179055505050565b60036020528060005260406000206000915054906101000a900460ff1681565b60008080549050905090565b600080600080600060025447600080549050600454600160009054906101000a900473ffffffffffffffffffffffffffffffffffffffff16945094509450945094509091929394565b600160009054906101000a900473ffffffffffffffffffffffffffffffffffffffff1681565b600160009054906101000a900473ffffffffffffffffffffffffffffffffffffffff1673ffffffffffffffffffffffffffffffffffffffff163373ffffffffffffffffffffffffffffffffffffffff16146104c057600080fd5b6000806001816001815401808255809150500390600052602060002090600802019050868160000190816104f49190611229565b50858160010190816105069190611229565b50848160020190816105189190611229565b50838160030181905550828160040190816105339190611229565b50818160050160006101000a81548173ffffffffffffffffffffffffffffffffffffffff021916908373ffffffffffffffffffffffffffffffffffffffff16021790555060008160050160146101000a81548160ff0219169083151502179055506000816006018190555050505050505050565b600081815481106105b757600080fd5b90600052602060002090600802016000915090508060000180546105da9061104c565b80601f01602080910402602001604051908101604052809291908181526020018280546106069061104c565b80156106535780601f1061062857610100808354040283529160200191610653565b820191906000526020600020905b81548152906001019060200180831161063657829003601f168201915b5050505050908060010180546106689061104c565b80601f01602080910402602001604051908101604052809291908181526020018280546106949061104c565b80156106e15780601f106106b6576101008083540402835291602001916106e1565b820191906000526020600020905b8154815290600101906020018083116106c457829003601f168201915b5050505050908060020180546106f69061104c565b80601f01602080910402602001604051908101604052809291908181526020018280546107229061104c565b801561076f5780601f106107445761010080835404028352916020019161076f565b820191906000526020600020905b81548152906001019060200180831161075257829003601f168201915b50505050509080600301549080600401805461078a9061104c565b80601f01602080910402602001604051908101604052809291908181526020018280546107b69061104c565b80156108035780601f106107d857610100808354040283529160200191610803565b820191906000526020600020905b8154815290600101906020018083116107e657829003601f168201915b5050505050908060050160009054906101000a900473ffffffffffffffffffffffffffffffffffffffff16908060050160149054906101000a900460ff16908060060154905088565b60045481565b60025481565b600254341161086657600080fd5b6001600360003373ffffffffffffffffffffffffffffffffffffffff1673ffffffffffffffffffffffffffffffffffffffff16815260200190815260200160002060006101000a81548160ff021916908315150217905550600460008154809291906108d1906112fb565b9190505550565b60008082815481106108ed576108ec610f5f565b5b90600052602060002090600802019050600360003373ffffffffffffffffffffffffffffffffffffffff1673ffffffffffffffffffffffffffffffffffffffff16815260200190815260200160002060009054906101000a900460ff1661095357600080fd5b8060070160003373ffffffffffffffffffffffffffffffffffffffff1673ffffffffffffffffffffffffffffffffffffffff16815260200190815260200160002060009054906101000a900460ff16156109ac57600080fd5b60018160070160003373ffffffffffffffffffffffffffffffffffffffff1673ffffffffffffffffffffffffffffffffffffffff16815260200190815260200160002060006101000a81548160ff021916908315150217905550806006016000815480929190610a1b906112fb565b91905055505050565b6000604051905090565b600080fd5b600080fd5b6000819050919050565b610a4b81610a38565b8114610a5657600080fd5b50565b600081359050610a6881610a42565b92915050565b600060208284031215610a8457610a83610a2e565b5b6000610a9284828501610a59565b91505092915050565b600073ffffffffffffffffffffffffffffffffffffffff82169050919050565b6000610ac682610a9b565b9050919050565b610ad681610abb565b8114610ae157600080fd5b50565b600081359050610af381610acd565b92915050565b600060208284031215610b0f57610b0e610a2e565b5b6000610b1d84828501610ae4565b91505092915050565b60008115159050919050565b610b3b81610b26565b82525050565b6000602082019050610b566000830184610b32565b92915050565b610b6581610a38565b82525050565b6000602082019050610b806000830184610b5c565b92915050565b610b8f81610abb565b82525050565b600060a082019050610baa6000830188610b5c565b610bb76020830187610b5c565b610bc46040830186610b5c565b610bd16060830185610b5c565b610bde6080830184610b86565b9695505050505050565b6000602082019050610bfd6000830184610b86565b92915050565b600080fd5b600080fd5b6000601f19601f8301169050919050565b7f4e487b7100000000000000000000000000000000000000000000000000000000600052604160045260246000fd5b610c5682610c0d565b810181811067ffffffffffffffff82111715610c7557610c74610c1e565b5b80604052505050565b6000610c88610a24565b9050610c948282610c4d565b919050565b600067ffffffffffffffff821115610cb457610cb3610c1e565b5b610cbd82610c0d565b9050602081019050919050565b82818337600083830152505050565b6000610cec610ce784610c99565b610c7e565b905082815260208101848484011115610d0857610d07610c08565b5b610d13848285610cca565b509392505050565b600082601f830112610d3057610d2f610c03565b5b8135610d40848260208601610cd9565b91505092915050565b60008060008060008060c08789031215610d6657610d65610a2e565b5b600087013567ffffffffffffffff811115610d8457610d83610a33565b5b610d9089828a01610d1b565b965050602087013567ffffffffffffffff811115610db157610db0610a33565b5b610dbd89828a01610d1b565b955050604087013567ffffffffffffffff811115610dde57610ddd610a33565b5b610dea89828a01610d1b565b9450506060610dfb89828a01610a59565b935050608087013567ffffffffffffffff811115610e1c57610e1b610a33565b5b610e2889828a01610d1b565b92505060a0610e3989828a01610ae4565b9150509295509295509295565b600081519050919050565b600082825260208201905092915050565b60005b83811015610e80578082015181840152602081019050610e65565b60008484015250505050565b6000610e9782610e46565b610ea18185610e51565b9350610eb1818560208601610e62565b610eba81610c0d565b840191505092915050565b6000610100820190508181036000830152610ee0818b610e8c565b90508181036020830152610ef4818a610e8c565b90508181036040830152610f088189610e8c565b9050610f176060830188610b5c565b8181036080830152610f298187610e8c565b9050610f3860a0830186610b86565b610f4560c0830185610b32565b610f5260e0830184610b5c565b9998505050505050505050565b7f4e487b7100000000000000000000000000000000000000000000000000000000600052603260045260246000fd5b7f4e487b7100000000000000000000000000000000000000000000000000000000600052601260045260246000fd5b7f4e487b7100000000000000000000000000000000000000000000000000000000600052601160045260246000fd5b6000610ff782610a38565b915061100283610a38565b92508261101257611011610f8e565b5b828204905092915050565b7f4e487b7100000000000000000000000000000000000000000000000000000000600052602260045260246000fd5b6000600282049050600182168061106457607f821691505b6020821081036110775761107661101d565b5b50919050565b60008190508160005260206000209050919050565b60006020601f8301049050919050565b600082821b905092915050565b6000600883026110df7fffffffffffffffffffffffffffffffffffffffffffffffffffffffffffffffff826110a2565b6110e986836110a2565b95508019841693508086168417925050509392505050565b6000819050919050565b600061112661112161111c84610a38565b611101565b610a38565b9050919050565b6000819050919050565b6111408361110b565b61115461114c8261112d565b8484546110af565b825550505050565b600090565b61116961115c565b611174818484611137565b505050565b5b818110156111985761118d600082611161565b60018101905061117a565b5050565b601f8211156111dd576111ae8161107d565b6111b784611092565b810160208510156111c6578190505b6111da6111d285611092565b830182611179565b50505b505050565b600082821c905092915050565b6000611200600019846008026111e2565b1980831691505092915050565b600061121983836111ef565b9150826002028217905092915050565b61123282610e46565b67ffffffffffffffff81111561124b5761124a610c1e565b5b611255825461104c565b61126082828561119c565b600060209050601f8311600181146112935760008415611281578287015190505b61128b858261120d565b8655506112f3565b601f1984166112a18661107d565b60005b828110156112c9578489015182556001820191506020850194506020810190506112a4565b868310156112e657848901516112e2601f8916826111ef565b8355505b6001600288020188555050505b505050505050565b600061130682610a38565b91507fffffffffffffffffffffffffffffffffffffffffffffffffffffffffffffffff820361133857611337610fbd565b5b60018201905091905056fea2646970667358221220b56e9b873474baa7e402fc68c745b07b792c3f003882d2f2a7f3a4b7c9c1bfba64736f6c63430008130033","opcodes":"PUSH1 0x80 PUSH1 0x40 MSTORE CALLVALUE DUP1 ISZERO PUSH3 0x11 JUMPI PUSH1 0x0 DUP1 REVERT JUMPDEST POP PUSH1 0x40 MLOAD PUSH3 0x14FC CODESIZE SUB DUP1 PUSH3 0x14FC DUP4 CODECOPY DUP2 DUP2 ADD PUSH1 0x40 MSTORE DUP2 ADD SWAP1 PUSH3 0x37 SWAP2 SWAP1 PUSH3 0x12C JUMP JUMPDEST DUP1 PUSH1 0x1 PUSH1 0x0 PUSH2 0x100 EXP DUP2 SLOAD DUP2 PUSH20 0xFFFFFFFFFFFFFFFFFFFFFFFFFFFFFFFFFFFFFFFF MUL NOT AND SWAP1 DUP4 PUSH20 0xFFFFFFFFFFFFFFFFFFFFFFFFFFFFFFFFFFFFFFFF AND MUL OR SWAP1 SSTORE POP DUP2 PUSH1 0x2 DUP2 SWAP1 SSTORE POP POP POP PUSH3 0x173 JUMP JUMPDEST PUSH1 0x0 DUP1 REVERT JUMPDEST PUSH1 0x0 DUP2 SWAP1 POP SWAP2 SWAP1 POP JUMP JUMPDEST PUSH3 0xA1 DUP2 PUSH3 0x8C JUMP JUMPDEST DUP2 EQ PUSH3 0xAD JUMPI PUSH1 0x0 DUP1 REVERT JUMPDEST POP JUMP JUMPDEST PUSH1 0x0 DUP2 MLOAD SWAP1 POP PUSH3 0xC1 DUP2 PUSH3 0x96 JUMP JUMPDEST SWAP3 SWAP2 POP POP JUMP JUMPDEST PUSH1 0x0 PUSH20 0xFFFFFFFFFFFFFFFFFFFFFFFFFFFFFFFFFFFFFFFF DUP3 AND SWAP1 POP SWAP2 SWAP1 POP JUMP JUMPDEST PUSH1 0x0 PUSH3 0xF4 DUP3 PUSH3 0xC7 JUMP JUMPDEST SWAP1 POP SWAP2 SWAP1 POP JUMP JUMPDEST PUSH3 0x106 DUP2 PUSH3 0xE7 JUMP JUMPDEST DUP2 EQ PUSH3 0x112 JUMPI PUSH1 0x0 DUP1 REVERT JUMPDEST POP JUMP JUMPDEST PUSH1 0x0 DUP2 MLOAD SWAP1 POP PUSH3 0x126 DUP2 PUSH3 0xFB JUMP JUMPDEST SWAP3 SWAP2 POP POP JUMP JUMPDEST PUSH1 0x0 DUP1 PUSH1 0x40 DUP4 DUP6 SUB SLT ISZERO PUSH3 0x146 JUMPI PUSH3 0x145 PUSH3 0x87 JUMP JUMPDEST JUMPDEST PUSH1 0x0 PUSH3 0x156 DUP6 DUP3 DUP7 ADD PUSH3 0xB0 JUMP JUMPDEST SWAP3 POP POP PUSH1 0x20 PUSH3 0x169 DUP6 DUP3 DUP7 ADD PUSH3 0x115 JUMP JUMPDEST SWAP2 POP POP SWAP3 POP SWAP3 SWAP1 POP JUMP JUMPDEST PUSH2 0x1379 DUP1 PUSH3 0x183 PUSH1 0x0 CODECOPY PUSH1 0x0 RETURN INVALID PUSH1 0x80 PUSH1 0x40 MSTORE PUSH1 0x4 CALLDATASIZE LT PUSH2 0x9C JUMPI PUSH1 0x0 CALLDATALOAD PUSH1 0xE0 SHR DUP1 PUSH4 0x5B1410B5 GT PUSH2 0x64 JUMPI DUP1 PUSH4 0x5B1410B5 EQ PUSH2 0x18C JUMPI DUP1 PUSH4 0x81D12C58 EQ PUSH2 0x1B5 JUMPI DUP1 PUSH4 0x82FDE093 EQ PUSH2 0x1F9 JUMPI DUP1 PUSH4 0x937E09B1 EQ PUSH2 0x224 JUMPI DUP1 PUSH4 0xD7BB99BA EQ PUSH2 0x24F JUMPI DUP1 PUSH4 0xD7D1BBDB EQ PUSH2 0x259 JUMPI PUSH2 0x9C JUMP JUMPDEST DUP1 PUSH4 0x3441006 EQ PUSH2 0xA1 JUMPI DUP1 PUSH4 0xA144391 EQ PUSH2 0xCA JUMPI DUP1 PUSH4 0x3410452A EQ PUSH2 0x107 JUMPI DUP1 PUSH4 0x4051DDAC EQ PUSH2 0x132 JUMPI DUP1 PUSH4 0x481C6A75 EQ PUSH2 0x161 JUMPI JUMPDEST PUSH1 0x0 DUP1 REVERT JUMPDEST CALLVALUE DUP1 ISZERO PUSH2 0xAD JUMPI PUSH1 0x0 DUP1 REVERT JUMPDEST POP PUSH2 0xC8 PUSH1 0x4 DUP1 CALLDATASIZE SUB DUP2 ADD SWAP1 PUSH2 0xC3 SWAP2 SWAP1 PUSH2 0xA6E JUMP JUMPDEST PUSH2 0x282 JUMP JUMPDEST STOP JUMPDEST CALLVALUE DUP1 ISZERO PUSH2 0xD6 JUMPI PUSH1 0x0 DUP1 REVERT JUMPDEST POP PUSH2 0xF1 PUSH1 0x4 DUP1 CALLDATASIZE SUB DUP2 ADD SWAP1 PUSH2 0xEC SWAP2 SWAP1 PUSH2 0xAF9 JUMP JUMPDEST PUSH2 0x3CB JUMP JUMPDEST PUSH1 0x40 MLOAD PUSH2 0xFE SWAP2 SWAP1 PUSH2 0xB41 JUMP JUMPDEST PUSH1 0x40 MLOAD DUP1 SWAP2 SUB SWAP1 RETURN JUMPDEST CALLVALUE DUP1 ISZERO PUSH2 0x113 JUMPI PUSH1 0x0 DUP1 REVERT JUMPDEST POP PUSH2 0x11C PUSH2 0x3EB JUMP JUMPDEST PUSH1 0x40 MLOAD PUSH2 0x129 SWAP2 SWAP1 PUSH2 0xB6B JUMP JUMPDEST PUSH1 0x40 MLOAD DUP1 SWAP2 SUB SWAP1 RETURN JUMPDEST CALLVALUE DUP1 ISZERO PUSH2 0x13E JUMPI PUSH1 0x0 DUP1 REVERT JUMPDEST POP PUSH2 0x147 PUSH2 0x3F7 JUMP JUMPDEST PUSH1 0x40 MLOAD PUSH2 0x158 SWAP6 SWAP5 SWAP4 SWAP3 SWAP2 SWAP1 PUSH2 0xB95 JUMP JUMPDEST PUSH1 0x40 MLOAD DUP1 SWAP2 SUB SWAP1 RETURN JUMPDEST CALLVALUE DUP1 ISZERO PUSH2 0x16D JUMPI PUSH1 0x0 DUP1 REVERT JUMPDEST POP PUSH2 0x176 PUSH2 0x440 JUMP JUMPDEST PUSH1 0x40 MLOAD PUSH2 0x183 SWAP2 SWAP1 PUSH2 0xBE8 JUMP JUMPDEST PUSH1 0x40 MLOAD DUP1 SWAP2 SUB SWAP1 RETURN JUMPDEST CALLVALUE DUP1 ISZERO PUSH2 0x198 JUMPI PUSH1 0x0 DUP1 REVERT JUMPDEST POP PUSH2 0x1B3 PUSH1 0x4 DUP1 CALLDATASIZE SUB DUP2 ADD SWAP1 PUSH2 0x1AE SWAP2 SWAP1 PUSH2 0xD49 JUMP JUMPDEST PUSH2 0x466 JUMP JUMPDEST STOP JUMPDEST CALLVALUE DUP1 ISZERO PUSH2 0x1C1 JUMPI PUSH1 0x0 DUP1 REVERT JUMPDEST POP PUSH2 0x1DC PUSH1 0x4 DUP1 CALLDATASIZE SUB DUP2 ADD SWAP1 PUSH2 0x1D7 SWAP2 SWAP1 PUSH2 0xA6E JUMP JUMPDEST PUSH2 0x5A7 JUMP JUMPDEST PUSH1 0x40 MLOAD PUSH2 0x1F0 SWAP9 SWAP8 SWAP7 SWAP6 SWAP5 SWAP4 SWAP3 SWAP2 SWAP1 PUSH2 0xEC5 JUMP JUMPDEST PUSH1 0x40 MLOAD DUP1 SWAP2 SUB SWAP1 RETURN JUMPDEST CALLVALUE DUP1 ISZERO PUSH2 0x205 JUMPI PUSH1 0x0 DUP1 REVERT JUMPDEST POP PUSH2 0x20E PUSH2 0x84C JUMP JUMPDEST PUSH1 0x40 MLOAD PUSH2 0x21B SWAP2 SWAP1 PUSH2 0xB6B JUMP JUMPDEST PUSH1 0x40 MLOAD DUP1 SWAP2 SUB SWAP1 RETURN JUMPDEST CALLVALUE DUP1 ISZERO PUSH2 0x230 JUMPI PUSH1 0x0 DUP1 REVERT JUMPDEST POP PUSH2 0x239 PUSH2 0x852 JUMP JUMPDEST PUSH1 0x40 MLOAD PUSH2 0x246 SWAP2 SWAP1 PUSH2 0xB6B JUMP JUMPDEST PUSH1 0x40 MLOAD DUP1 SWAP2 SUB SWAP1 RETURN JUMPDEST PUSH2 0x257 PUSH2 0x858 JUMP JUMPDEST STOP JUMPDEST CALLVALUE DUP1 ISZERO PUSH2 0x265 JUMPI PUSH1 0x0 DUP1 REVERT JUMPDEST POP PUSH2 0x280 PUSH1 0x4 DUP1 CALLDATASIZE SUB DUP2 ADD SWAP1 PUSH2 0x27B SWAP2 SWAP1 PUSH2 0xA6E JUMP JUMPDEST PUSH2 0x8D8 JUMP JUMPDEST STOP JUMPDEST PUSH1 0x1 PUSH1 0x0 SWAP1 SLOAD SWAP1 PUSH2 0x100 EXP SWAP1 DIV PUSH20 0xFFFFFFFFFFFFFFFFFFFFFFFFFFFFFFFFFFFFFFFF AND PUSH20 0xFFFFFFFFFFFFFFFFFFFFFFFFFFFFFFFFFFFFFFFF AND CALLER PUSH20 0xFFFFFFFFFFFFFFFFFFFFFFFFFFFFFFFFFFFFFFFF AND EQ PUSH2 0x2DC JUMPI PUSH1 0x0 DUP1 REVERT JUMPDEST PUSH1 0x0 DUP1 DUP3 DUP2 SLOAD DUP2 LT PUSH2 0x2F1 JUMPI PUSH2 0x2F0 PUSH2 0xF5F JUMP JUMPDEST JUMPDEST SWAP1 PUSH1 0x0 MSTORE PUSH1 0x20 PUSH1 0x0 KECCAK256 SWAP1 PUSH1 0x8 MUL ADD SWAP1 POP PUSH1 0x2 PUSH1 0x4 SLOAD PUSH2 0x310 SWAP2 SWAP1 PUSH2 0xFEC JUMP JUMPDEST DUP2 PUSH1 0x6 ADD SLOAD GT PUSH2 0x31F JUMPI PUSH1 0x0 DUP1 REVERT JUMPDEST DUP1 PUSH1 0x5 ADD PUSH1 0x14 SWAP1 SLOAD SWAP1 PUSH2 0x100 EXP SWAP1 DIV PUSH1 0xFF AND ISZERO PUSH2 0x33B JUMPI PUSH1 0x0 DUP1 REVERT JUMPDEST DUP1 PUSH1 0x5 ADD PUSH1 0x0 SWAP1 SLOAD SWAP1 PUSH2 0x100 EXP SWAP1 DIV PUSH20 0xFFFFFFFFFFFFFFFFFFFFFFFFFFFFFFFFFFFFFFFF AND PUSH20 0xFFFFFFFFFFFFFFFFFFFFFFFFFFFFFFFFFFFFFFFF AND PUSH2 0x8FC DUP3 PUSH1 0x3 ADD SLOAD SWAP1 DUP2 ISZERO MUL SWAP1 PUSH1 0x40 MLOAD PUSH1 0x0 PUSH1 0x40 MLOAD DUP1 DUP4 SUB DUP2 DUP6 DUP9 DUP9 CALL SWAP4 POP POP POP POP ISZERO DUP1 ISZERO PUSH2 0x3A9 JUMPI RETURNDATASIZE PUSH1 0x0 DUP1 RETURNDATACOPY RETURNDATASIZE PUSH1 0x0 REVERT JUMPDEST POP PUSH1 0x1 DUP2 PUSH1 0x5 ADD PUSH1 0x14 PUSH2 0x100 EXP DUP2 SLOAD DUP2 PUSH1 0xFF MUL NOT AND SWAP1 DUP4 ISZERO ISZERO MUL OR SWAP1 SSTORE POP POP POP JUMP JUMPDEST PUSH1 0x3 PUSH1 0x20 MSTORE DUP1 PUSH1 0x0 MSTORE PUSH1 0x40 PUSH1 0x0 KECCAK256 PUSH1 0x0 SWAP2 POP SLOAD SWAP1 PUSH2 0x100 EXP SWAP1 DIV PUSH1 0xFF AND DUP2 JUMP JUMPDEST PUSH1 0x0 DUP1 DUP1 SLOAD SWAP1 POP SWAP1 POP SWAP1 JUMP JUMPDEST PUSH1 0x0 DUP1 PUSH1 0x0 DUP1 PUSH1 0x0 PUSH1 0x2 SLOAD SELFBALANCE PUSH1 0x0 DUP1 SLOAD SWAP1 POP PUSH1 0x4 SLOAD PUSH1 0x1 PUSH1 0x0 SWAP1 SLOAD SWAP1 PUSH2 0x100 EXP SWAP1 DIV PUSH20 0xFFFFFFFFFFFFFFFFFFFFFFFFFFFFFFFFFFFFFFFF AND SWAP5 POP SWAP5 POP SWAP5 POP SWAP5 POP SWAP5 POP SWAP1 SWAP2 SWAP3 SWAP4 SWAP5 JUMP JUMPDEST PUSH1 0x1 PUSH1 0x0 SWAP1 SLOAD SWAP1 PUSH2 0x100 EXP SWAP1 DIV PUSH20 0xFFFFFFFFFFFFFFFFFFFFFFFFFFFFFFFFFFFFFFFF AND DUP2 JUMP JUMPDEST PUSH1 0x1 PUSH1 0x0 SWAP1 SLOAD SWAP1 PUSH2 0x100 EXP SWAP1 DIV PUSH20 0xFFFFFFFFFFFFFFFFFFFFFFFFFFFFFFFFFFFFFFFF AND PUSH20 0xFFFFFFFFFFFFFFFFFFFFFFFFFFFFFFFFFFFFFFFF AND CALLER PUSH20 0xFFFFFFFFFFFFFFFFFFFFFFFFFFFFFFFFFFFFFFFF AND EQ PUSH2 0x4C0 JUMPI PUSH1 0x0 DUP1 REVERT JUMPDEST PUSH1 0x0 DUP1 PUSH1 0x1 DUP2 PUSH1 0x1 DUP2 SLOAD ADD DUP1 DUP3 SSTORE DUP1 SWAP2 POP POP SUB SWAP1 PUSH1 0x0 MSTORE PUSH1 0x20 PUSH1 0x0 KECCAK256 SWAP1 PUSH1 0x8 MUL ADD SWAP1 POP DUP7 DUP2 PUSH1 0x0 ADD SWAP1 DUP2 PUSH2 0x4F4 SWAP2 SWAP1 PUSH2 0x1229 JUMP JUMPDEST POP DUP6 DUP2 PUSH1 0x1 ADD SWAP1 DUP2 PUSH2 0x506 SWAP2 SWAP1 PUSH2 0x1229 JUMP JUMPDEST POP DUP5 DUP2 PUSH1 0x2 ADD SWAP1 DUP2 PUSH2 0x518 SWAP2 SWAP1 PUSH2 0x1229 JUMP JUMPDEST POP DUP4 DUP2 PUSH1 0x3 ADD DUP2 SWAP1 SSTORE POP DUP3 DUP2 PUSH1 0x4 ADD SWAP1 DUP2 PUSH2 0x533 SWAP2 SWAP1 PUSH2 0x1229 JUMP JUMPDEST POP DUP2 DUP2 PUSH1 0x5 ADD PUSH1 0x0 PUSH2 0x100 EXP DUP2 SLOAD DUP2 PUSH20 0xFFFFFFFFFFFFFFFFFFFFFFFFFFFFFFFFFFFFFFFF MUL NOT AND SWAP1 DUP4 PUSH20 0xFFFFFFFFFFFFFFFFFFFFFFFFFFFFFFFFFFFFFFFF AND MUL OR SWAP1 SSTORE POP PUSH1 0x0 DUP2 PUSH1 0x5 ADD PUSH1 0x14 PUSH2 0x100 EXP DUP2 SLOAD DUP2 PUSH1 0xFF MUL NOT AND SWAP1 DUP4 ISZERO ISZERO MUL OR SWAP1 SSTORE POP PUSH1 0x0 DUP2 PUSH1 0x6 ADD DUP2 SWAP1 SSTORE POP POP POP POP POP POP POP POP JUMP JUMPDEST PUSH1 0x0 DUP2 DUP2 SLOAD DUP2 LT PUSH2 0x5B7 JUMPI PUSH1 0x0 DUP1 REVERT JUMPDEST SWAP1 PUSH1 0x0 MSTORE PUSH1 0x20 PUSH1 0x0 KECCAK256 SWAP1 PUSH1 0x8 MUL ADD PUSH1 0x0 SWAP2 POP SWAP1 POP DUP1 PUSH1 0x0 ADD DUP1 SLOAD PUSH2 0x5DA SWAP1 PUSH2 0x104C JUMP JUMPDEST DUP1 PUSH1 0x1F ADD PUSH1 0x20 DUP1 SWAP2 DIV MUL PUSH1 0x20 ADD PUSH1 0x40 MLOAD SWAP1 DUP2 ADD PUSH1 0x40 MSTORE DUP1 SWAP3 SWAP2 SWAP1 DUP2 DUP2 MSTORE PUSH1 0x20 ADD DUP3 DUP1 SLOAD PUSH2 0x606 SWAP1 PUSH2 0x104C JUMP JUMPDEST DUP1 ISZERO PUSH2 0x653 JUMPI DUP1 PUSH1 0x1F LT PUSH2 0x628 JUMPI PUSH2 0x100 DUP1 DUP4 SLOAD DIV MUL DUP4 MSTORE SWAP2 PUSH1 0x20 ADD SWAP2 PUSH2 0x653 JUMP JUMPDEST DUP3 ADD SWAP2 SWAP1 PUSH1 0x0 MSTORE PUSH1 0x20 PUSH1 0x0 KECCAK256 SWAP1 JUMPDEST DUP2 SLOAD DUP2 MSTORE SWAP1 PUSH1 0x1 ADD SWAP1 PUSH1 0x20 ADD DUP1 DUP4 GT PUSH2 0x636 JUMPI DUP3 SWAP1 SUB PUSH1 0x1F AND DUP3 ADD SWAP2 JUMPDEST POP POP POP POP POP SWAP1 DUP1 PUSH1 0x1 ADD DUP1 SLOAD PUSH2 0x668 SWAP1 PUSH2 0x104C JUMP JUMPDEST DUP1 PUSH1 0x1F ADD PUSH1 0x20 DUP1 SWAP2 DIV MUL PUSH1 0x20 ADD PUSH1 0x40 MLOAD SWAP1 DUP2 ADD PUSH1 0x40 MSTORE DUP1 SWAP3 SWAP2 SWAP1 DUP2 DUP2 MSTORE PUSH1 0x20 ADD DUP3 DUP1 SLOAD PUSH2 0x694 SWAP1 PUSH2 0x104C JUMP JUMPDEST DUP1 ISZERO PUSH2 0x6E1 JUMPI DUP1 PUSH1 0x1F LT PUSH2 0x6B6 JUMPI PUSH2 0x100 DUP1 DUP4 SLOAD DIV MUL DUP4 MSTORE SWAP2 PUSH1 0x20 ADD SWAP2 PUSH2 0x6E1 JUMP JUMPDEST DUP3 ADD SWAP2 SWAP1 PUSH1 0x0 MSTORE PUSH1 0x20 PUSH1 0x0 KECCAK256 SWAP1 JUMPDEST DUP2 SLOAD DUP2 MSTORE SWAP1 PUSH1 0x1 ADD SWAP1 PUSH1 0x20 ADD DUP1 DUP4 GT PUSH2 0x6C4 JUMPI DUP3 SWAP1 SUB PUSH1 0x1F AND DUP3 ADD SWAP2 JUMPDEST POP POP POP POP POP SWAP1 DUP1 PUSH1 0x2 ADD DUP1 SLOAD PUSH2 0x6F6 SWAP1 PUSH2 0x104C JUMP JUMPDEST DUP1 PUSH1 0x1F ADD PUSH1 0x20 DUP1 SWAP2 DIV MUL PUSH1 0x20 ADD PUSH1 0x40 MLOAD SWAP1 DUP2 ADD PUSH1 0x40 MSTORE DUP1 SWAP3 SWAP2 SWAP1 DUP2 DUP2 MSTORE PUSH1 0x20 ADD DUP3 DUP1 SLOAD PUSH2 0x722 SWAP1 PUSH2 0x104C JUMP JUMPDEST DUP1 ISZERO PUSH2 0x76F JUMPI DUP1 PUSH1 0x1F LT PUSH2 0x744 JUMPI PUSH2 0x100 DUP1 DUP4 SLOAD DIV MUL DUP4 MSTORE SWAP2 PUSH1 0x20 ADD SWAP2 PUSH2 0x76F JUMP JUMPDEST DUP3 ADD SWAP2 SWAP1 PUSH1 0x0 MSTORE PUSH1 0x20 PUSH1 0x0 KECCAK256 SWAP1 JUMPDEST DUP2 SLOAD DUP2 MSTORE SWAP1 PUSH1 0x1 ADD SWAP1 PUSH1 0x20 ADD DUP1 DUP4 GT PUSH2 0x752 JUMPI DUP3 SWAP1 SUB PUSH1 0x1F AND DUP3 ADD SWAP2 JUMPDEST POP POP POP POP POP SWAP1 DUP1 PUSH1 0x3 ADD SLOAD SWAP1 DUP1 PUSH1 0x4 ADD DUP1 SLOAD PUSH2 0x78A SWAP1 PUSH2 0x104C JUMP JUMPDEST DUP1 PUSH1 0x1F ADD PUSH1 0x20 DUP1 SWAP2 DIV MUL PUSH1 0x20 ADD PUSH1 0x40 MLOAD SWAP1 DUP2 ADD PUSH1 0x40 MSTORE DUP1 SWAP3 SWAP2 SWAP1 DUP2 DUP2 MSTORE PUSH1 0x20 ADD DUP3 DUP1 SLOAD PUSH2 0x7B6 SWAP1 PUSH2 0x104C JUMP JUMPDEST DUP1 ISZERO PUSH2 0x803 JUMPI DUP1 PUSH1 0x1F LT PUSH2 0x7D8 JUMPI PUSH2 0x100 DUP1 DUP4 SLOAD DIV MUL DUP4 MSTORE SWAP2 PUSH1 0x20 ADD SWAP2 PUSH2 0x803 JUMP JUMPDEST DUP3 ADD SWAP2 SWAP1 PUSH1 0x0 MSTORE PUSH1 0x20 PUSH1 0x0 KECCAK256 SWAP1 JUMPDEST DUP2 SLOAD DUP2 MSTORE SWAP1 PUSH1 0x1 ADD SWAP1 PUSH1 0x20 ADD DUP1 DUP4 GT PUSH2 0x7E6 JUMPI DUP3 SWAP1 SUB PUSH1 0x1F AND DUP3 ADD SWAP2 JUMPDEST POP POP POP POP POP SWAP1 DUP1 PUSH1 0x5 ADD PUSH1 0x0 SWAP1 SLOAD SWAP1 PUSH2 0x100 EXP SWAP1 DIV PUSH20 0xFFFFFFFFFFFFFFFFFFFFFFFFFFFFFFFFFFFFFFFF AND SWAP1 DUP1 PUSH1 0x5 ADD PUSH1 0x14 SWAP1 SLOAD SWAP1 PUSH2 0x100 EXP SWAP1 DIV PUSH1 0xFF AND SWAP1 DUP1 PUSH1 0x6 ADD SLOAD SWAP1 POP DUP9 JUMP JUMPDEST PUSH1 0x4 SLOAD DUP2 JUMP JUMPDEST PUSH1 0x2 SLOAD DUP2 JUMP JUMPDEST PUSH1 0x2 SLOAD CALLVALUE GT PUSH2 0x866 JUMPI PUSH1 0x0 DUP1 REVERT JUMPDEST PUSH1 0x1 PUSH1 0x3 PUSH1 0x0 CALLER PUSH20 0xFFFFFFFFFFFFFFFFFFFFFFFFFFFFFFFFFFFFFFFF AND PUSH20 0xFFFFFFFFFFFFFFFFFFFFFFFFFFFFFFFFFFFFFFFF AND DUP2 MSTORE PUSH1 0x20 ADD SWAP1 DUP2 MSTORE PUSH1 0x20 ADD PUSH1 0x0 KECCAK256 PUSH1 0x0 PUSH2 0x100 EXP DUP2 SLOAD DUP2 PUSH1 0xFF MUL NOT AND SWAP1 DUP4 ISZERO ISZERO MUL OR SWAP1 SSTORE POP PUSH1 0x4 PUSH1 0x0 DUP2 SLOAD DUP1 SWAP3 SWAP2 SWAP1 PUSH2 0x8D1 SWAP1 PUSH2 0x12FB JUMP JUMPDEST SWAP2 SWAP1 POP SSTORE POP JUMP JUMPDEST PUSH1 0x0 DUP1 DUP3 DUP2 SLOAD DUP2 LT PUSH2 0x8ED JUMPI PUSH2 0x8EC PUSH2 0xF5F JUMP JUMPDEST JUMPDEST SWAP1 PUSH1 0x0 MSTORE PUSH1 0x20 PUSH1 0x0 KECCAK256 SWAP1 PUSH1 0x8 MUL ADD SWAP1 POP PUSH1 0x3 PUSH1 0x0 CALLER PUSH20 0xFFFFFFFFFFFFFFFFFFFFFFFFFFFFFFFFFFFFFFFF AND PUSH20 0xFFFFFFFFFFFFFFFFFFFFFFFFFFFFFFFFFFFFFFFF AND DUP2 MSTORE PUSH1 0x20 ADD SWAP1 DUP2 MSTORE PUSH1 0x20 ADD PUSH1 0x0 KECCAK256 PUSH1 0x0 SWAP1 SLOAD SWAP1 PUSH2 0x100 EXP SWAP1 DIV PUSH1 0xFF AND PUSH2 0x953 JUMPI PUSH1 0x0 DUP1 REVERT JUMPDEST DUP1 PUSH1 0x7 ADD PUSH1 0x0 CALLER PUSH20 0xFFFFFFFFFFFFFFFFFFFFFFFFFFFFFFFFFFFFFFFF AND PUSH20 0xFFFFFFFFFFFFFFFFFFFFFFFFFFFFFFFFFFFFFFFF AND DUP2 MSTORE PUSH1 0x20 ADD SWAP1 DUP2 MSTORE PUSH1 0x20 ADD PUSH1 0x0 KECCAK256 PUSH1 0x0 SWAP1 SLOAD SWAP1 PUSH2 0x100 EXP SWAP1 DIV PUSH1 0xFF AND ISZERO PUSH2 0x9AC JUMPI PUSH1 0x0 DUP1 REVERT JUMPDEST PUSH1 0x1 DUP2 PUSH1 0x7 ADD PUSH1 0x0 CALLER PUSH20 0xFFFFFFFFFFFFFFFFFFFFFFFFFFFFFFFFFFFFFFFF AND PUSH20 0xFFFFFFFFFFFFFFFFFFFFFFFFFFFFFFFFFFFFFFFF AND DUP2 MSTORE PUSH1 0x20 ADD SWAP1 DUP2 MSTORE PUSH1 0x20 ADD PUSH1 0x0 KECCAK256 PUSH1 0x0 PUSH2 0x100 EXP DUP2 SLOAD DUP2 PUSH1 0xFF MUL NOT AND SWAP1 DUP4 ISZERO ISZERO MUL OR SWAP1 SSTORE POP DUP1 PUSH1 0x6 ADD PUSH1 0x0 DUP2 SLOAD DUP1 SWAP3 SWAP2 SWAP1 PUSH2 0xA1B SWAP1 PUSH2 0x12FB JUMP JUMPDEST SWAP2 SWAP1 POP SSTORE POP POP POP JUMP JUMPDEST PUSH1 0x0 PUSH1 0x40 MLOAD SWAP1 POP SWAP1 JUMP JUMPDEST PUSH1 0x0 DUP1 REVERT JUMPDEST PUSH1 0x0 DUP1 REVERT JUMPDEST PUSH1 0x0 DUP2 SWAP1 POP SWAP2 SWAP1 POP JUMP JUMPDEST PUSH2 0xA4B DUP2 PUSH2 0xA38 JUMP JUMPDEST DUP2 EQ PUSH2 0xA56 JUMPI PUSH1 0x0 DUP1 REVERT JUMPDEST POP JUMP JUMPDEST PUSH1 0x0 DUP2 CALLDATALOAD SWAP1 POP PUSH2 0xA68 DUP2 PUSH2 0xA42 JUMP JUMPDEST SWAP3 SWAP2 POP POP JUMP JUMPDEST PUSH1 0x0 PUSH1 0x20 DUP3 DUP5 SUB SLT ISZERO PUSH2 0xA84 JUMPI PUSH2 0xA83 PUSH2 0xA2E JUMP JUMPDEST JUMPDEST PUSH1 0x0 PUSH2 0xA92 DUP5 DUP3 DUP6 ADD PUSH2 0xA59 JUMP JUMPDEST SWAP2 POP POP SWAP3 SWAP2 POP POP JUMP JUMPDEST PUSH1 0x0 PUSH20 0xFFFFFFFFFFFFFFFFFFFFFFFFFFFFFFFFFFFFFFFF DUP3 AND SWAP1 POP SWAP2 SWAP1 POP JUMP JUMPDEST PUSH1 0x0 PUSH2 0xAC6 DUP3 PUSH2 0xA9B JUMP JUMPDEST SWAP1 POP SWAP2 SWAP1 POP JUMP JUMPDEST PUSH2 0xAD6 DUP2 PUSH2 0xABB JUMP JUMPDEST DUP2 EQ PUSH2 0xAE1 JUMPI PUSH1 0x0 DUP1 REVERT JUMPDEST POP JUMP JUMPDEST PUSH1 0x0 DUP2 CALLDATALOAD SWAP1 POP PUSH2 0xAF3 DUP2 PUSH2 0xACD JUMP JUMPDEST SWAP3 SWAP2 POP POP JUMP JUMPDEST PUSH1 0x0 PUSH1 0x20 DUP3 DUP5 SUB SLT ISZERO PUSH2 0xB0F JUMPI PUSH2 0xB0E PUSH2 0xA2E JUMP JUMPDEST JUMPDEST PUSH1 0x0 PUSH2 0xB1D DUP5 DUP3 DUP6 ADD PUSH2 0xAE4 JUMP JUMPDEST SWAP2 POP POP SWAP3 SWAP2 POP POP JUMP JUMPDEST PUSH1 0x0 DUP2 ISZERO ISZERO SWAP1 POP SWAP2 SWAP1 POP JUMP JUMPDEST PUSH2 0xB3B DUP2 PUSH2 0xB26 JUMP JUMPDEST DUP3 MSTORE POP POP JUMP JUMPDEST PUSH1 0x0 PUSH1 0x20 DUP3 ADD SWAP1 POP PUSH2 0xB56 PUSH1 0x0 DUP4 ADD DUP5 PUSH2 0xB32 JUMP JUMPDEST SWAP3 SWAP2 POP POP JUMP JUMPDEST PUSH2 0xB65 DUP2 PUSH2 0xA38 JUMP JUMPDEST DUP3 MSTORE POP POP JUMP JUMPDEST PUSH1 0x0 PUSH1 0x20 DUP3 ADD SWAP1 POP PUSH2 0xB80 PUSH1 0x0 DUP4 ADD DUP5 PUSH2 0xB5C JUMP JUMPDEST SWAP3 SWAP2 POP POP JUMP JUMPDEST PUSH2 0xB8F DUP2 PUSH2 0xABB JUMP JUMPDEST DUP3 MSTORE POP POP JUMP JUMPDEST PUSH1 0x0 PUSH1 0xA0 DUP3 ADD SWAP1 POP PUSH2 0xBAA PUSH1 0x0 DUP4 ADD DUP9 PUSH2 0xB5C JUMP JUMPDEST PUSH2 0xBB7 PUSH1 0x20 DUP4 ADD DUP8 PUSH2 0xB5C JUMP JUMPDEST PUSH2 0xBC4 PUSH1 0x40 DUP4 ADD DUP7 PUSH2 0xB5C JUMP JUMPDEST PUSH2 0xBD1 PUSH1 0x60 DUP4 ADD DUP6 PUSH2 0xB5C JUMP JUMPDEST PUSH2 0xBDE PUSH1 0x80 DUP4 ADD DUP5 PUSH2 0xB86 JUMP JUMPDEST SWAP7 SWAP6 POP POP POP POP POP POP JUMP JUMPDEST PUSH1 0x0 PUSH1 0x20 DUP3 ADD SWAP1 POP PUSH2 0xBFD PUSH1 0x0 DUP4 ADD DUP5 PUSH2 0xB86 JUMP JUMPDEST SWAP3 SWAP2 POP POP JUMP JUMPDEST PUSH1 0x0 DUP1 REVERT JUMPDEST PUSH1 0x0 DUP1 REVERT JUMPDEST PUSH1 0x0 PUSH1 0x1F NOT PUSH1 0x1F DUP4 ADD AND SWAP1 POP SWAP2 SWAP1 POP JUMP JUMPDEST PUSH32 0x4E487B7100000000000000000000000000000000000000000000000000000000 PUSH1 0x0 MSTORE PUSH1 0x41 PUSH1 0x4 MSTORE PUSH1 0x24 PUSH1 0x0 REVERT JUMPDEST PUSH2 0xC56 DUP3 PUSH2 0xC0D JUMP JUMPDEST DUP2 ADD DUP2 DUP2 LT PUSH8 0xFFFFFFFFFFFFFFFF DUP3 GT OR ISZERO PUSH2 0xC75 JUMPI PUSH2 0xC74 PUSH2 0xC1E JUMP JUMPDEST JUMPDEST DUP1 PUSH1 0x40 MSTORE POP POP POP JUMP JUMPDEST PUSH1 0x0 PUSH2 0xC88 PUSH2 0xA24 JUMP JUMPDEST SWAP1 POP PUSH2 0xC94 DUP3 DUP3 PUSH2 0xC4D JUMP JUMPDEST SWAP2 SWAP1 POP JUMP JUMPDEST PUSH1 0x0 PUSH8 0xFFFFFFFFFFFFFFFF DUP3 GT ISZERO PUSH2 0xCB4 JUMPI PUSH2 0xCB3 PUSH2 0xC1E JUMP JUMPDEST JUMPDEST PUSH2 0xCBD DUP3 PUSH2 0xC0D JUMP JUMPDEST SWAP1 POP PUSH1 0x20 DUP2 ADD SWAP1 POP SWAP2 SWAP1 POP JUMP JUMPDEST DUP3 DUP2 DUP4 CALLDATACOPY PUSH1 0x0 DUP4 DUP4 ADD MSTORE POP POP POP JUMP JUMPDEST PUSH1 0x0 PUSH2 0xCEC PUSH2 0xCE7 DUP5 PUSH2 0xC99 JUMP JUMPDEST PUSH2 0xC7E JUMP JUMPDEST SWAP1 POP DUP3 DUP2 MSTORE PUSH1 0x20 DUP2 ADD DUP5 DUP5 DUP5 ADD GT ISZERO PUSH2 0xD08 JUMPI PUSH2 0xD07 PUSH2 0xC08 JUMP JUMPDEST JUMPDEST PUSH2 0xD13 DUP5 DUP3 DUP6 PUSH2 0xCCA JUMP JUMPDEST POP SWAP4 SWAP3 POP POP POP JUMP JUMPDEST PUSH1 0x0 DUP3 PUSH1 0x1F DUP4 ADD SLT PUSH2 0xD30 JUMPI PUSH2 0xD2F PUSH2 0xC03 JUMP JUMPDEST JUMPDEST DUP2 CALLDATALOAD PUSH2 0xD40 DUP5 DUP3 PUSH1 0x20 DUP7 ADD PUSH2 0xCD9 JUMP JUMPDEST SWAP2 POP POP SWAP3 SWAP2 POP POP JUMP JUMPDEST PUSH1 0x0 DUP1 PUSH1 0x0 DUP1 PUSH1 0x0 DUP1 PUSH1 0xC0 DUP8 DUP10 SUB SLT ISZERO PUSH2 0xD66 JUMPI PUSH2 0xD65 PUSH2 0xA2E JUMP JUMPDEST JUMPDEST PUSH1 0x0 DUP8 ADD CALLDATALOAD PUSH8 0xFFFFFFFFFFFFFFFF DUP2 GT ISZERO PUSH2 0xD84 JUMPI PUSH2 0xD83 PUSH2 0xA33 JUMP JUMPDEST JUMPDEST PUSH2 0xD90 DUP10 DUP3 DUP11 ADD PUSH2 0xD1B JUMP JUMPDEST SWAP7 POP POP PUSH1 0x20 DUP8 ADD CALLDATALOAD PUSH8 0xFFFFFFFFFFFFFFFF DUP2 GT ISZERO PUSH2 0xDB1 JUMPI PUSH2 0xDB0 PUSH2 0xA33 JUMP JUMPDEST JUMPDEST PUSH2 0xDBD DUP10 DUP3 DUP11 ADD PUSH2 0xD1B JUMP JUMPDEST SWAP6 POP POP PUSH1 0x40 DUP8 ADD CALLDATALOAD PUSH8 0xFFFFFFFFFFFFFFFF DUP2 GT ISZERO PUSH2 0xDDE JUMPI PUSH2 0xDDD PUSH2 0xA33 JUMP JUMPDEST JUMPDEST PUSH2 0xDEA DUP10 DUP3 DUP11 ADD PUSH2 0xD1B JUMP JUMPDEST SWAP5 POP POP PUSH1 0x60 PUSH2 0xDFB DUP10 DUP3 DUP11 ADD PUSH2 0xA59 JUMP JUMPDEST SWAP4 POP POP PUSH1 0x80 DUP8 ADD CALLDATALOAD PUSH8 0xFFFFFFFFFFFFFFFF DUP2 GT ISZERO PUSH2 0xE1C JUMPI PUSH2 0xE1B PUSH2 0xA33 JUMP JUMPDEST JUMPDEST PUSH2 0xE28 DUP10 DUP3 DUP11 ADD PUSH2 0xD1B JUMP JUMPDEST SWAP3 POP POP PUSH1 0xA0 PUSH2 0xE39 DUP10 DUP3 DUP11 ADD PUSH2 0xAE4 JUMP JUMPDEST SWAP2 POP POP SWAP3 SWAP6 POP SWAP3 SWAP6 POP SWAP3 SWAP6 JUMP JUMPDEST PUSH1 0x0 DUP2 MLOAD SWAP1 POP SWAP2 SWAP1 POP JUMP JUMPDEST PUSH1 0x0 DUP3 DUP3 MSTORE PUSH1 0x20 DUP3 ADD SWAP1 POP SWAP3 SWAP2 POP POP JUMP JUMPDEST PUSH1 0x0 JUMPDEST DUP4 DUP2 LT ISZERO PUSH2 0xE80 JUMPI DUP1 DUP3 ADD MLOAD DUP2 DUP5 ADD MSTORE PUSH1 0x20 DUP2 ADD SWAP1 POP PUSH2 0xE65 JUMP JUMPDEST PUSH1 0x0 DUP5 DUP5 ADD MSTORE POP POP POP POP JUMP JUMPDEST PUSH1 0x0 PUSH2 0xE97 DUP3 PUSH2 0xE46 JUMP JUMPDEST PUSH2 0xEA1 DUP2 DUP6 PUSH2 0xE51 JUMP JUMPDEST SWAP4 POP PUSH2 0xEB1 DUP2 DUP6 PUSH1 0x20 DUP7 ADD PUSH2 0xE62 JUMP JUMPDEST PUSH2 0xEBA DUP2 PUSH2 0xC0D JUMP JUMPDEST DUP5 ADD SWAP2 POP POP SWAP3 SWAP2 POP POP JUMP JUMPDEST PUSH1 0x0 PUSH2 0x100 DUP3 ADD SWAP1 POP DUP2 DUP2 SUB PUSH1 0x0 DUP4 ADD MSTORE PUSH2 0xEE0 DUP2 DUP12 PUSH2 0xE8C JUMP JUMPDEST SWAP1 POP DUP2 DUP2 SUB PUSH1 0x20 DUP4 ADD MSTORE PUSH2 0xEF4 DUP2 DUP11 PUSH2 0xE8C JUMP JUMPDEST SWAP1 POP DUP2 DUP2 SUB PUSH1 0x40 DUP4 ADD MSTORE PUSH2 0xF08 DUP2 DUP10 PUSH2 0xE8C JUMP JUMPDEST SWAP1 POP PUSH2 0xF17 PUSH1 0x60 DUP4 ADD DUP9 PUSH2 0xB5C JUMP JUMPDEST DUP2 DUP2 SUB PUSH1 0x80 DUP4 ADD MSTORE PUSH2 0xF29 DUP2 DUP8 PUSH2 0xE8C JUMP JUMPDEST SWAP1 POP PUSH2 0xF38 PUSH1 0xA0 DUP4 ADD DUP7 PUSH2 0xB86 JUMP JUMPDEST PUSH2 0xF45 PUSH1 0xC0 DUP4 ADD DUP6 PUSH2 0xB32 JUMP JUMPDEST PUSH2 0xF52 PUSH1 0xE0 DUP4 ADD DUP5 PUSH2 0xB5C JUMP JUMPDEST SWAP10 SWAP9 POP POP POP POP POP POP POP POP POP JUMP JUMPDEST PUSH32 0x4E487B7100000000000000000000000000000000000000000000000000000000 PUSH1 0x0 MSTORE PUSH1 0x32 PUSH1 0x4 MSTORE PUSH1 0x24 PUSH1 0x0 REVERT JUMPDEST PUSH32 0x4E487B7100000000000000000000000000000000000000000000000000000000 PUSH1 0x0 MSTORE PUSH1 0x12 PUSH1 0x4 MSTORE PUSH1 0x24 PUSH1 0x0 REVERT JUMPDEST PUSH32 0x4E487B7100000000000000000000000000000000000000000000000000000000 PUSH1 0x0 MSTORE PUSH1 0x11 PUSH1 0x4 MSTORE PUSH1 0x24 PUSH1 0x0 REVERT JUMPDEST PUSH1 0x0 PUSH2 0xFF7 DUP3 PUSH2 0xA38 JUMP JUMPDEST SWAP2 POP PUSH2 0x1002 DUP4 PUSH2 0xA38 JUMP JUMPDEST SWAP3 POP DUP3 PUSH2 0x1012 JUMPI PUSH2 0x1011 PUSH2 0xF8E JUMP JUMPDEST JUMPDEST DUP3 DUP3 DIV SWAP1 POP SWAP3 SWAP2 POP POP JUMP JUMPDEST PUSH32 0x4E487B7100000000000000000000000000000000000000000000000000000000 PUSH1 0x0 MSTORE PUSH1 0x22 PUSH1 0x4 MSTORE PUSH1 0x24 PUSH1 0x0 REVERT JUMPDEST PUSH1 0x0 PUSH1 0x2 DUP3 DIV SWAP1 POP PUSH1 0x1 DUP3 AND DUP1 PUSH2 0x1064 JUMPI PUSH1 0x7F DUP3 AND SWAP2 POP JUMPDEST PUSH1 0x20 DUP3 LT DUP2 SUB PUSH2 0x1077 JUMPI PUSH2 0x1076 PUSH2 0x101D JUMP JUMPDEST JUMPDEST POP SWAP2 SWAP1 POP JUMP JUMPDEST PUSH1 0x0 DUP2 SWAP1 POP DUP2 PUSH1 0x0 MSTORE PUSH1 0x20 PUSH1 0x0 KECCAK256 SWAP1 POP SWAP2 SWAP1 POP JUMP JUMPDEST PUSH1 0x0 PUSH1 0x20 PUSH1 0x1F DUP4 ADD DIV SWAP1 POP SWAP2 SWAP1 POP JUMP JUMPDEST PUSH1 0x0 DUP3 DUP3 SHL SWAP1 POP SWAP3 SWAP2 POP POP JUMP JUMPDEST PUSH1 0x0 PUSH1 0x8 DUP4 MUL PUSH2 0x10DF PUSH32 0xFFFFFFFFFFFFFFFFFFFFFFFFFFFFFFFFFFFFFFFFFFFFFFFFFFFFFFFFFFFFFFFF DUP3 PUSH2 0x10A2 JUMP JUMPDEST PUSH2 0x10E9 DUP7 DUP4 PUSH2 0x10A2 JUMP JUMPDEST SWAP6 POP DUP1 NOT DUP5 AND SWAP4 POP DUP1 DUP7 AND DUP5 OR SWAP3 POP POP POP SWAP4 SWAP3 POP POP POP JUMP JUMPDEST PUSH1 0x0 DUP2 SWAP1 POP SWAP2 SWAP1 POP JUMP JUMPDEST PUSH1 0x0 PUSH2 0x1126 PUSH2 0x1121 PUSH2 0x111C DUP5 PUSH2 0xA38 JUMP JUMPDEST PUSH2 0x1101 JUMP JUMPDEST PUSH2 0xA38 JUMP JUMPDEST SWAP1 POP SWAP2 SWAP1 POP JUMP JUMPDEST PUSH1 0x0 DUP2 SWAP1 POP SWAP2 SWAP1 POP JUMP JUMPDEST PUSH2 0x1140 DUP4 PUSH2 0x110B JUMP JUMPDEST PUSH2 0x1154 PUSH2 0x114C DUP3 PUSH2 0x112D JUMP JUMPDEST DUP5 DUP5 SLOAD PUSH2 0x10AF JUMP JUMPDEST DUP3 SSTORE POP POP POP POP JUMP JUMPDEST PUSH1 0x0 SWAP1 JUMP JUMPDEST PUSH2 0x1169 PUSH2 0x115C JUMP JUMPDEST PUSH2 0x1174 DUP2 DUP5 DUP5 PUSH2 0x1137 JUMP JUMPDEST POP POP POP JUMP JUMPDEST JUMPDEST DUP2 DUP2 LT ISZERO PUSH2 0x1198 JUMPI PUSH2 0x118D PUSH1 0x0 DUP3 PUSH2 0x1161 JUMP JUMPDEST PUSH1 0x1 DUP2 ADD SWAP1 POP PUSH2 0x117A JUMP JUMPDEST POP POP JUMP JUMPDEST PUSH1 0x1F DUP3 GT ISZERO PUSH2 0x11DD JUMPI PUSH2 0x11AE DUP2 PUSH2 0x107D JUMP JUMPDEST PUSH2 0x11B7 DUP5 PUSH2 0x1092 JUMP JUMPDEST DUP2 ADD PUSH1 0x20 DUP6 LT ISZERO PUSH2 0x11C6 JUMPI DUP2 SWAP1 POP JUMPDEST PUSH2 0x11DA PUSH2 0x11D2 DUP6 PUSH2 0x1092 JUMP JUMPDEST DUP4 ADD DUP3 PUSH2 0x1179 JUMP JUMPDEST POP POP JUMPDEST POP POP POP JUMP JUMPDEST PUSH1 0x0 DUP3 DUP3 SHR SWAP1 POP SWAP3 SWAP2 POP POP JUMP JUMPDEST PUSH1 0x0 PUSH2 0x1200 PUSH1 0x0 NOT DUP5 PUSH1 0x8 MUL PUSH2 0x11E2 JUMP JUMPDEST NOT DUP1 DUP4 AND SWAP2 POP POP SWAP3 SWAP2 POP POP JUMP JUMPDEST PUSH1 0x0 PUSH2 0x1219 DUP4 DUP4 PUSH2 0x11EF JUMP JUMPDEST SWAP2 POP DUP3 PUSH1 0x2 MUL DUP3 OR SWAP1 POP SWAP3 SWAP2 POP POP JUMP JUMPDEST PUSH2 0x1232 DUP3 PUSH2 0xE46 JUMP JUMPDEST PUSH8 0xFFFFFFFFFFFFFFFF DUP2 GT ISZERO PUSH2 0x124B JUMPI PUSH2 0x124A PUSH2 0xC1E JUMP JUMPDEST JUMPDEST PUSH2 0x1255 DUP3 SLOAD PUSH2 0x104C JUMP JUMPDEST PUSH2 0x1260 DUP3 DUP3 DUP6 PUSH2 0x119C JUMP JUMPDEST PUSH1 0x0 PUSH1 0x20 SWAP1 POP PUSH1 0x1F DUP4 GT PUSH1 0x1 DUP2 EQ PUSH2 0x1293 JUMPI PUSH1 0x0 DUP5 ISZERO PUSH2 0x1281 JUMPI DUP3 DUP8 ADD MLOAD SWAP1 POP JUMPDEST PUSH2 0x128B DUP6 DUP3 PUSH2 0x120D JUMP JUMPDEST DUP7 SSTORE POP PUSH2 0x12F3 JUMP JUMPDEST PUSH1 0x1F NOT DUP5 AND PUSH2 0x12A1 DUP7 PUSH2 0x107D JUMP JUMPDEST PUSH1 0x0 JUMPDEST DUP3 DUP2 LT ISZERO PUSH2 0x12C9 JUMPI DUP5 DUP10 ADD MLOAD DUP3 SSTORE PUSH1 0x1 DUP3 ADD SWAP2 POP PUSH1 0x20 DUP6 ADD SWAP5 POP PUSH1 0x20 DUP2 ADD SWAP1 POP PUSH2 0x12A4 JUMP JUMPDEST DUP7 DUP4 LT ISZERO PUSH2 0x12E6 JUMPI DUP5 DUP10 ADD MLOAD PUSH2 0x12E2 PUSH1 0x1F DUP10 AND DUP3 PUSH2 0x11EF JUMP JUMPDEST DUP4 SSTORE POP JUMPDEST PUSH1 0x1 PUSH1 0x2 DUP9 MUL ADD DUP9 SSTORE POP POP POP JUMPDEST POP POP POP POP POP POP JUMP JUMPDEST PUSH1 0x0 PUSH2 0x1306 DUP3 PUSH2 0xA38 JUMP JUMPDEST SWAP2 POP PUSH32 0xFFFFFFFFFFFFFFFFFFFFFFFFFFFFFFFFFFFFFFFFFFFFFFFFFFFFFFFFFFFFFFFF DUP3 SUB PUSH2 0x1338 JUMPI PUSH2 0x1337 PUSH2 0xFBD JUMP JUMPDEST JUMPDEST PUSH1 0x1 DUP3 ADD SWAP1 POP SWAP2 SWAP1 POP JUMP INVALID LOG2 PUSH5 0x6970667358 0x22 SLT KECCAK256 0xB5 PUSH15 0x9B873474BAA7E402FC68C745B07B79 0x2C EXTCODEHASH STOP CODESIZE DUP3 0xD2 CALLCODE 0xA7 RETURN LOG4 0xB7 0xC9 0xC1 0xBF 0xBA PUSH5 0x736F6C6343 STOP ADDMOD SGT STOP CALLER "},"gasEstimates":{"creation":{"codeDepositCost":"997000","executionCost":"infinite","totalCost":"infinite"},"external":{"approveRequest(uint256)":"infinite","approvers(address)":"2868","approversCount()":"2473","contribute()":"51043","createRequest(string,string,string,uint256,string,address)":"infinite","finalizeRequest(uint256)":"infinite","getRequestsCount()":"2490","getSummary()":"infinite","manager()":"2603","minimumContribution()":"2495","requests(uint256)":"infinite"}},"methodIdentifiers":{"approveRequest(uint256)":"d7d1bbdb","approvers(address)":"0a144391","approversCount()":"82fde093","contribute()":"d7bb99ba","createRequest(string,string,string,uint256,string,address)":"5b1410b5","finalizeRequest(uint256)":"03441006","getRequestsCount()":"3410452a","getSummary()":"4051ddac","manager()":"481c6a75","minimumContribution()":"937e09b1","requests(uint256)":"81d12c58"}},"storageLayout":{"storage":[{"astId":67,"contract":"Campaign.sol:Campaign","label":"requests","offset":0,"slot":"0","type":"t_array(t_struct(Request)63_storage)dyn_storage"},{"astId":69,"contract":"Campaign.sol:Campaign","label":"manager","offset":0,"slot":"1","type":"t_address"},{"astId":71,"contract":"Campaign.sol:Campaign","label":"minimumContribution","offset":0,"slot":"2","type":"t_uint256"},{"astId":75,"contract":"Campaign.sol:Campaign","label":"approvers","offset":0,"slot":"3","type":"t_mapping(t_address,t_bool)"},{"astId":77,"contract":"Campaign.sol:Campaign","label":"approversCount","offset":0,"slot":"4","type":"t_uint256"}],"types":{"t_address":{"encoding":"inplace","label":"address","numberOfBytes":"20"},"t_array(t_struct(Request)63_storage)dyn_storage":{"base":"t_struct(Request)63_storage","encoding":"dynamic_array","label":"struct Campaign.Request[]","numberOfBytes":"32"},"t_bool":{"encoding":"inplace","label":"bool","numberOfBytes":"1"},"t_mapping(t_address,t_bool)":{"encoding":"mapping","key":"t_address","label":"mapping(address => bool)","numberOfBytes":"32","value":"t_bool"},"t_string_storage":{"encoding":"bytes","label":"string","numberOfBytes":"32"},"t_struct(Request)63_storage":{"encoding":"inplace","label":"struct Campaign.Request","members":[{"astId":44,"contract":"Campaign.sol:Campaign","label":"orderId","offset":0,"slot":"0","type":"t_string_storage"},{"astId":46,"contract":"Campaign.sol:Campaign","label":"inspectedby","offset":0,"slot":"1","type":"t_string_storage"},{"astId":48,"contract":"Campaign.sol:Campaign","label":"approvedby","offset":0,"slot":"2","type":"t_string_storage"},{"astId":50,"contract":"Campaign.sol:Campaign","label":"value","offset":0,"slot":"3","type":"t_uint256"},{"astId":52,"contract":"Campaign.sol:Campaign","label":"selectedFile","offset":0,"slot":"4","type":"t_string_storage"},{"astId":54,"contract":"Campaign.sol:Campaign","label":"recipient","offset":0,"slot":"5","type":"t_address"},{"astId":56,"contract":"Campaign.sol:Campaign","label":"complete","offset":20,"slot":"5","type":"t_bool"},{"astId":58,"contract":"Campaign.sol:Campaign","label":"approvalCount","offset":0,"slot":"6","type":"t_uint256"},{"astId":62,"contract":"Campaign.sol:Campaign","label":"approvals","offset":0,"slot":"7","type":"t_mapping(t_address,t_bool)"}],"numberOfBytes":"256"},"t_uint256":{"encoding":"inplace","label":"uint256","numberOfBytes":"32"}}},"userdoc":{"kind":"user","methods":{},"version":1}}